{
  "contractName": "Administrators",
  "abi": [
    {
      "constant": false,
      "inputs": [
        {
          "name": "_address",
          "type": "address"
        }
      ],
      "name": "discharge",
      "outputs": [],
      "payable": false,
      "stateMutability": "nonpayable",
      "type": "function",
      "signature": "0x0231853a"
    },
    {
      "constant": true,
      "inputs": [],
      "name": "DESIGNATE_ROLE",
      "outputs": [
        {
          "name": "",
          "type": "bytes32"
        }
      ],
      "payable": false,
      "stateMutability": "view",
      "type": "function",
      "signature": "0x0a7519a3"
    },
    {
      "constant": true,
      "inputs": [
        {
          "name": "_index",
          "type": "uint256"
        }
      ],
      "name": "getByIndex",
      "outputs": [
        {
          "name": "key",
          "type": "address"
        },
        {
          "name": "hasTheRole",
          "type": "bool"
        }
      ],
      "payable": false,
      "stateMutability": "view",
      "type": "function",
      "signature": "0x2d883a73"
    },
    {
      "constant": false,
      "inputs": [
        {
          "name": "_address",
          "type": "address"
        }
      ],
      "name": "designate",
      "outputs": [],
      "payable": false,
      "stateMutability": "nonpayable",
      "type": "function",
      "signature": "0x45341692"
    },
    {
      "constant": true,
      "inputs": [],
      "name": "gateKeeper",
      "outputs": [
        {
          "name": "",
          "type": "address"
        }
      ],
      "payable": false,
      "stateMutability": "view",
      "type": "function",
      "signature": "0x45d61ded"
    },
    {
      "constant": true,
      "inputs": [
        {
          "name": "_key",
          "type": "address"
        }
      ],
      "name": "getByKey",
      "outputs": [
        {
          "name": "key",
          "type": "address"
        },
        {
          "name": "hasTheRole",
          "type": "bool"
        }
      ],
      "payable": false,
      "stateMutability": "view",
      "type": "function",
      "signature": "0x49877038"
    },
    {
      "constant": true,
      "inputs": [
        {
          "name": "_address",
          "type": "address"
        }
      ],
      "name": "hasRole",
      "outputs": [
        {
          "name": "hasTheRole",
          "type": "bool"
        }
      ],
      "payable": false,
      "stateMutability": "view",
      "type": "function",
      "signature": "0x7ef09bca"
    },
    {
      "constant": true,
      "inputs": [],
      "name": "getIndexLength",
      "outputs": [
        {
          "name": "length",
          "type": "uint256"
        }
      ],
      "payable": false,
      "stateMutability": "view",
      "type": "function",
      "signature": "0xe1ba7d01"
    },
    {
      "inputs": [
        {
          "name": "_gateKeeper",
          "type": "address"
        }
      ],
      "payable": false,
      "stateMutability": "nonpayable",
      "type": "constructor",
      "signature": "constructor"
    },
    {
      "anonymous": false,
      "inputs": [
        {
          "indexed": false,
          "name": "_address",
          "type": "address"
        }
      ],
      "name": "Designated",
      "type": "event",
      "signature": "0x6a7971839356e91af1f994a516a95eac2d3583cb6ba16b104843fcc927d77dae"
    },
    {
      "anonymous": false,
      "inputs": [
        {
          "indexed": false,
          "name": "_address",
          "type": "address"
        }
      ],
      "name": "Discharged",
      "type": "event",
      "signature": "0xa918a014a3cc4d384620aab101a9de9a018850704254ab6ce288864db9abd98b"
    },
    {
      "anonymous": false,
      "inputs": [
        {
          "indexed": false,
          "name": "_address",
          "type": "address"
        }
      ],
      "name": "RoleRegistryCreated",
      "type": "event",
      "signature": "0xe1024fd8985d06ce8c9f997f972a1260bbbb007e7f7496825505aff3b18165e9"
    }
  ],
  "bytecode": "0x608060405234801561001057600080fd5b50604051602080610778833981016040818152915160008054600160a060020a038316600160a060020a0319909116179055308252915182917fe1024fd8985d06ce8c9f997f972a1260bbbb007e7f7496825505aff3b18165e9919081900360200190a150506106f3806100856000396000f30060806040526004361061008d5763ffffffff7c01000000000000000000000000000000000000000000000000000000006000350416630231853a81146100925780630a7519a3146100b55780632d883a73146100dc578063453416921461011757806345d61ded1461013857806349877038146101695780637ef09bca1461018a578063e1ba7d01146101bf575b600080fd5b34801561009e57600080fd5b506100b3600160a060020a03600435166101d4565b005b3480156100c157600080fd5b506100ca610378565b60408051918252519081900360200190f35b3480156100e857600080fd5b506100f460043561039c565b60408051600160a060020a03909316835290151560208301528051918290030190f35b34801561012357600080fd5b506100b3600160a060020a0360043516610409565b34801561014457600080fd5b5061014d6105b1565b60408051600160a060020a039092168252519081900360200190f35b34801561017557600080fd5b506100f4600160a060020a03600435166105c0565b34801561019657600080fd5b506101ab600160a060020a03600435166105e3565b604080519115158252519081900360200190f35b3480156101cb57600080fd5b506100ca610601565b7f44455349474e4154455f524f4c450000000000000000000000000000000000006101ff3382610607565b151561029257604080517f08c379a000000000000000000000000000000000000000000000000000000000815260206004820152602160248201527f596f7520646f206e6f7420686176652074686520636f727265637420726f6c6560448201527f7300000000000000000000000000000000000000000000000000000000000000606482015290519081900360840190fd5b600160a060020a03821660009081526001602081905260409091200154151561031f576002805460018082019092557f405787fa12a823e0f2b7631cc41b3ba8828b3321ca811111fa75cd3aa3bb5ace01805473ffffffffffffffffffffffffffffffffffffffff1916600160a060020a0385169081179091556000908152602082905260409020429101555b600160a060020a038216600081815260016020908152604091829020805460ff19169055815192835290517fa918a014a3cc4d384620aab101a9de9a018850704254ab6ce288864db9abd98b9281900390910190a15050565b7f44455349474e4154455f524f4c4500000000000000000000000000000000000081565b6000806002838154811015156103ae57fe5b600091825260208220015460028054600160a060020a03909216945060019291869081106103d857fe5b6000918252602080832090910154600160a060020a03168352820192909252604001902054919360ff909216925050565b7f44455349474e4154455f524f4c450000000000000000000000000000000000006104343382610607565b15156104c757604080517f08c379a000000000000000000000000000000000000000000000000000000000815260206004820152602160248201527f596f7520646f206e6f7420686176652074686520636f727265637420726f6c6560448201527f7300000000000000000000000000000000000000000000000000000000000000606482015290519081900360840190fd5b600160a060020a038216600090815260016020819052604090912001541515610554576002805460018082019092557f405787fa12a823e0f2b7631cc41b3ba8828b3321ca811111fa75cd3aa3bb5ace01805473ffffffffffffffffffffffffffffffffffffffff1916600160a060020a0385169081179091556000908152602082905260409020429101555b600160a060020a038216600081815260016020818152604092839020805460ff1916909217909155815192835290517f6a7971839356e91af1f994a516a95eac2d3583cb6ba16b104843fcc927d77dae9281900390910190a15050565b600054600160a060020a031681565b600160a060020a038116600090815260016020526040902054909160ff90911690565b600160a060020a031660009081526001602052604090205460ff1690565b60025490565b60008054600160a060020a031615806106c0575060008054604080517f6d6712d8000000000000000000000000000000000000000000000000000000008152600160a060020a0387811660048301523060248301526044820187905291519190921692636d6712d892606480820193602093909283900390910190829087803b15801561069357600080fd5b505af11580156106a7573d6000803e3d6000fd5b505050506040513d60208110156106bd57600080fd5b50515b93925050505600a165627a7a723058202e526456bfb68c60e765666fcf0e0ce568e500003eedaa0b02011419c21abcc90029",
  "source": "pragma solidity ^0.4.24;\n\nimport \"@settlemint/solidity-mint/contracts/authentication/RoleRegistry.sol\";\n\n\n/**\n * Contains all the administrators of this system\n */\ncontract Administrators is RoleRegistry {\n\n  constructor(address _gateKeeper) public RoleRegistry(_gateKeeper) {}\n\n}\n",
  "sourcePath": "/Users/peterjanbrone/databrokerdao/databrokerdao-dapi/contracts/usergroups/Administrators.sol",
  "compiler": {
    "name": "solc",
    "version": "0.4.24+commit.e67f0147.Emscripten.clang"
  },
  "schemaVersion": "3.0.0-beta.0",
  "updatedAt": "2018-09-10T12:58:55.741Z"
}