{
  "contractName": "Challenge",
  "abi": [
    {
      "constant": true,
      "inputs": [],
      "name": "metadata",
      "outputs": [
        {
          "name": "",
          "type": "string"
        }
      ],
      "payable": false,
      "stateMutability": "view",
      "type": "function"
    },
    {
      "constant": true,
      "inputs": [],
      "name": "stake",
      "outputs": [
        {
          "name": "",
          "type": "uint256"
        }
      ],
      "payable": false,
      "stateMutability": "view",
      "type": "function"
    },
    {
      "constant": true,
      "inputs": [],
      "name": "resolved",
      "outputs": [
        {
          "name": "",
          "type": "bool"
        }
      ],
      "payable": false,
      "stateMutability": "view",
      "type": "function"
    },
    {
      "constant": true,
      "inputs": [],
      "name": "gateKeeper",
      "outputs": [
        {
          "name": "",
          "type": "address"
        }
      ],
      "payable": false,
      "stateMutability": "view",
      "type": "function"
    },
    {
      "constant": true,
      "inputs": [],
      "name": "challenger",
      "outputs": [
        {
          "name": "",
          "type": "address"
        }
      ],
      "payable": false,
      "stateMutability": "view",
      "type": "function"
    },
    {
      "constant": true,
      "inputs": [],
      "name": "timestamp",
      "outputs": [
        {
          "name": "",
          "type": "uint256"
        }
      ],
      "payable": false,
      "stateMutability": "view",
      "type": "function"
    },
    {
      "constant": true,
      "inputs": [],
      "name": "listing",
      "outputs": [
        {
          "name": "",
          "type": "address"
        }
      ],
      "payable": false,
      "stateMutability": "view",
      "type": "function"
    },
    {
      "constant": true,
      "inputs": [],
      "name": "UPDATE_METADATA_ROLE",
      "outputs": [
        {
          "name": "",
          "type": "bytes32"
        }
      ],
      "payable": false,
      "stateMutability": "view",
      "type": "function"
    },
    {
      "inputs": [
        {
          "name": "_challenger",
          "type": "address"
        },
        {
          "name": "_stakeAmount",
          "type": "uint256"
        },
        {
          "name": "_listing",
          "type": "address"
        },
        {
          "name": "_gateKeeper",
          "type": "address"
        }
      ],
      "payable": false,
      "stateMutability": "nonpayable",
      "type": "constructor"
    },
    {
      "anonymous": false,
      "inputs": [
        {
          "indexed": false,
          "name": "challenge",
          "type": "address"
        },
        {
          "indexed": false,
          "name": "resoved",
          "type": "bool"
        }
      ],
      "name": "ResolvedSet",
      "type": "event"
    },
    {
      "constant": false,
      "inputs": [
        {
          "name": "_resolved",
          "type": "bool"
        }
      ],
      "name": "setResolved",
      "outputs": [],
      "payable": false,
      "stateMutability": "nonpayable",
      "type": "function"
    },
    {
      "constant": false,
      "inputs": [
        {
          "name": "ipfsHash",
          "type": "string"
        }
      ],
      "name": "updateMetaData",
      "outputs": [],
      "payable": false,
      "stateMutability": "nonpayable",
      "type": "function"
    }
  ],
  "bytecode": "0x60806040526002805460a060020a60ff021916905534801561002057600080fd5b506040516080806105bc833981016040908152815160208301519183015160609093015160008054600160a060020a03928316600160a060020a031991821617909155600280549383169382169390931790925560039290925560048054929093169116179055426005556105228061009a6000396000f3006080604052600436106100a35763ffffffff7c0100000000000000000000000000000000000000000000000000000000600035041663164d90e081146100a8578063392f37e9146100c45780633a4b66f11461014e5780633f6fa6551461017557806345d61ded1461019e578063534db0e2146101dc5780635cc07505146101f1578063b80777ea1461024a578063bc7c55ed1461025f578063fff139cf14610274575b600080fd5b3480156100b457600080fd5b506100c26004351515610289565b005b3480156100d057600080fd5b506100d9610306565b6040805160208082528351818301528351919283929083019185019080838360005b838110156101135781810151838201526020016100fb565b50505050905090810190601f1680156101405780820380516001836020036101000a031916815260200191505b509250505060405180910390f35b34801561015a57600080fd5b50610163610393565b60408051918252519081900360200190f35b34801561018157600080fd5b5061018a610399565b604080519115158252519081900360200190f35b3480156101aa57600080fd5b506101b36103ba565b6040805173ffffffffffffffffffffffffffffffffffffffff9092168252519081900360200190f35b3480156101e857600080fd5b506101b36103d6565b3480156101fd57600080fd5b506040805160206004803580820135601f81018490048402850184019095528484526100c29436949293602493928401919081908401838280828437509497506103f29650505050505050565b34801561025657600080fd5b506101636103fe565b34801561026b57600080fd5b506101b3610404565b34801561028057600080fd5b50610163610420565b6002805474ff00000000000000000000000000000000000000001916740100000000000000000000000000000000000000008315159081029190911790915560408051308152602081019290925280517f1e26517183efe4efd75405d381f0fd1aa3fc89740db3c17a9c244127ca64c79c9281900390910190a150565b60018054604080516020600284861615610100026000190190941693909304601f8101849004840282018401909252818152929183018282801561038b5780601f106103605761010080835404028352916020019161038b565b820191906000526020600020905b81548152906001019060200180831161036e57829003601f168201915b505050505081565b60035481565b60025474010000000000000000000000000000000000000000900460ff1681565b60005473ffffffffffffffffffffffffffffffffffffffff1681565b60025473ffffffffffffffffffffffffffffffffffffffff1681565b6103fb81610444565b50565b60055481565b60045473ffffffffffffffffffffffffffffffffffffffff1681565b7f5550444154455f4d455441444154415f524f4c4500000000000000000000000081565b805161045790600190602084019061045b565b5050565b828054600181600116156101000203166002900490600052602060002090601f016020900481019282601f1061049c57805160ff19168380011785556104c9565b828001600101855582156104c9579182015b828111156104c95782518255916020019190600101906104ae565b506104d59291506104d9565b5090565b6104f391905b808211156104d557600081556001016104df565b905600a165627a7a72305820bf08d056b975e87f78bab50a2ec77cc2c36e536427d7979c7e30012f01aa403b0029",
  "source": "pragma solidity ^0.4.20;\n\nimport \"../../authentication/Secured.sol\";\nimport \"../../utility/metadata/MetaDataContainer.sol\";\n\n\ncontract Challenge is Secured, MetaDataContainer {\n\n  event ResolvedSet(address challenge, bool resoved);\n\n  address public challenger;\n  bool public resolved = false;\n  uint public stake;\n  address public listing;\n  uint public timestamp;\n\n  /**\n  @dev Contructor\n  @notice                     Hold one challenge to a listing\n  @param _challenger          Owner of Challenge\n  @param _stakeAmount         Number of tokens at risk for either party during challenge\n  @param _listing             Listing this challenge was added to\n  @param _gateKeeper          Address of the gatekeeper\n  */\n  constructor(\n    address _challenger,\n    uint _stakeAmount,\n    address _listing,\n    address _gateKeeper\n  )\n    Secured(_gateKeeper)\n    public\n  {\n    challenger = _challenger;\n    stake = _stakeAmount;\n    listing = _listing;\n    timestamp = now;\n  }\n\n  /**\n  @notice            Sets resolved property\n  @param _resolved   Resolved\n  */\n  function setResolved(bool _resolved) public {\n    resolved = _resolved;\n    emit ResolvedSet(this, _resolved);\n  }\n\n  /**\n  * implementation of metadata methods\n  */\n  function updateMetaData(string ipfsHash) public {\n    super.updateMetaData(ipfsHash);\n  }\n}\n",
  "sourcePath": "@settlemint/solidity-mint/contracts/marketplaces/tokencuratedregistry/Challenge.sol",
  "compiler": {
    "name": "solc",
    "version": "0.4.24+commit.e67f0147.Emscripten.clang"
  },
  "schemaVersion": "3.0.0-beta.0",
  "updatedAt": "2018-09-11T13:17:40.999Z"
}