{
  "contractName": "ChallengeRegistry",
  "abi": [
    {
      "constant": true,
      "inputs": [
        {
          "name": "",
          "type": "address"
        }
      ],
      "name": "challenges",
      "outputs": [
        {
          "name": "",
          "type": "address"
        }
      ],
      "payable": false,
      "stateMutability": "view",
      "type": "function",
      "signature": "0x08b43a19"
    },
    {
      "constant": true,
      "inputs": [],
      "name": "gateKeeper",
      "outputs": [
        {
          "name": "",
          "type": "address"
        }
      ],
      "payable": false,
      "stateMutability": "view",
      "type": "function",
      "signature": "0x45d61ded"
    },
    {
      "inputs": [
        {
          "name": "_gateKeeper",
          "type": "address"
        }
      ],
      "payable": false,
      "stateMutability": "nonpayable",
      "type": "constructor",
      "signature": "constructor"
    },
    {
      "anonymous": false,
      "inputs": [
        {
          "indexed": false,
          "name": "_address",
          "type": "address"
        }
      ],
      "name": "ChallengeAdded",
      "type": "event",
      "signature": "0x2ffa3776d4bcbee1c082f84b2b35d2a24a419de30436c0c4b8f69ea2ced480b0"
    },
    {
      "constant": false,
      "inputs": [
        {
          "name": "_challenge",
          "type": "address"
        }
      ],
      "name": "addChallenge",
      "outputs": [],
      "payable": false,
      "stateMutability": "nonpayable",
      "type": "function",
      "signature": "0xf8242c32"
    },
    {
      "constant": true,
      "inputs": [],
      "name": "getIndexLength",
      "outputs": [
        {
          "name": "length",
          "type": "uint256"
        }
      ],
      "payable": false,
      "stateMutability": "view",
      "type": "function",
      "signature": "0xe1ba7d01"
    },
    {
      "constant": true,
      "inputs": [
        {
          "name": "index",
          "type": "uint256"
        }
      ],
      "name": "getByIndex",
      "outputs": [
        {
          "name": "key",
          "type": "address"
        },
        {
          "name": "contractAddress",
          "type": "address"
        }
      ],
      "payable": false,
      "stateMutability": "view",
      "type": "function",
      "signature": "0x2d883a73"
    },
    {
      "constant": true,
      "inputs": [
        {
          "name": "_key",
          "type": "address"
        }
      ],
      "name": "getByKey",
      "outputs": [
        {
          "name": "key",
          "type": "address"
        },
        {
          "name": "contractAddress",
          "type": "address"
        }
      ],
      "payable": false,
      "stateMutability": "view",
      "type": "function",
      "signature": "0x49877038"
    }
  ],
  "bytecode": "0x608060405234801561001057600080fd5b50604051602080610325833981016040525160008054600160a060020a03909216600160a060020a03199092169190911790556102d3806100526000396000f3006080604052600436106100775763ffffffff7c010000000000000000000000000000000000000000000000000000000060003504166308b43a19811461007c5780632d883a73146100b957806345d61ded146100f7578063498770381461010c578063e1ba7d011461012d578063f8242c3214610154575b600080fd5b34801561008857600080fd5b5061009d600160a060020a0360043516610177565b60408051600160a060020a039092168252519081900360200190f35b3480156100c557600080fd5b506100d1600435610192565b60408051600160a060020a03938416815291909216602082015281519081900390910190f35b34801561010357600080fd5b5061009d6101ca565b34801561011857600080fd5b506100d1600160a060020a03600435166101d9565b34801561013957600080fd5b506101426101f9565b60408051918252519081900360200190f35b34801561016057600080fd5b50610175600160a060020a03600435166101ff565b005b600160205260009081526040902054600160a060020a031681565b6000806101c16002848154811015156101a757fe5b600091825260209091200154600160a060020a03166101d9565b91509150915091565b600054600160a060020a031681565b600160a060020a0390811660009081526001602052604090205416908190565b60025490565b600160a060020a0381166000818152600160208181526040808420805473ffffffffffffffffffffffffffffffffffffffff1990811687179091556002805494850181559094527f405787fa12a823e0f2b7631cc41b3ba8828b3321ca811111fa75cd3aa3bb5ace909201805490931684179092558051928352517f2ffa3776d4bcbee1c082f84b2b35d2a24a419de30436c0c4b8f69ea2ced480b09281900390910190a1505600a165627a7a723058208631d22ed645b61f9e86e615c23e51f7afb9776c0dee8a49519dd79b02d9a62e0029",
  "source": "pragma solidity ^0.4.20;\n\nimport \"../../authentication/Secured.sol\";\nimport \"../../utility/syncing/Syncable.sol\";\nimport \"./Challenge.sol\";\n\n\ncontract ChallengeRegistry is Secured, Syncable {\n\n  event ChallengeAdded(address _address);\n\n  // Keep track of challenges\n  mapping(address => Challenge) public challenges;\n  address[] challengesIndex; // Array of challenge ids\n\n  constructor(\n    address _gateKeeper\n  )\n    Secured(_gateKeeper)\n    public\n  {}\n\n  /**\n  @notice             Adds a challenge to the registry\n  @param _challenge   Address of the challenge to add\n  */\n  function addChallenge(address _challenge) public {\n    challenges[_challenge] = Challenge(address(_challenge));\n    challengesIndex.push(_challenge);\n    emit ChallengeAdded(_challenge);\n  }\n\n  /**\n  * implementation of syncable methods\n  */\n  function getIndexLength() public view returns (uint length) {\n    length = challengesIndex.length;\n  }\n\n  function getByIndex(uint index) public view returns (address key, address contractAddress) {\n    return getByKey(challengesIndex[index]);\n  }\n\n  function getByKey(address _key) public view returns (address key, address contractAddress) {\n    key = address(challenges[_key]);\n    contractAddress = address(challenges[_key]);\n  }\n\n}\n",
  "sourcePath": "@settlemint/solidity-mint/contracts/marketplaces/tokencuratedregistry/ChallengeRegistry.sol",
  "compiler": {
    "name": "solc",
    "version": "0.4.24+commit.e67f0147.Emscripten.clang"
  },
  "schemaVersion": "3.0.0-beta.0",
  "updatedAt": "2018-09-25T20:20:15.804Z"
}