{
  "contractName": "DtxToken",
  "abi": [
    {
      "constant": true,
      "inputs": [],
      "name": "name",
      "outputs": [
        {
          "name": "",
          "type": "bytes32"
        }
      ],
      "payable": false,
      "stateMutability": "view",
      "type": "function",
      "signature": "0x06fdde03"
    },
    {
      "constant": false,
      "inputs": [
        {
          "name": "_spender",
          "type": "address"
        },
        {
          "name": "_value",
          "type": "uint256"
        }
      ],
      "name": "approve",
      "outputs": [
        {
          "name": "",
          "type": "bool"
        }
      ],
      "payable": false,
      "stateMutability": "nonpayable",
      "type": "function",
      "signature": "0x095ea7b3"
    },
    {
      "constant": true,
      "inputs": [],
      "name": "totalSupply",
      "outputs": [
        {
          "name": "",
          "type": "uint256"
        }
      ],
      "payable": false,
      "stateMutability": "view",
      "type": "function",
      "signature": "0x18160ddd"
    },
    {
      "constant": false,
      "inputs": [
        {
          "name": "_roleRegistryAddress",
          "type": "address"
        },
        {
          "name": "_amount",
          "type": "uint256"
        }
      ],
      "name": "burnFromRoleRegistry",
      "outputs": [
        {
          "name": "success",
          "type": "bool"
        }
      ],
      "payable": false,
      "stateMutability": "nonpayable",
      "type": "function",
      "signature": "0x1bd42f3e"
    },
    {
      "constant": false,
      "inputs": [
        {
          "name": "_from",
          "type": "address"
        },
        {
          "name": "_to",
          "type": "address"
        },
        {
          "name": "_value",
          "type": "uint256"
        }
      ],
      "name": "transferFrom",
      "outputs": [
        {
          "name": "success",
          "type": "bool"
        }
      ],
      "payable": false,
      "stateMutability": "nonpayable",
      "type": "function",
      "signature": "0x23b872dd"
    },
    {
      "constant": false,
      "inputs": [
        {
          "name": "_to",
          "type": "address"
        },
        {
          "name": "_value",
          "type": "uint256"
        },
        {
          "name": "_data",
          "type": "bytes"
        }
      ],
      "name": "transferWithData",
      "outputs": [
        {
          "name": "success",
          "type": "bool"
        }
      ],
      "payable": false,
      "stateMutability": "nonpayable",
      "type": "function",
      "signature": "0x2535f762"
    },
    {
      "constant": true,
      "inputs": [],
      "name": "decimals",
      "outputs": [
        {
          "name": "",
          "type": "uint8"
        }
      ],
      "payable": false,
      "stateMutability": "view",
      "type": "function",
      "signature": "0x313ce567"
    },
    {
      "constant": true,
      "inputs": [],
      "name": "metadata",
      "outputs": [
        {
          "name": "",
          "type": "string"
        }
      ],
      "payable": false,
      "stateMutability": "view",
      "type": "function",
      "signature": "0x392f37e9"
    },
    {
      "constant": false,
      "inputs": [
        {
          "name": "_to",
          "type": "address"
        },
        {
          "name": "_amount",
          "type": "uint256"
        }
      ],
      "name": "mint",
      "outputs": [
        {
          "name": "success",
          "type": "bool"
        }
      ],
      "payable": false,
      "stateMutability": "nonpayable",
      "type": "function",
      "signature": "0x40c10f19"
    },
    {
      "constant": true,
      "inputs": [],
      "name": "gateKeeper",
      "outputs": [
        {
          "name": "",
          "type": "address"
        }
      ],
      "payable": false,
      "stateMutability": "view",
      "type": "function",
      "signature": "0x45d61ded"
    },
    {
      "constant": false,
      "inputs": [
        {
          "name": "ipfsHash",
          "type": "string"
        }
      ],
      "name": "updateMetaData",
      "outputs": [],
      "payable": false,
      "stateMutability": "nonpayable",
      "type": "function",
      "signature": "0x5cc07505"
    },
    {
      "constant": false,
      "inputs": [
        {
          "name": "_spender",
          "type": "address"
        },
        {
          "name": "_subtractedValue",
          "type": "uint256"
        }
      ],
      "name": "decreaseApproval",
      "outputs": [
        {
          "name": "success",
          "type": "bool"
        }
      ],
      "payable": false,
      "stateMutability": "nonpayable",
      "type": "function",
      "signature": "0x66188463"
    },
    {
      "constant": true,
      "inputs": [
        {
          "name": "_owner",
          "type": "address"
        }
      ],
      "name": "balanceOf",
      "outputs": [
        {
          "name": "balance",
          "type": "uint256"
        }
      ],
      "payable": false,
      "stateMutability": "view",
      "type": "function",
      "signature": "0x70a08231"
    },
    {
      "constant": false,
      "inputs": [
        {
          "name": "_from",
          "type": "address"
        },
        {
          "name": "_amount",
          "type": "uint256"
        }
      ],
      "name": "burn",
      "outputs": [
        {
          "name": "success",
          "type": "bool"
        }
      ],
      "payable": false,
      "stateMutability": "nonpayable",
      "type": "function",
      "signature": "0x9dc29fac"
    },
    {
      "constant": false,
      "inputs": [
        {
          "name": "_to",
          "type": "address"
        },
        {
          "name": "_value",
          "type": "uint256"
        }
      ],
      "name": "transfer",
      "outputs": [
        {
          "name": "success",
          "type": "bool"
        }
      ],
      "payable": false,
      "stateMutability": "nonpayable",
      "type": "function",
      "signature": "0xa9059cbb"
    },
    {
      "constant": true,
      "inputs": [],
      "name": "BURN_ROLE",
      "outputs": [
        {
          "name": "",
          "type": "bytes32"
        }
      ],
      "payable": false,
      "stateMutability": "view",
      "type": "function",
      "signature": "0xb930908f"
    },
    {
      "constant": false,
      "inputs": [
        {
          "name": "_spender",
          "type": "address"
        },
        {
          "name": "_addedValue",
          "type": "uint256"
        }
      ],
      "name": "increaseApproval",
      "outputs": [
        {
          "name": "success",
          "type": "bool"
        }
      ],
      "payable": false,
      "stateMutability": "nonpayable",
      "type": "function",
      "signature": "0xd73dd623"
    },
    {
      "constant": false,
      "inputs": [
        {
          "name": "_roleRegistryAddress",
          "type": "address"
        },
        {
          "name": "_amount",
          "type": "uint256"
        }
      ],
      "name": "mintToRoleRegistry",
      "outputs": [
        {
          "name": "success",
          "type": "bool"
        }
      ],
      "payable": false,
      "stateMutability": "nonpayable",
      "type": "function",
      "signature": "0xdcb82f81"
    },
    {
      "constant": true,
      "inputs": [
        {
          "name": "_owner",
          "type": "address"
        },
        {
          "name": "_spender",
          "type": "address"
        }
      ],
      "name": "allowance",
      "outputs": [
        {
          "name": "remaining",
          "type": "uint256"
        }
      ],
      "payable": false,
      "stateMutability": "view",
      "type": "function",
      "signature": "0xdd62ed3e"
    },
    {
      "constant": true,
      "inputs": [],
      "name": "MINT_ROLE",
      "outputs": [
        {
          "name": "",
          "type": "bytes32"
        }
      ],
      "payable": false,
      "stateMutability": "view",
      "type": "function",
      "signature": "0xe9a9c850"
    },
    {
      "constant": false,
      "inputs": [
        {
          "name": "_from",
          "type": "address"
        },
        {
          "name": "_to",
          "type": "address"
        },
        {
          "name": "_value",
          "type": "uint256"
        },
        {
          "name": "_data",
          "type": "bytes"
        }
      ],
      "name": "transferFromWithData",
      "outputs": [
        {
          "name": "success",
          "type": "bool"
        }
      ],
      "payable": false,
      "stateMutability": "nonpayable",
      "type": "function",
      "signature": "0xee532f31"
    },
    {
      "constant": true,
      "inputs": [],
      "name": "UPDATE_METADATA_ROLE",
      "outputs": [
        {
          "name": "",
          "type": "bytes32"
        }
      ],
      "payable": false,
      "stateMutability": "view",
      "type": "function",
      "signature": "0xfff139cf"
    },
    {
      "inputs": [
        {
          "name": "_name",
          "type": "bytes32"
        },
        {
          "name": "_decimals",
          "type": "uint8"
        },
        {
          "name": "_gateKeeper",
          "type": "address"
        }
      ],
      "payable": false,
      "stateMutability": "nonpayable",
      "type": "constructor",
      "signature": "constructor"
    },
    {
      "anonymous": false,
      "inputs": [
        {
          "indexed": true,
          "name": "from",
          "type": "address"
        },
        {
          "indexed": true,
          "name": "to",
          "type": "address"
        },
        {
          "indexed": false,
          "name": "value",
          "type": "uint256"
        }
      ],
      "name": "Transfer",
      "type": "event",
      "signature": "0xddf252ad1be2c89b69c2b068fc378daa952ba7f163c4a11628f55a4df523b3ef"
    },
    {
      "anonymous": false,
      "inputs": [
        {
          "indexed": true,
          "name": "from",
          "type": "address"
        },
        {
          "indexed": true,
          "name": "to",
          "type": "address"
        },
        {
          "indexed": false,
          "name": "data",
          "type": "bytes"
        }
      ],
      "name": "TransferData",
      "type": "event",
      "signature": "0x69cf42fddae119b7568ebaa1f70aac657fd6abd62d00c2ab4fcf81ff87935ab3"
    },
    {
      "anonymous": false,
      "inputs": [
        {
          "indexed": true,
          "name": "to",
          "type": "address"
        },
        {
          "indexed": false,
          "name": "amount",
          "type": "uint256"
        }
      ],
      "name": "Mint",
      "type": "event",
      "signature": "0x0f6798a560793a54c3bcfe86a93cde1e73087d944c0ea20544137d4121396885"
    },
    {
      "anonymous": false,
      "inputs": [
        {
          "indexed": true,
          "name": "from",
          "type": "address"
        },
        {
          "indexed": false,
          "name": "amount",
          "type": "uint256"
        }
      ],
      "name": "Burn",
      "type": "event",
      "signature": "0xcc16f5dbb4873280815c1ee09dbd06736cffcc184412cf7a71a0fdb75d397ca5"
    },
    {
      "anonymous": false,
      "inputs": [
        {
          "indexed": true,
          "name": "owner",
          "type": "address"
        },
        {
          "indexed": true,
          "name": "spender",
          "type": "address"
        },
        {
          "indexed": false,
          "name": "value",
          "type": "uint256"
        }
      ],
      "name": "Approval",
      "type": "event",
      "signature": "0x8c5be1e5ebec7d5bd14f71427d1e84f3dd0314c0f7b2291e5b200ac8c7c3b925"
    },
    {
      "constant": true,
      "inputs": [],
      "name": "getIndexLength",
      "outputs": [
        {
          "name": "length",
          "type": "uint256"
        }
      ],
      "payable": false,
      "stateMutability": "view",
      "type": "function",
      "signature": "0xe1ba7d01"
    },
    {
      "constant": true,
      "inputs": [
        {
          "name": "index",
          "type": "uint256"
        }
      ],
      "name": "getByIndex",
      "outputs": [
        {
          "name": "key",
          "type": "address"
        },
        {
          "name": "balance",
          "type": "uint256"
        }
      ],
      "payable": false,
      "stateMutability": "view",
      "type": "function",
      "signature": "0x2d883a73"
    },
    {
      "constant": true,
      "inputs": [
        {
          "name": "_key",
          "type": "address"
        }
      ],
      "name": "getByKey",
      "outputs": [
        {
          "name": "key",
          "type": "address"
        },
        {
          "name": "balance",
          "type": "uint256"
        }
      ],
      "payable": false,
      "stateMutability": "view",
      "type": "function",
      "signature": "0x49877038"
    }
  ],
  "bytecode": "0x608060405234801561001057600080fd5b50604051606080611bb183398101604090815281516020830151919092015160008054600160a060020a031916600160a060020a039092169190911781556002929092556003805460ff191660ff909216919091179055611b3a90819061007790396000f30060806040526004361061012f5763ffffffff60e060020a60003504166306fdde038114610134578063095ea7b31461015b57806318160ddd146101935780631bd42f3e146101a857806323b872dd146101cc5780632535f762146101f65780632d883a731461025f578063313ce5671461029a578063392f37e9146102c557806340c10f191461034f57806345d61ded1461037357806349877038146103a45780635cc07505146103c5578063661884631461042057806370a08231146104445780639dc29fac14610465578063a9059cbb14610489578063b930908f146104ad578063d73dd623146104c2578063dcb82f81146104e6578063dd62ed3e1461050a578063e1ba7d0114610531578063e9a9c85014610546578063ee532f311461055b578063fff139cf146105ca575b600080fd5b34801561014057600080fd5b506101496105df565b60408051918252519081900360200190f35b34801561016757600080fd5b5061017f600160a060020a03600435166024356105e5565b604080519115158252519081900360200190f35b34801561019f57600080fd5b5061014961064b565b3480156101b457600080fd5b5061017f600160a060020a0360043516602435610651565b3480156101d857600080fd5b5061017f600160a060020a0360043581169060243516604435610814565b34801561020257600080fd5b50604080516020600460443581810135601f810184900484028501840190955284845261017f948235600160a060020a0316946024803595369594606494920191908190840183828082843750949750610b369650505050505050565b34801561026b57600080fd5b50610277600435610c4f565b60408051600160a060020a03909316835260208301919091528051918290030190f35b3480156102a657600080fd5b506102af610cb8565b6040805160ff9092168252519081900360200190f35b3480156102d157600080fd5b506102da610cc1565b6040805160208082528351818301528351919283929083019185019080838360005b838110156103145781810151838201526020016102fc565b50505050905090810190601f1680156103415780820380516001836020036101000a031916815260200191505b509250505060405180910390f35b34801561035b57600080fd5b5061017f600160a060020a0360043516602435610d4e565b34801561037f57600080fd5b50610388610f24565b60408051600160a060020a039092168252519081900360200190f35b3480156103b057600080fd5b50610277600160a060020a0360043516610f33565b3480156103d157600080fd5b506040805160206004803580820135601f810184900484028501840190955284845261041e943694929360249392840191908190840183828082843750949750610f509650505050505050565b005b34801561042c57600080fd5b5061017f600160a060020a0360043516602435610fd9565b34801561045057600080fd5b50610149600160a060020a03600435166110c9565b34801561047157600080fd5b5061017f600160a060020a03600435166024356110e4565b34801561049557600080fd5b5061017f600160a060020a0360043516602435611320565b3480156104b957600080fd5b5061014961153b565b3480156104ce57600080fd5b5061017f600160a060020a036004351660243561155f565b3480156104f257600080fd5b5061017f600160a060020a03600435166024356115f8565b34801561051657600080fd5b50610149600160a060020a03600435811690602435166117ac565b34801561053d57600080fd5b506101496117d7565b34801561055257600080fd5b506101496117dd565b34801561056757600080fd5b50604080516020601f60643560048181013592830184900484028501840190955281845261017f94600160a060020a0381358116956024803590921695604435953695608494019181908401838280828437509497506118019650505050505050565b3480156105d657600080fd5b5061014961191c565b60025481565b336000818152600660209081526040808320600160a060020a038716808552908352818420869055815186815291519394909390927f8c5be1e5ebec7d5bd14f71427d1e84f3dd0314c0f7b2291e5b200ac8c7c3b925928290030190a350600192915050565b60075481565b6000806000806000807f4255524e5f524f4c4500000000000000000000000000000000000000000000006106853382611940565b15156106d6576040805160e560020a62461bcd0281526020600482015260216024820152600080516020611acf833981519152604482015260f860020a607302606482015290519081900360840190fd5b88955085600160a060020a031663e1ba7d016040518163ffffffff1660e060020a028152600401602060405180830381600087803b15801561071757600080fd5b505af115801561072b573d6000803e3d6000fd5b505050506040513d602081101561074157600080fd5b50519450600093505b8484101561080557604080517f2d883a73000000000000000000000000000000000000000000000000000000008152600481018690528151600160a060020a03891692632d883a7392602480820193918290030181600087803b1580156107b057600080fd5b505af11580156107c4573d6000803e3d6000fd5b505050506040513d60408110156107da57600080fd5b508051602090910151909350915081156107fa576107f883896110e4565b505b60019093019261074a565b50600198975050505050505050565b6000600160a060020a0383161515610876576040805160e560020a62461bcd02815260206004820152601560248201527f746f2073686f756c64206e6f74206265206e756c6c0000000000000000000000604482015290519081900360640190fd5b600160a060020a03841660009081526004602052604090205482111561090c576040805160e560020a62461bcd02815260206004820152602160248201527f76616c75652073686f756c64206265206c657373207468616e2062616c616e6360448201527f6500000000000000000000000000000000000000000000000000000000000000606482015290519081900360840190fd5b600160a060020a03841660009081526006602090815260408083203384529091529020548211156109ad576040805160e560020a62461bcd02815260206004820152602360248201527f76616c75652073686f756c64206265206c657373207468616e20616c6c6f776160448201527f6e63650000000000000000000000000000000000000000000000000000000000606482015290519081900360840190fd5b600160a060020a0383166000908152600460205260409020600101541515610a3b57600160a060020a0383166000818152600460205260408120426001918201556005805491820181559091527f036b6384b5eca791c62761152d0c79bb0604c104a5fb6f4eb0703f3154bb3db001805473ffffffffffffffffffffffffffffffffffffffff191690911790555b600160a060020a038416600090815260046020526040902054610a64908363ffffffff611a0016565b600160a060020a038086166000908152600460205260408082209390935590851681522054610a99908363ffffffff611a1216565b600160a060020a038085166000908152600460209081526040808320949094559187168152600682528281203382529091522054610add908363ffffffff611a0016565b600160a060020a0380861660008181526006602090815260408083203384528252918290209490945580518681529051928716939192600080516020611aef833981519152929181900390910190a35060019392505050565b6000610b428484611320565b1515610b98576040805160e560020a62461bcd02815260206004820152600f60248201527f7472616e73666572206661696c65640000000000000000000000000000000000604482015290519081900360640190fd5b83600160a060020a031633600160a060020a03167f69cf42fddae119b7568ebaa1f70aac657fd6abd62d00c2ab4fcf81ff87935ab3846040518080602001828103825283818151815260200191508051906020019080838360005b83811015610c0b578181015183820152602001610bf3565b50505050905090810190601f168015610c385780820380516001836020036101000a031916815260200191505b509250505060405180910390a35060019392505050565b600080600583815481101515610c6157fe5b600091825260208220015460058054600160a060020a0390921694506004929186908110610c8b57fe5b6000918252602080832090910154600160a060020a03168352820192909252604001902054919391925050565b60035460ff1681565b60018054604080516020600284861615610100026000190190941693909304601f81018490048402820184019092528181529291830182828015610d465780601f10610d1b57610100808354040283529160200191610d46565b820191906000526020600020905b815481529060010190602001808311610d2957829003601f168201915b505050505081565b60007f4d494e545f524f4c450000000000000000000000000000000000000000000000610d7b3382611940565b1515610dcc576040805160e560020a62461bcd0281526020600482015260216024820152600080516020611acf833981519152604482015260f860020a607302606482015290519081900360840190fd5b600160a060020a0384166000908152600460205260409020600101541515610e5a57600160a060020a0384166000818152600460205260408120426001918201556005805491820181559091527f036b6384b5eca791c62761152d0c79bb0604c104a5fb6f4eb0703f3154bb3db001805473ffffffffffffffffffffffffffffffffffffffff191690911790555b600754610e6d908463ffffffff611a1216565b600755600160a060020a038416600090815260046020526040902054610e99908463ffffffff611a1216565b600160a060020a038516600081815260046020908152604091829020939093558051868152905191927f0f6798a560793a54c3bcfe86a93cde1e73087d944c0ea20544137d412139688592918290030190a2604080518481529051600160a060020a03861691600091600080516020611aef8339815191529181900360200190a35060019392505050565b600054600160a060020a031681565b600160a060020a0381166000908152600460205260409020549091565b7f5550444154455f4d455441444154415f524f4c45000000000000000000000000610f7b3382611940565b1515610fcc576040805160e560020a62461bcd0281526020600482015260216024820152600080516020611acf833981519152604482015260f860020a607302606482015290519081900360840190fd5b610fd582611a25565b5050565b336000908152600660209081526040808320600160a060020a03861684529091528120548083111561102e57336000908152600660209081526040808320600160a060020a0388168452909152812055611063565b61103e818463ffffffff611a0016565b336000908152600660209081526040808320600160a060020a03891684529091529020555b336000818152600660209081526040808320600160a060020a0389168085529083529281902054815190815290519293927f8c5be1e5ebec7d5bd14f71427d1e84f3dd0314c0f7b2291e5b200ac8c7c3b925929181900390910190a35060019392505050565b600160a060020a031660009081526004602052604090205490565b60007f4255524e5f524f4c4500000000000000000000000000000000000000000000006111113382611940565b1515611162576040805160e560020a62461bcd0281526020600482015260216024820152600080516020611acf833981519152604482015260f860020a607302606482015290519081900360840190fd5b600083116111ba576040805160e560020a62461bcd02815260206004820152601e60248201527f616d6f756e742068736f756c6420626520626967676572207468616e20300000604482015290519081900360640190fd5b600160a060020a038416600090815260046020526040902054831115611250576040805160e560020a62461bcd02815260206004820152602260248201527f616d6f756e742073686f756c64206265206c657373207468616e2062616c616e60448201527f6365000000000000000000000000000000000000000000000000000000000000606482015290519081900360840190fd5b600160a060020a038416600090815260046020526040902054611279908463ffffffff611a0016565b600160a060020a0385166000908152600460205260409020556007546112a5908463ffffffff611a0016565b600755604080518481529051600160a060020a038616917fcc16f5dbb4873280815c1ee09dbd06736cffcc184412cf7a71a0fdb75d397ca5919081900360200190a2604080518481529051600091600160a060020a03871691600080516020611aef8339815191529181900360200190a35060019392505050565b6000600160a060020a0383161515611382576040805160e560020a62461bcd02815260206004820152601260248201527f746f2073686f756c64206e6f7420626520300000000000000000000000000000604482015290519081900360640190fd5b3360009081526004602052604090205482111561140f576040805160e560020a62461bcd02815260206004820152602160248201527f76616c75652073686f756c64206265206c657373207468616e2062616c616e6360448201527f6500000000000000000000000000000000000000000000000000000000000000606482015290519081900360840190fd5b600160a060020a038316600090815260046020526040902060010154151561149d57600160a060020a0383166000818152600460205260408120426001918201556005805491820181559091527f036b6384b5eca791c62761152d0c79bb0604c104a5fb6f4eb0703f3154bb3db001805473ffffffffffffffffffffffffffffffffffffffff191690911790555b336000908152600460205260409020546114bd908363ffffffff611a0016565b3360009081526004602052604080822092909255600160a060020a038516815220546114ef908363ffffffff611a1216565b600160a060020a038416600081815260046020908152604091829020939093558051858152905191923392600080516020611aef8339815191529281900390910190a350600192915050565b7f4255524e5f524f4c45000000000000000000000000000000000000000000000081565b336000908152600660209081526040808320600160a060020a0386168452909152812054611593908363ffffffff611a1216565b336000818152600660209081526040808320600160a060020a0389168085529083529281902085905580519485525191937f8c5be1e5ebec7d5bd14f71427d1e84f3dd0314c0f7b2291e5b200ac8c7c3b925929081900390910190a350600192915050565b6000806000806000807f4d494e545f524f4c45000000000000000000000000000000000000000000000061162c3382611940565b151561167d576040805160e560020a62461bcd0281526020600482015260216024820152600080516020611acf833981519152604482015260f860020a607302606482015290519081900360840190fd5b88955085600160a060020a031663e1ba7d016040518163ffffffff1660e060020a028152600401602060405180830381600087803b1580156116be57600080fd5b505af11580156116d2573d6000803e3d6000fd5b505050506040513d60208110156116e857600080fd5b50519450600093505b8484101561080557604080517f2d883a73000000000000000000000000000000000000000000000000000000008152600481018690528151600160a060020a03891692632d883a7392602480820193918290030181600087803b15801561175757600080fd5b505af115801561176b573d6000803e3d6000fd5b505050506040513d604081101561178157600080fd5b508051602090910151909350915081156117a15761179f8389610d4e565b505b6001909301926116f1565b600160a060020a03918216600090815260066020908152604080832093909416825291909152205490565b60055490565b7f4d494e545f524f4c45000000000000000000000000000000000000000000000081565b600061180e858585610814565b1515611864576040805160e560020a62461bcd02815260206004820152600f60248201527f7472616e73666572206661696c65640000000000000000000000000000000000604482015290519081900360640190fd5b83600160a060020a031685600160a060020a03167f69cf42fddae119b7568ebaa1f70aac657fd6abd62d00c2ab4fcf81ff87935ab3846040518080602001828103825283818151815260200191508051906020019080838360005b838110156118d75781810151838201526020016118bf565b50505050905090810190601f1680156119045780820380516001836020036101000a031916815260200191505b509250505060405180910390a3506001949350505050565b7f5550444154455f4d455441444154415f524f4c4500000000000000000000000081565b60008054600160a060020a031615806119f9575060008054604080517f6d6712d8000000000000000000000000000000000000000000000000000000008152600160a060020a0387811660048301523060248301526044820187905291519190921692636d6712d892606480820193602093909283900390910190829087803b1580156119cc57600080fd5b505af11580156119e0573d6000803e3d6000fd5b505050506040513d60208110156119f657600080fd5b50515b9392505050565b600082821115611a0c57fe5b50900390565b81810182811015611a1f57fe5b92915050565b8051610fd5906001906020840190828054600181600116156101000203166002900490600052602060002090601f016020900481019282601f10611a7457805160ff1916838001178555611aa1565b82800160010185558215611aa1579182015b82811115611aa1578251825591602001919060010190611a86565b50611aad929150611ab1565b5090565b611acb91905b80821115611aad5760008155600101611ab7565b905600596f7520646f206e6f7420686176652074686520636f727265637420726f6c65ddf252ad1be2c89b69c2b068fc378daa952ba7f163c4a11628f55a4df523b3efa165627a7a7230582074e8f4f3933456fa31bd91bfede3b8cabaf741384b279e0be0e0f4eac27807f40029",
  "source": "pragma solidity ^0.4.24;\n\nimport \"@settlemint/solidity-mint/contracts/marketplaces/tokensystem/Token.sol\";\n\n\n/**\n * Contains the DTX token\n */\ncontract DtxToken is Token {\n\n  constructor(\n    bytes32 _name,\n    uint8 _decimals,\n    address _gateKeeper\n  )\n    Token(\n      _name,\n      _decimals,\n      _gateKeeper\n    )\n    public\n  {}\n\n  function getIndexLength() public view returns (uint length) {\n    length = tokenHolders.length;\n  }\n\n  function getByIndex(uint index) public view returns (address key, uint256 balance) {\n    key = tokenHolders[index];\n    balance = balances[tokenHolders[index]].balance;\n  }\n\n  function getByKey(address _key) public view returns (address key, uint256 balance) {\n    key = _key;\n    balance = balances[_key].balance;\n  }\n\n}\n",
  "sourcePath": "/Users/peterjanbrone/databrokerdao/databrokerdao-dapi/contracts/DtxToken/DtxToken.sol",
  "compiler": {
    "name": "solc",
    "version": "0.4.24+commit.e67f0147.Emscripten.clang"
  },
  "schemaVersion": "3.0.0-beta.0",
  "updatedAt": "2018-09-10T13:01:45.716Z"
}