{
  "contractName": "ForeignBridge",
  "abi": [
    {
      "constant": true,
      "inputs": [
        {
          "name": "",
          "type": "address"
        }
      ],
      "name": "tokenMap",
      "outputs": [
        {
          "name": "",
          "type": "address"
        }
      ],
      "payable": false,
      "stateMutability": "view",
      "type": "function",
      "signature": "0x004aca6e"
    },
    {
      "constant": true,
      "inputs": [],
      "name": "validatorCount",
      "outputs": [
        {
          "name": "",
          "type": "uint256"
        }
      ],
      "payable": false,
      "stateMutability": "view",
      "type": "function",
      "signature": "0x0f43a677"
    },
    {
      "constant": true,
      "inputs": [
        {
          "name": "",
          "type": "bytes32"
        }
      ],
      "name": "requestsDone",
      "outputs": [
        {
          "name": "",
          "type": "bool"
        }
      ],
      "payable": false,
      "stateMutability": "view",
      "type": "function",
      "signature": "0x332071b2"
    },
    {
      "constant": false,
      "inputs": [
        {
          "name": "_validator",
          "type": "address"
        }
      ],
      "name": "removeValidator",
      "outputs": [],
      "payable": false,
      "stateMutability": "nonpayable",
      "type": "function",
      "signature": "0x40a141ff"
    },
    {
      "constant": false,
      "inputs": [
        {
          "name": "_validator",
          "type": "address"
        }
      ],
      "name": "addValidator",
      "outputs": [],
      "payable": false,
      "stateMutability": "nonpayable",
      "type": "function",
      "signature": "0x4d238c8e"
    },
    {
      "constant": false,
      "inputs": [],
      "name": "renounceOwnership",
      "outputs": [],
      "payable": false,
      "stateMutability": "nonpayable",
      "type": "function",
      "signature": "0x715018a6"
    },
    {
      "constant": true,
      "inputs": [],
      "name": "owner",
      "outputs": [
        {
          "name": "",
          "type": "address"
        }
      ],
      "payable": false,
      "stateMutability": "view",
      "type": "function",
      "signature": "0x8da5cb5b"
    },
    {
      "constant": true,
      "inputs": [],
      "name": "requiredValidators",
      "outputs": [
        {
          "name": "",
          "type": "uint8"
        }
      ],
      "payable": false,
      "stateMutability": "view",
      "type": "function",
      "signature": "0x97c875dd"
    },
    {
      "constant": true,
      "inputs": [
        {
          "name": "",
          "type": "uint256"
        }
      ],
      "name": "registeredTokens",
      "outputs": [
        {
          "name": "",
          "type": "address"
        }
      ],
      "payable": false,
      "stateMutability": "view",
      "type": "function",
      "signature": "0x9a0ba2ea"
    },
    {
      "constant": true,
      "inputs": [
        {
          "name": "",
          "type": "bytes32"
        }
      ],
      "name": "requests",
      "outputs": [
        {
          "name": "",
          "type": "uint8"
        }
      ],
      "payable": false,
      "stateMutability": "view",
      "type": "function",
      "signature": "0x9d866985"
    },
    {
      "constant": true,
      "inputs": [
        {
          "name": "",
          "type": "bytes32"
        }
      ],
      "name": "signedRequests",
      "outputs": [
        {
          "name": "",
          "type": "bool"
        }
      ],
      "payable": false,
      "stateMutability": "view",
      "type": "function",
      "signature": "0x9dc32d9b"
    },
    {
      "constant": false,
      "inputs": [
        {
          "name": "_requiredValidators",
          "type": "uint8"
        }
      ],
      "name": "setRequiredValidators",
      "outputs": [],
      "payable": false,
      "stateMutability": "nonpayable",
      "type": "function",
      "signature": "0xd2ddc509"
    },
    {
      "constant": false,
      "inputs": [
        {
          "name": "_newOwner",
          "type": "address"
        }
      ],
      "name": "transferOwnership",
      "outputs": [],
      "payable": false,
      "stateMutability": "nonpayable",
      "type": "function",
      "signature": "0xf2fde38b"
    },
    {
      "constant": true,
      "inputs": [
        {
          "name": "",
          "type": "address"
        }
      ],
      "name": "validators",
      "outputs": [
        {
          "name": "",
          "type": "bool"
        }
      ],
      "payable": false,
      "stateMutability": "view",
      "type": "function",
      "signature": "0xfa52c7d8"
    },
    {
      "constant": true,
      "inputs": [
        {
          "name": "_validator",
          "type": "address"
        }
      ],
      "name": "isValidator",
      "outputs": [
        {
          "name": "",
          "type": "bool"
        }
      ],
      "payable": false,
      "stateMutability": "view",
      "type": "function",
      "signature": "0xfacd743b"
    },
    {
      "inputs": [
        {
          "name": "_requiredValidators",
          "type": "uint8"
        },
        {
          "name": "_initialValidators",
          "type": "address[]"
        }
      ],
      "payable": false,
      "stateMutability": "nonpayable",
      "type": "constructor",
      "signature": "constructor"
    },
    {
      "anonymous": false,
      "inputs": [
        {
          "indexed": false,
          "name": "_mainToken",
          "type": "address"
        },
        {
          "indexed": false,
          "name": "_sideToken",
          "type": "address"
        }
      ],
      "name": "TokenAdded",
      "type": "event",
      "signature": "0xdffbd9ded1c09446f09377de547142dcce7dc541c8b0b028142b1eba7026b9e7"
    },
    {
      "anonymous": false,
      "inputs": [
        {
          "indexed": false,
          "name": "_mintRequestsHash",
          "type": "bytes32"
        },
        {
          "indexed": true,
          "name": "_transactionHash",
          "type": "bytes32"
        },
        {
          "indexed": false,
          "name": "_mainToken",
          "type": "address"
        },
        {
          "indexed": false,
          "name": "_recipient",
          "type": "address"
        },
        {
          "indexed": false,
          "name": "_amount",
          "type": "uint256"
        },
        {
          "indexed": false,
          "name": "_requiredSignatures",
          "type": "uint8"
        },
        {
          "indexed": false,
          "name": "_signatureCount",
          "type": "uint8"
        },
        {
          "indexed": false,
          "name": "_signRequestHash",
          "type": "bytes32"
        }
      ],
      "name": "MintRequestSigned",
      "type": "event",
      "signature": "0xee1beca1bb3e8214fb36c0fbf3158f614f4cd6c0ae3ccc2c2677ad6ea3af5651"
    },
    {
      "anonymous": false,
      "inputs": [
        {
          "indexed": false,
          "name": "_mintRequestsHash",
          "type": "bytes32"
        },
        {
          "indexed": true,
          "name": "_transactionHash",
          "type": "bytes32"
        },
        {
          "indexed": false,
          "name": "_mainToken",
          "type": "address"
        },
        {
          "indexed": false,
          "name": "_recipient",
          "type": "address"
        },
        {
          "indexed": false,
          "name": "_amount",
          "type": "uint256"
        }
      ],
      "name": "MintRequestExecuted",
      "type": "event",
      "signature": "0x2044011f3778ccb7a2f0837530cd9496e82534210c4514636389063db341931a"
    },
    {
      "anonymous": false,
      "inputs": [
        {
          "indexed": false,
          "name": "_withdrawRequestsHash",
          "type": "bytes32"
        },
        {
          "indexed": false,
          "name": "_transactionHash",
          "type": "bytes32"
        },
        {
          "indexed": false,
          "name": "_mainToken",
          "type": "address"
        },
        {
          "indexed": false,
          "name": "_recipient",
          "type": "address"
        },
        {
          "indexed": false,
          "name": "_amount",
          "type": "uint256"
        },
        {
          "indexed": false,
          "name": "_withdrawBlock",
          "type": "uint256"
        },
        {
          "indexed": false,
          "name": "_signer",
          "type": "address"
        },
        {
          "indexed": false,
          "name": "_v",
          "type": "uint8"
        },
        {
          "indexed": false,
          "name": "_r",
          "type": "bytes32"
        },
        {
          "indexed": false,
          "name": "_s",
          "type": "bytes32"
        }
      ],
      "name": "WithdrawRequestSigned",
      "type": "event",
      "signature": "0xb82025481ac2a3b54e840dee094ec9cc1ca34cfad2ed18439daaab27cac4223c"
    },
    {
      "anonymous": false,
      "inputs": [
        {
          "indexed": false,
          "name": "_withdrawRequestsHash",
          "type": "bytes32"
        },
        {
          "indexed": false,
          "name": "_transactionHash",
          "type": "bytes32"
        },
        {
          "indexed": false,
          "name": "_mainToken",
          "type": "address"
        },
        {
          "indexed": false,
          "name": "_recipient",
          "type": "address"
        },
        {
          "indexed": false,
          "name": "_amount",
          "type": "uint256"
        },
        {
          "indexed": false,
          "name": "_withdrawBlock",
          "type": "uint256"
        }
      ],
      "name": "WithdrawRequestGranted",
      "type": "event",
      "signature": "0x0b71218d879929fc299f0f1207178cc1ef7b63249e1ae1bfb4a3e79cc3f2b9e1"
    },
    {
      "anonymous": false,
      "inputs": [
        {
          "indexed": false,
          "name": "validator",
          "type": "address"
        }
      ],
      "name": "ValidatorAdded",
      "type": "event",
      "signature": "0xe366c1c0452ed8eec96861e9e54141ebff23c9ec89fe27b996b45f5ec3884987"
    },
    {
      "anonymous": false,
      "inputs": [
        {
          "indexed": false,
          "name": "validator",
          "type": "address"
        }
      ],
      "name": "ValidatorRemoved",
      "type": "event",
      "signature": "0xe1434e25d6611e0db941968fdc97811c982ac1602e951637d206f5fdda9dd8f1"
    },
    {
      "anonymous": false,
      "inputs": [
        {
          "indexed": true,
          "name": "previousOwner",
          "type": "address"
        }
      ],
      "name": "OwnershipRenounced",
      "type": "event",
      "signature": "0xf8df31144d9c2f0f6b59d69b8b98abd5459d07f2742c4df920b25aae33c64820"
    },
    {
      "anonymous": false,
      "inputs": [
        {
          "indexed": true,
          "name": "previousOwner",
          "type": "address"
        },
        {
          "indexed": true,
          "name": "newOwner",
          "type": "address"
        }
      ],
      "name": "OwnershipTransferred",
      "type": "event",
      "signature": "0x8be0079c531659141344cd1fd0a4f28419497f9722a3daafe3b4186f6b6457e0"
    },
    {
      "constant": false,
      "inputs": [
        {
          "name": "_mainToken",
          "type": "address"
        },
        {
          "name": "_foreignToken",
          "type": "address"
        }
      ],
      "name": "registerToken",
      "outputs": [],
      "payable": false,
      "stateMutability": "nonpayable",
      "type": "function",
      "signature": "0x4739f7e5"
    },
    {
      "constant": true,
      "inputs": [],
      "name": "tokens",
      "outputs": [
        {
          "name": "",
          "type": "address[]"
        }
      ],
      "payable": false,
      "stateMutability": "view",
      "type": "function",
      "signature": "0x9d63848a"
    },
    {
      "constant": false,
      "inputs": [
        {
          "name": "_transactionHash",
          "type": "bytes32"
        },
        {
          "name": "_mainToken",
          "type": "address"
        },
        {
          "name": "_recipient",
          "type": "address"
        },
        {
          "name": "_amount",
          "type": "uint256"
        },
        {
          "name": "_v",
          "type": "uint8"
        },
        {
          "name": "_r",
          "type": "bytes32"
        },
        {
          "name": "_s",
          "type": "bytes32"
        }
      ],
      "name": "signMintRequest",
      "outputs": [],
      "payable": false,
      "stateMutability": "nonpayable",
      "type": "function",
      "signature": "0x6b40d32c"
    },
    {
      "constant": false,
      "inputs": [
        {
          "name": "_transactionHash",
          "type": "bytes32"
        },
        {
          "name": "_mainToken",
          "type": "address"
        },
        {
          "name": "_recipient",
          "type": "address"
        },
        {
          "name": "_amount",
          "type": "uint256"
        },
        {
          "name": "_withdrawBlock",
          "type": "uint256"
        },
        {
          "name": "_v",
          "type": "uint8"
        },
        {
          "name": "_r",
          "type": "bytes32"
        },
        {
          "name": "_s",
          "type": "bytes32"
        }
      ],
      "name": "signWithdrawRequest",
      "outputs": [],
      "payable": false,
      "stateMutability": "nonpayable",
      "type": "function",
      "signature": "0xa2d8b3d9"
    }
  ],
  "bytecode": "0x60806040526000805460a060020a60ff02191681556001553480156200002457600080fd5b5060405162001e8c38038062001e8c833981016040528051602082015160008054600160a060020a03191633178155919201908290829060ff83161515620000cd57604080517f08c379a000000000000000000000000000000000000000000000000000000000815260206004820152601f60248201527f5f726571756972656456616c696461746f72732063616e6e6f74206265203000604482015290519081900360640190fd5b815160ff841611156200018d57604080517f08c379a000000000000000000000000000000000000000000000000000000000815260206004820152604e60248201527f596f75206e656564206174206c6561737420616e20657175616c20616d6f756e60448201527f74206f66205f696e697469616c56616c696461746f7273206173205f7265717560648201527f6972656456616c696461746f7273000000000000000000000000000000000000608482015290519081900360a40190fd5b5060005b8151811015620002cd57620001cd8282815181101515620001ae57fe5b90602001906020020151620002f0640100000000026401000000009004565b158015620001fe57508151600090839083908110620001e857fe5b90602001906020020151600160a060020a031614155b15156200029257604080517f08c379a000000000000000000000000000000000000000000000000000000000815260206004820152602560248201527f4e6f206475706c69636174652076616c696461746f7273206f7220656d70747960448201527f206f6e6573000000000000000000000000000000000000000000000000000000606482015290519081900360840190fd5b620002c48282815181101515620002a557fe5b9060200190602002015162000313640100000000026401000000009004565b60010162000191565b620002e183640100000000620003b8810204565b505160015550620004c5915050565b600160a060020a031660009081526002602052604090205460ff16151560011490565b600054600160a060020a031633146200032b57600080fd5b600160a060020a03811660009081526002602052604090205460ff161515600114156200035457fe5b600160a060020a038116600081815260026020908152604091829020805460ff19166001908117909155805481019055815192835290517fe366c1c0452ed8eec96861e9e54141ebff23c9ec89fe27b996b45f5ec38849879281900390910190a150565b600054600160a060020a03163314620003d057600080fd5b60015460ff821611156200049157604080517f08c379a000000000000000000000000000000000000000000000000000000000815260206004820152604d60248201527f796f752063616e6e6f7420696e6372656173652074686520726571756972656460448201527f20616d6f756e74206f662076616c696461746f72732061626f7665207468652060648201527f6578697369746e67206c69737400000000000000000000000000000000000000608482015290519081900360a40190fd5b6000805460ff909216740100000000000000000000000000000000000000000260a060020a60ff0219909216919091179055565b6119b780620004d56000396000f3006080604052600436106101055763ffffffff7c01000000000000000000000000000000000000000000000000000000006000350416624aca6e811461010a5780630f43a67714610147578063332071b21461016e57806340a141ff1461019a5780634739f7e5146101bd5780634d238c8e146101e45780636b40d32c14610205578063715018a61461023e5780638da5cb5b1461025357806397c875dd146102685780639a0ba2ea146102935780639d63848a146102ab5780639d866985146103105780639dc32d9b14610328578063a2d8b3d914610340578063d2ddc5091461037c578063f2fde38b14610397578063fa52c7d8146103b8578063facd743b146103d9575b600080fd5b34801561011657600080fd5b5061012b600160a060020a03600435166103fa565b60408051600160a060020a039092168252519081900360200190f35b34801561015357600080fd5b5061015c610415565b60408051918252519081900360200190f35b34801561017a57600080fd5b5061018660043561041b565b604080519115158252519081900360200190f35b3480156101a657600080fd5b506101bb600160a060020a0360043516610430565b005b3480156101c957600080fd5b506101bb600160a060020a0360043581169060243516610535565b3480156101f057600080fd5b506101bb600160a060020a036004351661080a565b34801561021157600080fd5b506101bb600435600160a060020a036024358116906044351660643560ff6084351660a43560c4356108ad565b34801561024a57600080fd5b506101bb610f87565b34801561025f57600080fd5b5061012b610ff3565b34801561027457600080fd5b5061027d611002565b6040805160ff9092168252519081900360200190f35b34801561029f57600080fd5b5061012b600435611012565b3480156102b757600080fd5b506102c061103a565b60408051602080825283518183015283519192839290830191858101910280838360005b838110156102fc5781810151838201526020016102e4565b505050509050019250505060405180910390f35b34801561031c57600080fd5b5061027d60043561109c565b34801561033457600080fd5b506101866004356110b1565b34801561034c57600080fd5b506101bb600435600160a060020a036024358116906044351660643560843560ff60a4351660c43560e4356110c6565b34801561038857600080fd5b506101bb60ff600435166117c2565b3480156103a357600080fd5b506101bb600160a060020a03600435166118b3565b3480156103c457600080fd5b50610186600160a060020a03600435166118d6565b3480156103e557600080fd5b50610186600160a060020a03600435166118eb565b600760205260009081526040902054600160a060020a031681565b60015481565b60046020526000908152604090205460ff1681565b600054600160a060020a0316331461044757600080fd5b60005460015460a060020a90910460ff16106104d3576040805160e560020a62461bcd02815260206004820152603660248201527f796f752063616e6e6f742072656d6f76652076616c696461746f72732062656c60448201527f6f7720746865207265717569726564206e756d62657200000000000000000000606482015290519081900360840190fd5b600160a060020a038116600081815260026020908152604091829020805460ff1916905560018054600019019055815192835290517fe1434e25d6611e0db941968fdc97811c982ac1602e951637d206f5fdda9dd8f19281900390910190a150565b60008054600160a060020a0316331461054d57600080fd5b600160a060020a0380841660009081526007602052604090205416156105e3576040805160e560020a62461bcd02815260206004820152602b60248201527f746865206d61696e20746f6b656e2073686f756c64206e6f742062652072656760448201527f6973746572656420796574000000000000000000000000000000000000000000606482015290519081900360840190fd5b600160a060020a0383161515610643576040805160e560020a62461bcd02815260206004820152601e60248201527f746865206d61696e20746f6b656e2073686f756c64206e6f7420626520300000604482015290519081900360640190fd5b600160a060020a03821615156106c9576040805160e560020a62461bcd02815260206004820152602160248201527f74686520666f726569676e20746f6b656e2073686f756c64206e6f742062652060448201527f3000000000000000000000000000000000000000000000000000000000000000606482015290519081900360840190fd5b5080600160a060020a0381161515610751576040805160e560020a62461bcd02815260206004820152602160248201527f74686520666f726569676e20746f6b656e2073686f756c64206e6f742062652060448201527f3000000000000000000000000000000000000000000000000000000000000000606482015290519081900360840190fd5b600160a060020a038084166000818152600760209081526040808320805486881673ffffffffffffffffffffffffffffffffffffffff19918216179091556008805460018101825594527ff3f7a9fe364faab93b216da50a3214154f22a0a2b415b23a84c8169e8b636ee39093018054909316841790925581519283529285169282019290925281517fdffbd9ded1c09446f09377de547142dcce7dc541c8b0b028142b1eba7026b9e7929181900390910190a1505050565b600054600160a060020a0316331461082157600080fd5b600160a060020a03811660009081526002602052604090205460ff1615156001141561084957fe5b600160a060020a038116600081815260026020908152604091829020805460ff19166001908117909155805481019055815192835290517fe366c1c0452ed8eec96861e9e54141ebff23c9ec89fe27b996b45f5ec38849879281900390910190a150565b6000808080871161092e576040805160e560020a62461bcd02815260206004820152602560248201527f74686520616d6f756e74206e6565647320746f2062652067726561746572207460448201527f68616e2030000000000000000000000000000000000000000000000000000000606482015290519081900360840190fd5b600160a060020a03808a166000908152600760205260409020541615156109c5576040805160e560020a62461bcd02815260206004820152602660248201527f74686520746f6b656e2073686f756c642062652072656769737465726564206160448201527f6c72656164790000000000000000000000000000000000000000000000000000606482015290519081900360840190fd5b6040805160208082018d90526c01000000000000000000000000600160a060020a03808e168202848601528c1602605483015260688083018b9052835180840390910181526088909201928390528151600293918291908401908083835b60208310610a425780518252601f199092019160209182019101610a23565b51815160209384036101000a600019018019909216911617905260405191909301945091925050808303816000865af1158015610a83573d6000803e3d6000fd5b5050506040513d6020811015610a9857600080fd5b505160008181526004602052604090205490935060ff16151560011415610b2f576040805160e560020a62461bcd02815260206004820152602660248201527f7468697320726571756573742073686f756c64206e6f742062652068616e646c60448201527f6564207965740000000000000000000000000000000000000000000000000000606482015290519081900360840190fd5b604080516000808252602080830180855287905260ff8a16838501526060830189905260808301889052925160019360a0808501949193601f19840193928390039091019190865af1158015610b89573d6000803e3d6000fd5b505050602060405103519150610b9e826118eb565b1515610c1a576040805160e560020a62461bcd02815260206004820152602c60248201527f7468652076616c696461746f722073686f756c642061637475616c6c7920626560448201527f20612076616c696461746f720000000000000000000000000000000000000000606482015290519081900360840190fd5b6040805160208082018690526c01000000000000000000000000600160a060020a0386160282840152825160348184030181526054909201928390528151600293918291908401908083835b60208310610c855780518252601f199092019160209182019101610c66565b51815160209384036101000a600019018019909216911617905260405191909301945091925050808303816000865af1158015610cc6573d6000803e3d6000fd5b5050506040513d6020811015610cdb57600080fd5b505160008181526005602052604090205490915060ff16151560011415610d71576040805160e560020a62461bcd028152602060048201526024808201527f74686520726571756573742073686f756c64206e6f74206265207369676e656460448201527f2079657400000000000000000000000000000000000000000000000000000000606482015290519081900360840190fd5b6000818152600560209081526040808320805460ff1990811660019081179092558785526003909352908320805460ff818116909301831693169290921791829055915460a060020a9004821691161015610e54576000805484825260036020908152604092839020548351878152600160a060020a03808f1693820193909352918c1682850152606082018b905260ff60a060020a9093048316608083015290911660a082015260c0810183905290518b917fee1beca1bb3e8214fb36c0fbf3158f614f4cd6c0ae3ccc2c2677ad6ea3af5651919081900360e00190a2610f7b565b6000838152600460208181526040808420805460ff19166001179055600160a060020a03808e168552600783528185205482517f40c10f190000000000000000000000000000000000000000000000000000000081528e831695810195909552602485018d905291519116936340c10f19936044808201949392918390030190829087803b158015610ee557600080fd5b505af1158015610ef9573d6000803e3d6000fd5b505050506040513d6020811015610f0f57600080fd5b5050600160a060020a03808a1660009081526007602090815260409182902054825187815290841691810191909152918a168282015260608201899052518b917f2044011f3778ccb7a2f0837530cd9496e82534210c4514636389063db341931a919081900360800190a25b50505050505050505050565b600054600160a060020a03163314610f9e57600080fd5b60008054604051600160a060020a03909116917ff8df31144d9c2f0f6b59d69b8b98abd5459d07f2742c4df920b25aae33c6482091a26000805473ffffffffffffffffffffffffffffffffffffffff19169055565b600054600160a060020a031681565b60005460a060020a900460ff1681565b600880548290811061102057fe5b600091825260209091200154600160a060020a0316905081565b6060600880548060200260200160405190810160405280929190818152602001828054801561109257602002820191906000526020600020905b8154600160a060020a03168152600190910190602001808311611074575b5050505050905090565b60036020526000908152604090205460ff1681565b60056020526000908152604090205460ff1681565b60008080808811611147576040805160e560020a62461bcd02815260206004820152602360248201527f74686520616d6f756e742073686f756c6420626520677265617465722074686160448201527f6e20300000000000000000000000000000000000000000000000000000000000606482015290519081900360840190fd5b600160a060020a03808b166000908152600760205260409020541615156111de576040805160e560020a62461bcd02815260206004820152602c60248201527f746865206d61696e20746f6b656e2073686f756c64206265207265676973746560448201527f64206265666f726568616e640000000000000000000000000000000000000000606482015290519081900360840190fd5b60028a8a8a8a6040516020018085600160a060020a0316600160a060020a03166c0100000000000000000000000002815260140184600160a060020a0316600160a060020a03166c010000000000000000000000000281526014018381526020018281526020019450505050506040516020818303038152906040526040518082805190602001908083835b602083106112895780518252601f19909201916020918201910161126a565b51815160209384036101000a600019018019909216911617905260405191909301945091925050808303816000865af11580156112ca573d6000803e3d6000fd5b5050506040513d60208110156112df57600080fd5b505160008181526004602052604090205490935060ff16151560011415611376576040805160e560020a62461bcd02815260206004820152602760248201527f74686520726571756573742073686f756c64206e6f742062652070726f63657360448201527f7365642079657400000000000000000000000000000000000000000000000000606482015290519081900360840190fd5b604080516000808252602080830180855287905260ff8a16838501526060830189905260808301889052925160019360a0808501949193601f19840193928390039091019190865af11580156113d0573d6000803e3d6000fd5b5050506020604051035191506113e5826118eb565b1515611461576040805160e560020a62461bcd02815260206004820152602c60248201527f7468652076616c696461746f722073686f756c642061637475616c6c7920626560448201527f20612076616c696461746f720000000000000000000000000000000000000000606482015290519081900360840190fd5b6040805160208082018690526c01000000000000000000000000600160a060020a0386160282840152825160348184030181526054909201928390528151600293918291908401908083835b602083106114cc5780518252601f1990920191602091820191016114ad565b51815160209384036101000a600019018019909216911617905260405191909301945091925050808303816000865af115801561150d573d6000803e3d6000fd5b5050506040513d602081101561152257600080fd5b505160008181526005602052604090205490915060ff161515600114156115b9576040805160e560020a62461bcd02815260206004820152602860248201527f746865207472616e73616374696f6e2073686f756c64206e6f7420626520736960448201527f676e656420796574000000000000000000000000000000000000000000000000606482015290519081900360840190fd5b6000818152600560209081526040808320805460ff1990811660019081179092558785526003845293829020805460ff818116909301831695169490941790935580518681529182018e9052600160a060020a03808e1683830152808d166060840152608083018c905260a083018b9052851660c083015291881660e08201526101008101879052610120810186905290517fb82025481ac2a3b54e840dee094ec9cc1ca34cfad2ed18439daaab27cac4223c918190036101400190a160008054848252600360205260409091205460ff60a060020a90920482169116106117b5576000838152600460208181526040808420805460ff19166001179055600160a060020a03808f168552600783528185205482517f9dc29fac0000000000000000000000000000000000000000000000000000000081523095810195909552602485018e90529151911693639dc29fac936044808201949392918390030190829087803b15801561172a57600080fd5b505af115801561173e573d6000803e3d6000fd5b505050506040513d602081101561175457600080fd5b505060408051848152602081018d9052600160a060020a03808d16828401528b166060820152608081018a905260a0810189905290517f0b71218d879929fc299f0f1207178cc1ef7b63249e1ae1bfb4a3e79cc3f2b9e19181900360c00190a15b5050505050505050505050565b600054600160a060020a031633146117d957600080fd5b60015460ff82161115611882576040805160e560020a62461bcd02815260206004820152604d60248201527f796f752063616e6e6f7420696e6372656173652074686520726571756972656460448201527f20616d6f756e74206f662076616c696461746f72732061626f7665207468652060648201527f6578697369746e67206c69737400000000000000000000000000000000000000608482015290519081900360a40190fd5b6000805460ff90921660a060020a0274ff000000000000000000000000000000000000000019909216919091179055565b600054600160a060020a031633146118ca57600080fd5b6118d38161190e565b50565b60066020526000908152604090205460ff1681565b600160a060020a031660009081526002602052604090205460ff16151560011490565b600160a060020a038116151561192357600080fd5b60008054604051600160a060020a03808516939216917f8be0079c531659141344cd1fd0a4f28419497f9722a3daafe3b4186f6b6457e091a36000805473ffffffffffffffffffffffffffffffffffffffff1916600160a060020a03929092169190911790555600a165627a7a72305820f85d9d585a44e420dddcad9e1a94dc3d3d343e34cb013b3dd3ce99631f3950930029",
  "source": "pragma solidity ^0.4.24;\n\nimport \"openzeppelin-solidity/contracts/ownership/Ownable.sol\";\nimport \"../token/LocalDTXToken.sol\";\nimport \"./Validatable.sol\";\n\n\ncontract ForeignBridge is Ownable, Validatable {\n\n  mapping(bytes32=>uint8) public requests;\n  mapping(bytes32=>bool) public requestsDone;\n  mapping(bytes32=>bool) public signedRequests;\n\n  mapping(address=>bool) public validators;\n\n  // maps home token addresses -> foreign token addresses\n  mapping(address=>address) public tokenMap;\n  address[] public registeredTokens;\n\n  event TokenAdded(\n    address _mainToken,\n    address _sideToken\n  );\n  event MintRequestSigned(\n    bytes32 _mintRequestsHash,\n    bytes32 indexed _transactionHash,\n    address _mainToken,\n    address _recipient,\n    uint256 _amount,\n    uint8 _requiredSignatures,\n    uint8 _signatureCount,\n    bytes32 _signRequestHash\n  );\n  event MintRequestExecuted(\n    bytes32 _mintRequestsHash,\n    bytes32 indexed _transactionHash,\n    address _mainToken,\n    address _recipient,\n    uint256 _amount\n  );\n  event WithdrawRequestSigned(\n    bytes32 _withdrawRequestsHash,\n    bytes32 _transactionHash,\n    address _mainToken,\n    address _recipient,\n    uint256 _amount,\n    uint256 _withdrawBlock,\n    address _signer,\n    uint8 _v,\n    bytes32 _r,\n    bytes32 _s\n  );\n  event WithdrawRequestGranted(\n    bytes32 _withdrawRequestsHash,\n    bytes32 _transactionHash,\n    address _mainToken,\n    address _recipient,\n    uint256 _amount,\n    uint256 _withdrawBlock\n  );\n\n  constructor(\n    uint8 _requiredValidators,\n    address[] _initialValidators\n  ) public Validatable(_requiredValidators,_initialValidators)\n  {\n  }\n\n  // Register ERC20 token on the home net and its counterpart token on the foreign net.\n  function registerToken(address _mainToken, address _foreignToken) public onlyOwner {\n    require(tokenMap[_mainToken] == 0, \"the main token should not be registered yet\");\n\n    require(_mainToken != 0x0, \"the main token should not be 0\");\n    require(_foreignToken != 0x0, \"the foreign token should not be 0\");\n\n    LocalDTXToken t = LocalDTXToken(_foreignToken);\n\n    require(address(t) != 0x0, \"the foreign token should not be 0\");\n\n    tokenMap[_mainToken] = t;\n    registeredTokens.push(_mainToken);\n    emit TokenAdded(_mainToken, _foreignToken);\n  }\n\n  function tokens() public view returns(address[]) {\n    return registeredTokens;\n  }\n\n  function signMintRequest(\n    bytes32 _transactionHash,\n    address _mainToken,\n    address _recipient,\n    uint256 _amount,\n    uint8 _v,\n    bytes32 _r,\n    bytes32 _s\n  ) public\n  {\n    require(_amount > 0, \"the amount needs to be greater than 0\");\n\n    // Token should be registered\n    require(tokenMap[_mainToken] != 0x0, \"the token should be registered already\");\n\n    // Unique hash for this request\n    bytes32 reqHash = sha256(\n      abi.encodePacked(\n        _transactionHash,\n        _mainToken,\n        _recipient,\n        _amount\n      )\n    );\n\n    // Request shouldnt be done\n    require(requestsDone[reqHash] != true, \"this request should not be handled yet\");\n\n    address validator = ecrecover(\n      reqHash,\n      _v,\n      _r,\n      _s\n    );\n    require(isValidator(validator), \"the validator should actually be a validator\");\n\n    // Request shouldnt already be signed by validator\n    bytes32 signRequestHash = sha256(\n      abi.encodePacked(\n        reqHash,\n        validator\n      )\n    );\n    require(signedRequests[signRequestHash] != true, \"the request should not be signed yet\");\n    signedRequests[signRequestHash] = true;\n\n    requests[reqHash]++;\n    if (requests[reqHash] < requiredValidators) {\n      emit MintRequestSigned(\n        reqHash,\n        _transactionHash,\n        _mainToken,\n        _recipient,\n        _amount,\n        requiredValidators,\n        requests[reqHash],\n        signRequestHash\n      );\n    } else {\n      requestsDone[reqHash] = true;\n      LocalDTXToken(tokenMap[_mainToken]).mint(_recipient,_amount);\n      emit MintRequestExecuted(\n        reqHash,\n        _transactionHash,\n        tokenMap[_mainToken],\n        _recipient,\n        _amount\n      );\n    }\n  }\n\n  function signWithdrawRequest(\n    bytes32 _transactionHash,\n    address _mainToken,\n    address _recipient,\n    uint256 _amount,\n    uint256 _withdrawBlock,\n    uint8 _v,\n    bytes32 _r,\n    bytes32 _s) public\n    {\n    require(_amount > 0, \"the amount should be greater than 0\");\n\n    // Token should be registered\n    require(tokenMap[_mainToken] != 0x0, \"the main token should be registed beforehand\");\n\n    // Unique hash for this request\n    bytes32 reqHash = sha256(\n      abi.encodePacked(\n        _mainToken,\n        _recipient,\n        _amount,\n        _withdrawBlock\n      )\n    );\n\n    // Request shouldnt be done\n    require(requestsDone[reqHash] != true, \"the request should not be processed yet\");\n\n    address validator = ecrecover(\n      reqHash,\n      _v,\n      _r,\n      _s\n    );\n    require(isValidator(validator), \"the validator should actually be a validator\");\n\n    // Request shouldnt already be signed by validator\n    bytes32 signRequestHash = sha256(\n      abi.encodePacked(\n        reqHash,\n        validator\n      )\n    );\n    require(signedRequests[signRequestHash] != true, \"the transaction should not be signed yet\");\n    signedRequests[signRequestHash] = true;\n\n    requests[reqHash]++;\n\n    emit WithdrawRequestSigned(\n      reqHash,\n      _transactionHash,\n      _mainToken,\n      _recipient,\n      _amount,\n      _withdrawBlock,\n      validator,\n      _v,\n      _r,\n      _s\n    );\n\n    if (requests[reqHash] >= requiredValidators) {\n      requestsDone[reqHash] = true;\n\n      // Burn the tokens we received\n      LocalDTXToken(tokenMap[_mainToken]).burn(address(this), _amount);\n\n      emit WithdrawRequestGranted(\n        reqHash,\n        _transactionHash,\n        _mainToken,\n        _recipient,\n        _amount,\n        _withdrawBlock\n      );\n    }\n  }\n\n\n\n}\n\n",
  "sourcePath": "/Users/peterjanbrone/databrokerdao/databrokerdao-dapi/contracts/bridge/ForeignBridge.sol",
  "compiler": {
    "name": "solc",
    "version": "0.4.24+commit.e67f0147.Emscripten.clang"
  },
  "schemaVersion": "3.0.0-beta.0",
  "updatedAt": "2018-09-20T11:29:55.897Z"
}