{
  "contractName": "GateKeeper",
  "abi": [
    {
      "constant": true,
      "inputs": [],
      "name": "CREATE_PERMISSIONS_ROLE",
      "outputs": [
        {
          "name": "",
          "type": "bytes32"
        }
      ],
      "payable": false,
      "stateMutability": "view",
      "type": "function",
      "signature": "0x3d6ab68f"
    },
    {
      "constant": true,
      "inputs": [],
      "name": "ADD_ROLEREGISTRY_ROLE",
      "outputs": [
        {
          "name": "",
          "type": "bytes32"
        }
      ],
      "payable": false,
      "stateMutability": "view",
      "type": "function",
      "signature": "0xd658ecba"
    },
    {
      "inputs": [],
      "payable": false,
      "stateMutability": "nonpayable",
      "type": "constructor",
      "signature": "constructor"
    },
    {
      "anonymous": false,
      "inputs": [
        {
          "indexed": true,
          "name": "entity",
          "type": "address"
        },
        {
          "indexed": true,
          "name": "contractAddress",
          "type": "address"
        },
        {
          "indexed": true,
          "name": "role",
          "type": "bytes32"
        },
        {
          "indexed": false,
          "name": "allowed",
          "type": "bool"
        }
      ],
      "name": "SetPermission",
      "type": "event",
      "signature": "0x759b9a74d5354b5801710a0c1b283cc9f0d32b607ac8ced10c83ac8e75c77d52"
    },
    {
      "anonymous": false,
      "inputs": [
        {
          "indexed": true,
          "name": "contractAddress",
          "type": "address"
        },
        {
          "indexed": true,
          "name": "role",
          "type": "bytes32"
        },
        {
          "indexed": true,
          "name": "manager",
          "type": "address"
        }
      ],
      "name": "ChangePermissionManager",
      "type": "event",
      "signature": "0xf3addc8b8e25ee11528a61b0e65092cae0666ef0ec0c64cb303993c88d689b4d"
    },
    {
      "constant": false,
      "inputs": [
        {
          "name": "roleRegisty",
          "type": "address"
        }
      ],
      "name": "addRoleRegistry",
      "outputs": [],
      "payable": false,
      "stateMutability": "nonpayable",
      "type": "function",
      "signature": "0x44be8765"
    },
    {
      "constant": false,
      "inputs": [
        {
          "name": "_entity",
          "type": "address"
        },
        {
          "name": "_contract",
          "type": "address"
        },
        {
          "name": "_role",
          "type": "bytes32"
        },
        {
          "name": "_manager",
          "type": "address"
        }
      ],
      "name": "createPermission",
      "outputs": [],
      "payable": false,
      "stateMutability": "nonpayable",
      "type": "function",
      "signature": "0xbe038478"
    },
    {
      "constant": false,
      "inputs": [
        {
          "name": "_entity",
          "type": "address"
        },
        {
          "name": "_contract",
          "type": "address"
        },
        {
          "name": "_role",
          "type": "bytes32"
        }
      ],
      "name": "grantPermission",
      "outputs": [],
      "payable": false,
      "stateMutability": "nonpayable",
      "type": "function",
      "signature": "0x0a8ed3db"
    },
    {
      "constant": false,
      "inputs": [
        {
          "name": "_entity",
          "type": "address"
        },
        {
          "name": "_contract",
          "type": "address"
        },
        {
          "name": "_role",
          "type": "bytes32"
        }
      ],
      "name": "revokePermission",
      "outputs": [],
      "payable": false,
      "stateMutability": "nonpayable",
      "type": "function",
      "signature": "0x9d0effdb"
    },
    {
      "constant": false,
      "inputs": [
        {
          "name": "_newManager",
          "type": "address"
        },
        {
          "name": "_contract",
          "type": "address"
        },
        {
          "name": "_role",
          "type": "bytes32"
        }
      ],
      "name": "setPermissionManager",
      "outputs": [],
      "payable": false,
      "stateMutability": "nonpayable",
      "type": "function",
      "signature": "0xafd925df"
    },
    {
      "constant": true,
      "inputs": [
        {
          "name": "_contract",
          "type": "address"
        },
        {
          "name": "_role",
          "type": "bytes32"
        }
      ],
      "name": "getPermissionManager",
      "outputs": [
        {
          "name": "",
          "type": "address"
        }
      ],
      "payable": false,
      "stateMutability": "view",
      "type": "function",
      "signature": "0xb1905727"
    },
    {
      "constant": true,
      "inputs": [
        {
          "name": "_entity",
          "type": "address"
        },
        {
          "name": "_contract",
          "type": "address"
        },
        {
          "name": "_role",
          "type": "bytes32"
        }
      ],
      "name": "hasPermission",
      "outputs": [
        {
          "name": "",
          "type": "bool"
        }
      ],
      "payable": false,
      "stateMutability": "view",
      "type": "function",
      "signature": "0x6d6712d8"
    }
  ],
  "bytecode": "0x608060405234801561001057600080fd5b5061004633307f4352454154455f5045524d495353494f4e535f524f4c4500000000000000000082640100000000610080810204565b61007b33307f4144445f524f4c4552454749535452595f524f4c45000000000000000000000082640100000000610080810204565b610308565b600160a060020a038084166000908152600160209081526040808320868452909152902054161561015e57604080517f08c379a000000000000000000000000000000000000000000000000000000000815260206004820152605260248201527f6f6e6c7920616c6c6f77207065726d697373696f6e206372656174696f6e207760448201527f68656e20697420686173206e6f206d616e6167657220286861736e277420626560648201527f656e2063726561746564206265666f7265290000000000000000000000000000608482015290519081900360a40190fd5b610174848484600164010000000061018e810204565b610188818484640100000000610206810204565b50505050565b600160a060020a03848116600081815260208181526040808320948816808452948252808320878452825291829020805460ff191686151590811790915582519081529151869493927f759b9a74d5354b5801710a0c1b283cc9f0d32b607ac8ced10c83ac8e75c77d5292908290030190a450505050565b6000600160a060020a038416116102a357604080517f08c379a0000000000000000000000000000000000000000000000000000000008152602060048201526024808201527f5f6e65774d616e616765722073686f756c642062652061207265616c2061646460448201527f7265737300000000000000000000000000000000000000000000000000000000606482015290519081900360840190fd5b600160a060020a0382811660008181526001602090815260408083208684529091528082208054600160a060020a0319169488169485179055518492917ff3addc8b8e25ee11528a61b0e65092cae0666ef0ec0c64cb303993c88d689b4d91a4505050565b610a03806103176000396000f3006080604052600436106100985763ffffffff7c01000000000000000000000000000000000000000000000000000000006000350416630a8ed3db811461009d5780633d6ab68f146100c957806344be8765146100f05780636d6712d8146101115780639d0effdb1461014f578063afd925df14610179578063b1905727146101a3578063be038478146101e3578063d658ecba14610214575b600080fd5b3480156100a957600080fd5b506100c7600160a060020a0360043581169060243516604435610229565b005b3480156100d557600080fd5b506100de6102cd565b60408051918252519081900360200190f35b3480156100fc57600080fd5b506100c7600160a060020a03600435166102f1565b34801561011d57600080fd5b5061013b600160a060020a03600435811690602435166044356103f9565b604080519115158252519081900360200190f35b34801561015b57600080fd5b506100c7600160a060020a036004358116906024351660443561054a565b34801561018557600080fd5b506100c7600160a060020a03600435811690602435166044356105e7565b3480156101af57600080fd5b506101c7600160a060020a0360043516602435610682565b60408051600160a060020a039092168252519081900360200190f35b3480156101ef57600080fd5b506100c7600160a060020a0360043581169060243581169060443590606435166106aa565b34801561022057600080fd5b506100de61075e565b81816102358282610682565b600160a060020a031633146102b9576040805160e560020a62461bcd028152602060048201526024808201527f53656e646572206973206e6f7420746865207065726d697373696f6e206d616e60448201527f6167657200000000000000000000000000000000000000000000000000000000606482015290519081900360840190fd5b6102c68585856001610782565b5050505050565b7f4352454154455f5045524d495353494f4e535f524f4c4500000000000000000081565b7f4144445f524f4c4552454749535452595f524f4c45000000000000000000000061031d3330836103f9565b1515610399576040805160e560020a62461bcd02815260206004820152602c60248201527f53656e64657220646f6573206e6f7420686176652074686520636f727265637460448201527f207065726d697373696f6e730000000000000000000000000000000000000000606482015290519081900360840190fd5b50600280546001810182556000919091527f405787fa12a823e0f2b7631cc41b3ba8828b3321ca811111fa75cd3aa3bb5ace01805473ffffffffffffffffffffffffffffffffffffffff1916600160a060020a0392909216919091179055565b600160a060020a03808416600090815260208181526040808320938616835292815282822084835290529081205460ff1681811561043957819250610541565b5060005b60025481101561053c5761047560028281548110151561045957fe5b600091825260209091200154600160a060020a031686866103f9565b1561053457600280548290811061048857fe5b6000918252602080832090910154604080517f7ef09bca000000000000000000000000000000000000000000000000000000008152600160a060020a038b8116600483015291519190921693637ef09bca93602480850194919392918390030190829087803b1580156104fa57600080fd5b505af115801561050e573d6000803e3d6000fd5b505050506040513d602081101561052457600080fd5b5051156105345760019250610541565b60010161043d565b600092505b50509392505050565b81816105568282610682565b600160a060020a031633146105da576040805160e560020a62461bcd028152602060048201526024808201527f53656e646572206973206e6f7420746865207065726d697373696f6e206d616e60448201527f6167657200000000000000000000000000000000000000000000000000000000606482015290519081900360840190fd5b6102c68585856000610782565b81816105f38282610682565b600160a060020a03163314610677576040805160e560020a62461bcd028152602060048201526024808201527f53656e646572206973206e6f7420746865207065726d697373696f6e206d616e60448201527f6167657200000000000000000000000000000000000000000000000000000000606482015290519081900360840190fd5b6102c68585856107fa565b600160a060020a03918216600090815260016020908152604080832093835292905220541690565b7f4352454154455f5045524d495353494f4e535f524f4c450000000000000000006106d63330836103f9565b1515610752576040805160e560020a62461bcd02815260206004820152602c60248201527f53656e64657220646f6573206e6f7420686176652074686520636f727265637460448201527f207065726d697373696f6e730000000000000000000000000000000000000000606482015290519081900360840190fd5b6102c6858585856108f2565b7f4144445f524f4c4552454749535452595f524f4c45000000000000000000000081565b600160a060020a03848116600081815260208181526040808320948816808452948252808320878452825291829020805460ff191686151590811790915582519081529151869493927f759b9a74d5354b5801710a0c1b283cc9f0d32b607ac8ced10c83ac8e75c77d5292908290030190a450505050565b6000600160a060020a03841611610880576040805160e560020a62461bcd028152602060048201526024808201527f5f6e65774d616e616765722073686f756c642062652061207265616c2061646460448201527f7265737300000000000000000000000000000000000000000000000000000000606482015290519081900360840190fd5b600160a060020a038281166000818152600160209081526040808320868452909152808220805473ffffffffffffffffffffffffffffffffffffffff19169488169485179055518492917ff3addc8b8e25ee11528a61b0e65092cae0666ef0ec0c64cb303993c88d689b4d91a4505050565b600160a060020a03808416600090815260016020908152604080832086845290915290205416156109b9576040805160e560020a62461bcd02815260206004820152605260248201527f6f6e6c7920616c6c6f77207065726d697373696f6e206372656174696f6e207760448201527f68656e20697420686173206e6f206d616e6167657220286861736e277420626560648201527f656e2063726561746564206265666f7265290000000000000000000000000000608482015290519081900360a40190fd5b6109c68484846001610782565b6109d18184846107fa565b505050505600a165627a7a7230582000e3ad27568ab9c3ee9639fd4d4f1008fa740e6882328951936c4f7313a4aec00029",
  "source": "pragma solidity ^0.4.24;\n\nimport \"./interfaces/IRoleRegistry.sol\";\n\n\ncontract GateKeeper {\n\n  bytes32 constant public CREATE_PERMISSIONS_ROLE = bytes32(\"CREATE_PERMISSIONS_ROLE\");\n  bytes32 constant public ADD_ROLEREGISTRY_ROLE = bytes32(\"ADD_ROLEREGISTRY_ROLE\");\n\n  event SetPermission(address indexed entity, address indexed contractAddress, bytes32 indexed role, bool allowed);\n  event ChangePermissionManager(address indexed contractAddress, bytes32 indexed role, address indexed manager);\n\n  // whether a certain entity has a permission\n  mapping (address => mapping (address => mapping (bytes32 => bool))) permissions;\n  // who is the manager of a permission\n  mapping (address => mapping (bytes32 => address)) permissionManager;\n\n  // a list of all RoleRegistries\n  IRoleRegistry[] roleRegistries;\n\n  modifier onlyPermissionManager(address _contract, bytes32 role) {\n    require(msg.sender == getPermissionManager(_contract, role), \"Sender is not the permission manager\");\n    _;\n  }\n\n  modifier auth(bytes32 _role) {\n    require(hasPermission(msg.sender, address(this), _role), \"Sender does not have the correct permissions\");\n    _;\n  }\n\n  constructor() public {\n    _createPermission(\n      msg.sender,\n      address(this),\n      CREATE_PERMISSIONS_ROLE,\n      msg.sender\n    );\n    _createPermission(\n      msg.sender,\n      address(this),\n      ADD_ROLEREGISTRY_ROLE,\n      msg.sender\n    );\n  }\n\n  function addRoleRegistry(address roleRegisty) external auth(ADD_ROLEREGISTRY_ROLE) {\n    roleRegistries.push(IRoleRegistry(roleRegisty));\n  }\n\n  /**\n  * @dev Creates a permission that wasn't previously set. Access is limited by the ACL.\n  *      if a created permission is removed it is possible to reset it with createPermission.\n  * @notice Create a new permission granting `_entity` the ability to perform actions of role `_role` on `_contract` (setting `_manager` as parent)\n  * @param _entity Address of the whitelisted entity that will be able to perform the role, this can be a user or a roleregistry\n  * @param _contract Address of the app in which the role will be allowed (requires app to depend on kernel for ACL)\n  * @param _role Identifier for the group of actions in app given access to perform\n  * @param _manager Address of the entity that will be able to grant and revoke the permission further.\n  */\n  function createPermission(\n    address _entity,\n    address _contract,\n    bytes32 _role,\n    address _manager\n  )\n    public\n    auth(CREATE_PERMISSIONS_ROLE)\n  {\n    _createPermission(\n      _entity,\n      _contract,\n      _role,\n      _manager\n    );\n  }\n\n  /**\n  * @dev Grants a permission if allowed. This requires `msg.sender` to be the permission manager\n  * @notice Grants `_entity` the ability to perform actions of role `_role` on `_contract`\n  * @param _entity Address of the whitelisted entity that will be able to perform the role\n  * @param _contract Address of the app in which the role will be allowed (requires app to depend on kernel for ACL)\n  * @param _role Identifier for the group of actions in app given access to perform\n  */\n  function grantPermission(address _entity, address _contract, bytes32 _role)\n    public\n    onlyPermissionManager(_contract, _role)\n  {\n    _setPermission(\n      _entity,\n      _contract,\n      _role,\n      true\n    );\n  }\n\n  /**\n  * @dev Revokes permission if allowed. This requires `msg.sender` to be the parent of the permission\n  * @notice Revokes `_entity` the ability to perform actions of role `_role` on `_contract`\n  * @param _entity Address of the whitelisted entity that will be revoked access\n  * @param _contract Address of the app in which the role is revoked\n  * @param _role Identifier for the group of actions in app given access to perform\n  */\n  function revokePermission(address _entity, address _contract, bytes32 _role)\n    public\n    onlyPermissionManager(_contract, _role)\n  {\n    _setPermission(\n      _entity,\n      _contract,\n      _role,\n      false\n    );\n  }\n\n  /**\n  * @notice Sets `_newManager` as the manager of the permission `_role` in `_contract`\n  * @param _newManager Address for the new manager\n  * @param _contract Address of the app in which the permission management is being transferred\n  * @param _role Identifier for the group of actions in app given access to perform\n  */\n  function setPermissionManager(address _newManager, address _contract, bytes32 _role)\n    public\n    onlyPermissionManager(_contract, _role)\n  {\n    _setPermissionManager(_newManager, _contract, _role);\n  }\n\n  /**\n  * @dev Get manager address for permission\n  * @param _contract Address of the app\n  * @param _role Identifier for a group of actions in app\n  * @return address of the manager for the permission\n  */\n  function getPermissionManager(address _contract, bytes32 _role) public view returns (address) {\n    return permissionManager[_contract][_role];\n  }\n\n  /**\n  * @dev Function called by apps to check ACL on kernel or to check permission statu\n  * @param _entity Sender of the original call\n  * @param _contract Address of the app\n  * @param _role Identifier for a group of actions in app\n  * @return boolean indicating whether the ACL allows the role or not\n  */\n  function hasPermission(address _entity, address _contract, bytes32 _role) public view returns (bool) {\n    // the address passed in has the permissions themselves\n    bool personalPermission = permissions[_entity][_contract][_role];\n    if (personalPermission) {\n      return personalPermission;\n    }\n    // or we will check if any of the role registries have the permission\n    for (uint256 counter = 0; counter < roleRegistries.length; counter++) {\n      if (hasPermission(address(roleRegistries[counter]), _contract, _role)) {\n        // and if the original address has role, than we will allow it\n        if (roleRegistries[counter].hasRole(_entity)) {\n          return true;\n        }\n      }\n    }\n    // if, not, deny!\n    return false;\n  }\n\n  /**\n  * @dev Internal createPermission for access inside the gatekeeper (on instantiation)\n  */\n  function _createPermission(\n    address _entity,\n    address _contract,\n    bytes32 _role,\n    address _manager\n  )\n    internal\n  {\n    require(permissionManager[_contract][_role] == 0, \"only allow permission creation when it has no manager (hasn't been created before)\");\n    _setPermission(\n      _entity,\n      _contract,\n      _role,\n      true\n    );\n    _setPermissionManager(_manager, _contract, _role);\n  }\n\n  /**\n  * @dev Internal function called to actually save the permission\n  */\n  function _setPermission(\n    address _entity,\n    address _contract,\n    bytes32 _role,\n    bool _allowed\n  )\n    internal\n  {\n    permissions[_entity][_contract][_role] = _allowed;\n    emit SetPermission(\n      _entity,\n      _contract,\n      _role,\n      _allowed\n    );\n  }\n\n  /**\n  * @dev Internal function that sets management\n  */\n  function _setPermissionManager(address _newManager, address _contract, bytes32 _role) internal {\n    require(_newManager > 0, \"_newManager should be a real address\");\n\n    permissionManager[_contract][_role] = _newManager;\n    emit ChangePermissionManager(_contract, _role, _newManager);\n  }\n}\n",
  "sourcePath": "@settlemint/solidity-mint/contracts/authentication/GateKeeper.sol",
  "compiler": {
    "name": "solc",
    "version": "0.4.24+commit.e67f0147.Emscripten.clang"
  },
  "schemaVersion": "3.0.0-beta.0",
  "updatedAt": "2018-09-25T20:24:05.863Z"
}