{
  "contractName": "Listing",
  "abi": [
    {
      "constant": true,
      "inputs": [],
      "name": "BLACKLIST_ROLE",
      "outputs": [
        {
          "name": "",
          "type": "bytes32"
        }
      ],
      "payable": false,
      "stateMutability": "view",
      "type": "function"
    },
    {
      "constant": false,
      "inputs": [
        {
          "name": "_stake",
          "type": "uint256"
        }
      ],
      "name": "setStake",
      "outputs": [],
      "payable": false,
      "stateMutability": "nonpayable",
      "type": "function"
    },
    {
      "constant": true,
      "inputs": [],
      "name": "metadata",
      "outputs": [
        {
          "name": "",
          "type": "string"
        }
      ],
      "payable": false,
      "stateMutability": "view",
      "type": "function"
    },
    {
      "constant": true,
      "inputs": [],
      "name": "stake",
      "outputs": [
        {
          "name": "",
          "type": "uint256"
        }
      ],
      "payable": false,
      "stateMutability": "view",
      "type": "function"
    },
    {
      "constant": true,
      "inputs": [],
      "name": "whitelisted",
      "outputs": [
        {
          "name": "",
          "type": "bool"
        }
      ],
      "payable": false,
      "stateMutability": "view",
      "type": "function"
    },
    {
      "constant": true,
      "inputs": [],
      "name": "gateKeeper",
      "outputs": [
        {
          "name": "",
          "type": "address"
        }
      ],
      "payable": false,
      "stateMutability": "view",
      "type": "function"
    },
    {
      "constant": false,
      "inputs": [
        {
          "name": "ipfsHash",
          "type": "string"
        }
      ],
      "name": "updateMetaData",
      "outputs": [],
      "payable": false,
      "stateMutability": "nonpayable",
      "type": "function"
    },
    {
      "constant": true,
      "inputs": [],
      "name": "challengesStake",
      "outputs": [
        {
          "name": "",
          "type": "uint256"
        }
      ],
      "payable": false,
      "stateMutability": "view",
      "type": "function"
    },
    {
      "constant": false,
      "inputs": [
        {
          "name": "_challengesStake",
          "type": "uint256"
        }
      ],
      "name": "setChallengesStake",
      "outputs": [],
      "payable": false,
      "stateMutability": "nonpayable",
      "type": "function"
    },
    {
      "constant": false,
      "inputs": [
        {
          "name": "_whitelisted",
          "type": "bool"
        }
      ],
      "name": "setWhitelisted",
      "outputs": [],
      "payable": false,
      "stateMutability": "nonpayable",
      "type": "function"
    },
    {
      "constant": false,
      "inputs": [
        {
          "name": "_challenge",
          "type": "address"
        }
      ],
      "name": "setChallenge",
      "outputs": [],
      "payable": false,
      "stateMutability": "nonpayable",
      "type": "function"
    },
    {
      "constant": true,
      "inputs": [],
      "name": "owner",
      "outputs": [
        {
          "name": "",
          "type": "address"
        }
      ],
      "payable": false,
      "stateMutability": "view",
      "type": "function"
    },
    {
      "constant": true,
      "inputs": [
        {
          "name": "",
          "type": "uint256"
        }
      ],
      "name": "challenges",
      "outputs": [
        {
          "name": "",
          "type": "address"
        }
      ],
      "payable": false,
      "stateMutability": "view",
      "type": "function"
    },
    {
      "constant": false,
      "inputs": [
        {
          "name": "_price",
          "type": "uint256"
        }
      ],
      "name": "setPrice",
      "outputs": [],
      "payable": false,
      "stateMutability": "nonpayable",
      "type": "function"
    },
    {
      "constant": true,
      "inputs": [],
      "name": "price",
      "outputs": [
        {
          "name": "",
          "type": "uint256"
        }
      ],
      "payable": false,
      "stateMutability": "view",
      "type": "function"
    },
    {
      "constant": false,
      "inputs": [
        {
          "name": "_numberOfChallenges",
          "type": "uint256"
        }
      ],
      "name": "setNumberOfChallenges",
      "outputs": [],
      "payable": false,
      "stateMutability": "nonpayable",
      "type": "function"
    },
    {
      "constant": false,
      "inputs": [],
      "name": "blacklist",
      "outputs": [],
      "payable": false,
      "stateMutability": "nonpayable",
      "type": "function"
    },
    {
      "constant": true,
      "inputs": [],
      "name": "numberOfChallenges",
      "outputs": [
        {
          "name": "",
          "type": "uint256"
        }
      ],
      "payable": false,
      "stateMutability": "view",
      "type": "function"
    },
    {
      "constant": true,
      "inputs": [
        {
          "name": "_index",
          "type": "uint256"
        }
      ],
      "name": "getChallengeAtIndex",
      "outputs": [
        {
          "name": "challenge",
          "type": "address"
        }
      ],
      "payable": false,
      "stateMutability": "view",
      "type": "function"
    },
    {
      "constant": true,
      "inputs": [],
      "name": "getChallengesLength",
      "outputs": [
        {
          "name": "length",
          "type": "uint256"
        }
      ],
      "payable": false,
      "stateMutability": "view",
      "type": "function"
    },
    {
      "constant": true,
      "inputs": [],
      "name": "UPDATE_METADATA_ROLE",
      "outputs": [
        {
          "name": "",
          "type": "bytes32"
        }
      ],
      "payable": false,
      "stateMutability": "view",
      "type": "function"
    },
    {
      "inputs": [
        {
          "name": "_owner",
          "type": "address"
        },
        {
          "name": "_price",
          "type": "uint256"
        },
        {
          "name": "_stakeAmount",
          "type": "uint256"
        },
        {
          "name": "_gateKeeper",
          "type": "address"
        }
      ],
      "payable": false,
      "stateMutability": "nonpayable",
      "type": "constructor"
    },
    {
      "anonymous": false,
      "inputs": [
        {
          "indexed": false,
          "name": "listing",
          "type": "address"
        }
      ],
      "name": "Blacklisted",
      "type": "event"
    },
    {
      "anonymous": false,
      "inputs": [
        {
          "indexed": false,
          "name": "listing",
          "type": "address"
        },
        {
          "indexed": false,
          "name": "stake",
          "type": "uint256"
        }
      ],
      "name": "StakeSet",
      "type": "event"
    },
    {
      "anonymous": false,
      "inputs": [
        {
          "indexed": false,
          "name": "listing",
          "type": "address"
        },
        {
          "indexed": false,
          "name": "stake",
          "type": "uint256"
        }
      ],
      "name": "ChallengesStakeSet",
      "type": "event"
    },
    {
      "anonymous": false,
      "inputs": [
        {
          "indexed": false,
          "name": "listing",
          "type": "address"
        },
        {
          "indexed": false,
          "name": "challenge",
          "type": "address"
        }
      ],
      "name": "ChallengeSet",
      "type": "event"
    },
    {
      "anonymous": false,
      "inputs": [
        {
          "indexed": false,
          "name": "listing",
          "type": "address"
        },
        {
          "indexed": false,
          "name": "whitelisted",
          "type": "bool"
        }
      ],
      "name": "WhitelistedSet",
      "type": "event"
    },
    {
      "anonymous": false,
      "inputs": [
        {
          "indexed": false,
          "name": "listing",
          "type": "address"
        },
        {
          "indexed": false,
          "name": "price",
          "type": "uint256"
        }
      ],
      "name": "PriceSet",
      "type": "event"
    },
    {
      "anonymous": false,
      "inputs": [
        {
          "indexed": false,
          "name": "listing",
          "type": "address"
        },
        {
          "indexed": false,
          "name": "challengeID",
          "type": "uint256"
        }
      ],
      "name": "ChallengeIDSet",
      "type": "event"
    },
    {
      "anonymous": false,
      "inputs": [
        {
          "indexed": false,
          "name": "listing",
          "type": "address"
        },
        {
          "indexed": false,
          "name": "numberOfChallenges",
          "type": "uint256"
        }
      ],
      "name": "NumberOfChallengesSet",
      "type": "event"
    }
  ],
  "bytecode": "0x608060405260006002819055600381905560048190556005556007805460ff1916600117905534801561003157600080fd5b50604051608080610a73833981016040908152815160208301519183015160609093015160008054600160a060020a03928316600160a060020a031990911617905560078054919092166101000261010060a860020a03199091161790556002556003556109cf806100a46000396000f30060806040526004361061011c5763ffffffff7c010000000000000000000000000000000000000000000000000000000060003504166319afe463811461012157806335d9db5314610148578063392f37e9146101625780633a4b66f1146101ec5780633d9287fa1461020157806345d61ded1461022a5780635cc075051461025b578063605cba82146102b45780636de149f5146102c95780637b789204146102e15780637daa30df146102fb5780638da5cb5b1461031c5780638f1d37761461033157806391b7f5ed14610349578063a035b1fe14610361578063a2de836814610376578063a4b5fa561461038e578063ae110875146103a3578063b263b26e146103b8578063cfd6d732146103d0578063fff139cf146103e5575b600080fd5b34801561012d57600080fd5b506101366103fa565b60408051918252519081900360200190f35b34801561015457600080fd5b5061016060043561041e565b005b34801561016e57600080fd5b50610177610461565b6040805160208082528351818301528351919283929083019185019080838360005b838110156101b1578181015183820152602001610199565b50505050905090810190601f1680156101de5780820380516001836020036101000a031916815260200191505b509250505060405180910390f35b3480156101f857600080fd5b506101366104ee565b34801561020d57600080fd5b506102166104f4565b604080519115158252519081900360200190f35b34801561023657600080fd5b5061023f6104fd565b60408051600160a060020a039092168252519081900360200190f35b34801561026757600080fd5b506040805160206004803580820135601f810184900484028501840190955284845261016094369492936024939284019190819084018382808284375094975061050c9650505050505050565b3480156102c057600080fd5b50610136610518565b3480156102d557600080fd5b5061016060043561051e565b3480156102ed57600080fd5b506101606004351515610561565b34801561030757600080fd5b50610160600160a060020a03600435166105b0565b34801561032857600080fd5b5061023f61060f565b34801561033d57600080fd5b5061023f600435610623565b34801561035557600080fd5b5061016060043561064b565b34801561036d57600080fd5b5061013661068e565b34801561038257600080fd5b50610160600435610694565b34801561039a57600080fd5b506101606106d7565b3480156103af57600080fd5b506101366107d5565b3480156103c457600080fd5b5061023f6004356107db565b3480156103dc57600080fd5b50610136610807565b3480156103f157600080fd5b5061013661080d565b7f424c41434b4c4953545f524f4c4500000000000000000000000000000000000081565b6003819055604080513081526020810183905281517f91ea5c7d3e6075f2586305ea460cca898d81cf65d0222fe1164ada2afbc4d4d1929181900390910190a150565b60018054604080516020600284861615610100026000190190941693909304601f810184900484028201840190925281815292918301828280156104e65780601f106104bb576101008083540402835291602001916104e6565b820191906000526020600020905b8154815290600101906020018083116104c957829003601f168201915b505050505081565b60035481565b60075460ff1681565b600054600160a060020a031681565b61051581610831565b50565b60045481565b6004819055604080513081526020810183905281517f20676180e1da70fdf5891a3c30f993ab862a69f30e0b86c6f978bbbdefe4f2bb929181900390910190a150565b6007805460ff191682151590811790915560408051308152602081019290925280517f707f3c5101172c4122bef76a7247663a6c9347fd005fc5eff73c858572d9f5899281900390910190a150565b600680546001810182556000919091527ff652222313e28459528d920b65115c16c04f3efc82aaedc97be59f3f377c0d3f01805473ffffffffffffffffffffffffffffffffffffffff1916600160a060020a0392909216919091179055565b6007546101009004600160a060020a031681565b600680548290811061063157fe5b600091825260209091200154600160a060020a0316905081565b6002819055604080513081526020810183905281517ff9a09e2869a1f88523f00504328d7965866201bafe501573db2e114e3375a086929181900390910190a150565b60025481565b6005819055604080513081526020810183905281517f79a6cc998c9294fe1b2f03a63599378a8c641800e387a89b604bd01209b4e493929181900390910190a150565b7f424c41434b4c4953545f524f4c450000000000000000000000000000000000006107023382610848565b151561079557604080517f08c379a000000000000000000000000000000000000000000000000000000000815260206004820152602160248201527f596f7520646f206e6f7420686176652074686520636f727265637420726f6c6560448201527f7300000000000000000000000000000000000000000000000000000000000000606482015290519081900360840190fd5b6007805460ff191690556040805130815290517fffa4e6181777692565cf28528fc88fd1516ea86b56da075235fa575af6a4b8559181900360200190a150565b60055481565b60006006828154811015156107ec57fe5b600091825260209091200154600160a060020a031692915050565b60065490565b7f5550444154455f4d455441444154415f524f4c4500000000000000000000000081565b8051610844906001906020840190610908565b5050565b60008054600160a060020a03161580610901575060008054604080517f6d6712d8000000000000000000000000000000000000000000000000000000008152600160a060020a0387811660048301523060248301526044820187905291519190921692636d6712d892606480820193602093909283900390910190829087803b1580156108d457600080fd5b505af11580156108e8573d6000803e3d6000fd5b505050506040513d60208110156108fe57600080fd5b50515b9392505050565b828054600181600116156101000203166002900490600052602060002090601f016020900481019282601f1061094957805160ff1916838001178555610976565b82800160010185558215610976579182015b8281111561097657825182559160200191906001019061095b565b50610982929150610986565b5090565b6109a091905b80821115610982576000815560010161098c565b905600a165627a7a72305820b9ba7a12cedb7671aee3e23d8339ead79a9fc91e3d8575747bcb8dc4b4d062960029",
  "source": "pragma solidity ^0.4.20;\n\nimport \"./interfaces/IListing.sol\";\n\n\ncontract Listing is IListing {\n\n  /**\n  @dev Contructor\n  @notice                Sets the address for token\n  @param _owner          Address of the owner\n  @param _price          Price for the listing\n  @param _stakeAmount    Amount staked for the listing\n  @param _gateKeeper     Address of the gatekeeper\n  */\n  constructor(\n    address _owner,\n    uint _price,\n    uint _stakeAmount,\n    address _gateKeeper\n  )\n    IListing(_owner, _price, _stakeAmount, _gateKeeper)\n    public\n  {}\n}\n",
  "sourcePath": "@settlemint/solidity-mint/contracts/marketplaces/tokencuratedregistry/Listing.sol",
  "compiler": {
    "name": "solc",
    "version": "0.4.24+commit.e67f0147.Emscripten.clang"
  },
  "schemaVersion": "3.0.0-beta.0",
  "updatedAt": "2018-09-10T12:57:50.566Z"
}