{
  "contractName": "LocalDTXToken",
  "abi": [
    {
      "constant": true,
      "inputs": [],
      "name": "name",
      "outputs": [
        {
          "name": "",
          "type": "bytes32"
        }
      ],
      "payable": false,
      "stateMutability": "view",
      "type": "function",
      "signature": "0x06fdde03"
    },
    {
      "constant": false,
      "inputs": [
        {
          "name": "_spender",
          "type": "address"
        },
        {
          "name": "_value",
          "type": "uint256"
        }
      ],
      "name": "approve",
      "outputs": [
        {
          "name": "",
          "type": "bool"
        }
      ],
      "payable": false,
      "stateMutability": "nonpayable",
      "type": "function",
      "signature": "0x095ea7b3"
    },
    {
      "constant": true,
      "inputs": [],
      "name": "totalSupply",
      "outputs": [
        {
          "name": "",
          "type": "uint256"
        }
      ],
      "payable": false,
      "stateMutability": "view",
      "type": "function",
      "signature": "0x18160ddd"
    },
    {
      "constant": false,
      "inputs": [
        {
          "name": "_roleRegistryAddress",
          "type": "address"
        },
        {
          "name": "_amount",
          "type": "uint256"
        }
      ],
      "name": "burnFromRoleRegistry",
      "outputs": [
        {
          "name": "success",
          "type": "bool"
        }
      ],
      "payable": false,
      "stateMutability": "nonpayable",
      "type": "function",
      "signature": "0x1bd42f3e"
    },
    {
      "constant": false,
      "inputs": [
        {
          "name": "_from",
          "type": "address"
        },
        {
          "name": "_to",
          "type": "address"
        },
        {
          "name": "_value",
          "type": "uint256"
        }
      ],
      "name": "transferFrom",
      "outputs": [
        {
          "name": "success",
          "type": "bool"
        }
      ],
      "payable": false,
      "stateMutability": "nonpayable",
      "type": "function",
      "signature": "0x23b872dd"
    },
    {
      "constant": false,
      "inputs": [
        {
          "name": "_to",
          "type": "address"
        },
        {
          "name": "_value",
          "type": "uint256"
        },
        {
          "name": "_data",
          "type": "bytes"
        }
      ],
      "name": "transferWithData",
      "outputs": [
        {
          "name": "success",
          "type": "bool"
        }
      ],
      "payable": false,
      "stateMutability": "nonpayable",
      "type": "function",
      "signature": "0x2535f762"
    },
    {
      "constant": true,
      "inputs": [],
      "name": "decimals",
      "outputs": [
        {
          "name": "",
          "type": "uint8"
        }
      ],
      "payable": false,
      "stateMutability": "view",
      "type": "function",
      "signature": "0x313ce567"
    },
    {
      "constant": true,
      "inputs": [],
      "name": "metadata",
      "outputs": [
        {
          "name": "",
          "type": "string"
        }
      ],
      "payable": false,
      "stateMutability": "view",
      "type": "function",
      "signature": "0x392f37e9"
    },
    {
      "constant": false,
      "inputs": [
        {
          "name": "_to",
          "type": "address"
        },
        {
          "name": "_amount",
          "type": "uint256"
        }
      ],
      "name": "mint",
      "outputs": [
        {
          "name": "success",
          "type": "bool"
        }
      ],
      "payable": false,
      "stateMutability": "nonpayable",
      "type": "function",
      "signature": "0x40c10f19"
    },
    {
      "constant": true,
      "inputs": [],
      "name": "gateKeeper",
      "outputs": [
        {
          "name": "",
          "type": "address"
        }
      ],
      "payable": false,
      "stateMutability": "view",
      "type": "function",
      "signature": "0x45d61ded"
    },
    {
      "constant": false,
      "inputs": [
        {
          "name": "ipfsHash",
          "type": "string"
        }
      ],
      "name": "updateMetaData",
      "outputs": [],
      "payable": false,
      "stateMutability": "nonpayable",
      "type": "function",
      "signature": "0x5cc07505"
    },
    {
      "constant": false,
      "inputs": [
        {
          "name": "_spender",
          "type": "address"
        },
        {
          "name": "_subtractedValue",
          "type": "uint256"
        }
      ],
      "name": "decreaseApproval",
      "outputs": [
        {
          "name": "success",
          "type": "bool"
        }
      ],
      "payable": false,
      "stateMutability": "nonpayable",
      "type": "function",
      "signature": "0x66188463"
    },
    {
      "constant": true,
      "inputs": [
        {
          "name": "_owner",
          "type": "address"
        }
      ],
      "name": "balanceOf",
      "outputs": [
        {
          "name": "balance",
          "type": "uint256"
        }
      ],
      "payable": false,
      "stateMutability": "view",
      "type": "function",
      "signature": "0x70a08231"
    },
    {
      "constant": false,
      "inputs": [
        {
          "name": "_from",
          "type": "address"
        },
        {
          "name": "_amount",
          "type": "uint256"
        }
      ],
      "name": "burn",
      "outputs": [
        {
          "name": "success",
          "type": "bool"
        }
      ],
      "payable": false,
      "stateMutability": "nonpayable",
      "type": "function",
      "signature": "0x9dc29fac"
    },
    {
      "constant": false,
      "inputs": [
        {
          "name": "_to",
          "type": "address"
        },
        {
          "name": "_value",
          "type": "uint256"
        }
      ],
      "name": "transfer",
      "outputs": [
        {
          "name": "success",
          "type": "bool"
        }
      ],
      "payable": false,
      "stateMutability": "nonpayable",
      "type": "function",
      "signature": "0xa9059cbb"
    },
    {
      "constant": true,
      "inputs": [],
      "name": "BURN_ROLE",
      "outputs": [
        {
          "name": "",
          "type": "bytes32"
        }
      ],
      "payable": false,
      "stateMutability": "view",
      "type": "function",
      "signature": "0xb930908f"
    },
    {
      "constant": false,
      "inputs": [
        {
          "name": "_spender",
          "type": "address"
        },
        {
          "name": "_value",
          "type": "uint256"
        },
        {
          "name": "_extraData",
          "type": "bytes"
        }
      ],
      "name": "approveAndCall",
      "outputs": [
        {
          "name": "success",
          "type": "bool"
        }
      ],
      "payable": false,
      "stateMutability": "nonpayable",
      "type": "function",
      "signature": "0xcae9ca51"
    },
    {
      "constant": false,
      "inputs": [
        {
          "name": "_spender",
          "type": "address"
        },
        {
          "name": "_addedValue",
          "type": "uint256"
        }
      ],
      "name": "increaseApproval",
      "outputs": [
        {
          "name": "success",
          "type": "bool"
        }
      ],
      "payable": false,
      "stateMutability": "nonpayable",
      "type": "function",
      "signature": "0xd73dd623"
    },
    {
      "constant": false,
      "inputs": [
        {
          "name": "_roleRegistryAddress",
          "type": "address"
        },
        {
          "name": "_amount",
          "type": "uint256"
        }
      ],
      "name": "mintToRoleRegistry",
      "outputs": [
        {
          "name": "success",
          "type": "bool"
        }
      ],
      "payable": false,
      "stateMutability": "nonpayable",
      "type": "function",
      "signature": "0xdcb82f81"
    },
    {
      "constant": true,
      "inputs": [
        {
          "name": "_owner",
          "type": "address"
        },
        {
          "name": "_spender",
          "type": "address"
        }
      ],
      "name": "allowance",
      "outputs": [
        {
          "name": "remaining",
          "type": "uint256"
        }
      ],
      "payable": false,
      "stateMutability": "view",
      "type": "function",
      "signature": "0xdd62ed3e"
    },
    {
      "constant": true,
      "inputs": [],
      "name": "MINT_ROLE",
      "outputs": [
        {
          "name": "",
          "type": "bytes32"
        }
      ],
      "payable": false,
      "stateMutability": "view",
      "type": "function",
      "signature": "0xe9a9c850"
    },
    {
      "constant": false,
      "inputs": [
        {
          "name": "_from",
          "type": "address"
        },
        {
          "name": "_to",
          "type": "address"
        },
        {
          "name": "_value",
          "type": "uint256"
        },
        {
          "name": "_data",
          "type": "bytes"
        }
      ],
      "name": "transferFromWithData",
      "outputs": [
        {
          "name": "success",
          "type": "bool"
        }
      ],
      "payable": false,
      "stateMutability": "nonpayable",
      "type": "function",
      "signature": "0xee532f31"
    },
    {
      "constant": true,
      "inputs": [],
      "name": "UPDATE_METADATA_ROLE",
      "outputs": [
        {
          "name": "",
          "type": "bytes32"
        }
      ],
      "payable": false,
      "stateMutability": "view",
      "type": "function",
      "signature": "0xfff139cf"
    },
    {
      "inputs": [
        {
          "name": "_name",
          "type": "bytes32"
        },
        {
          "name": "_decimals",
          "type": "uint8"
        },
        {
          "name": "_gateKeeper",
          "type": "address"
        }
      ],
      "payable": false,
      "stateMutability": "nonpayable",
      "type": "constructor",
      "signature": "constructor"
    },
    {
      "anonymous": false,
      "inputs": [
        {
          "indexed": true,
          "name": "from",
          "type": "address"
        },
        {
          "indexed": true,
          "name": "to",
          "type": "address"
        },
        {
          "indexed": false,
          "name": "value",
          "type": "uint256"
        }
      ],
      "name": "Transfer",
      "type": "event",
      "signature": "0xddf252ad1be2c89b69c2b068fc378daa952ba7f163c4a11628f55a4df523b3ef"
    },
    {
      "anonymous": false,
      "inputs": [
        {
          "indexed": true,
          "name": "from",
          "type": "address"
        },
        {
          "indexed": true,
          "name": "to",
          "type": "address"
        },
        {
          "indexed": false,
          "name": "data",
          "type": "bytes"
        }
      ],
      "name": "TransferData",
      "type": "event",
      "signature": "0x69cf42fddae119b7568ebaa1f70aac657fd6abd62d00c2ab4fcf81ff87935ab3"
    },
    {
      "anonymous": false,
      "inputs": [
        {
          "indexed": true,
          "name": "to",
          "type": "address"
        },
        {
          "indexed": false,
          "name": "amount",
          "type": "uint256"
        }
      ],
      "name": "Mint",
      "type": "event",
      "signature": "0x0f6798a560793a54c3bcfe86a93cde1e73087d944c0ea20544137d4121396885"
    },
    {
      "anonymous": false,
      "inputs": [
        {
          "indexed": true,
          "name": "from",
          "type": "address"
        },
        {
          "indexed": false,
          "name": "amount",
          "type": "uint256"
        }
      ],
      "name": "Burn",
      "type": "event",
      "signature": "0xcc16f5dbb4873280815c1ee09dbd06736cffcc184412cf7a71a0fdb75d397ca5"
    },
    {
      "anonymous": false,
      "inputs": [
        {
          "indexed": true,
          "name": "owner",
          "type": "address"
        },
        {
          "indexed": true,
          "name": "spender",
          "type": "address"
        },
        {
          "indexed": false,
          "name": "value",
          "type": "uint256"
        }
      ],
      "name": "Approval",
      "type": "event",
      "signature": "0x8c5be1e5ebec7d5bd14f71427d1e84f3dd0314c0f7b2291e5b200ac8c7c3b925"
    },
    {
      "constant": true,
      "inputs": [],
      "name": "getIndexLength",
      "outputs": [
        {
          "name": "length",
          "type": "uint256"
        }
      ],
      "payable": false,
      "stateMutability": "view",
      "type": "function",
      "signature": "0xe1ba7d01"
    },
    {
      "constant": true,
      "inputs": [
        {
          "name": "index",
          "type": "uint256"
        }
      ],
      "name": "getByIndex",
      "outputs": [
        {
          "name": "key",
          "type": "address"
        },
        {
          "name": "balance",
          "type": "uint256"
        }
      ],
      "payable": false,
      "stateMutability": "view",
      "type": "function",
      "signature": "0x2d883a73"
    },
    {
      "constant": true,
      "inputs": [
        {
          "name": "_key",
          "type": "address"
        }
      ],
      "name": "getByKey",
      "outputs": [
        {
          "name": "key",
          "type": "address"
        },
        {
          "name": "balance",
          "type": "uint256"
        }
      ],
      "payable": false,
      "stateMutability": "view",
      "type": "function",
      "signature": "0x49877038"
    }
  ],
  "bytecode": "0x608060405234801561001057600080fd5b506040516060806121b483398101604090815281516020830151919092015160008054600160a060020a031916600160a060020a039092169190911781556002929092556003805460ff191660ff90921691909117905561213d90819061007790396000f30060806040526004361061013a5763ffffffff60e060020a60003504166306fdde03811461013f578063095ea7b31461016657806318160ddd1461019e5780631bd42f3e146101b357806323b872dd146101d75780632535f762146102015780632d883a731461026a578063313ce567146102a5578063392f37e9146102d057806340c10f191461035a57806345d61ded1461037e57806349877038146103af5780635cc07505146103d0578063661884631461042b57806370a082311461044f5780639dc29fac14610470578063a9059cbb14610494578063b930908f146104b8578063cae9ca51146104cd578063d73dd62314610536578063dcb82f811461055a578063dd62ed3e1461057e578063e1ba7d01146105a5578063e9a9c850146105ba578063ee532f31146105cf578063fff139cf1461063e575b600080fd5b34801561014b57600080fd5b50610154610653565b60408051918252519081900360200190f35b34801561017257600080fd5b5061018a600160a060020a0360043516602435610659565b604080519115158252519081900360200190f35b3480156101aa57600080fd5b506101546106bf565b3480156101bf57600080fd5b5061018a600160a060020a03600435166024356106c5565b3480156101e357600080fd5b5061018a600160a060020a0360043581169060243516604435610936565b34801561020d57600080fd5b50604080516020600460443581810135601f810184900484028501840190955284845261018a948235600160a060020a0316946024803595369594606494920191908190840183828082843750949750610c589650505050505050565b34801561027657600080fd5b50610282600435610d71565b60408051600160a060020a03909316835260208301919091528051918290030190f35b3480156102b157600080fd5b506102ba610dda565b6040805160ff9092168252519081900360200190f35b3480156102dc57600080fd5b506102e5610de3565b6040805160208082528351818301528351919283929083019185019080838360005b8381101561031f578181015183820152602001610307565b50505050905090810190601f16801561034c5780820380516001836020036101000a031916815260200191505b509250505060405180910390f35b34801561036657600080fd5b5061018a600160a060020a0360043516602435610e70565b34801561038a57600080fd5b5061039361105d565b60408051600160a060020a039092168252519081900360200190f35b3480156103bb57600080fd5b50610282600160a060020a036004351661106c565b3480156103dc57600080fd5b506040805160206004803580820135601f81018490048402850184019095528484526104299436949293602493928401919081908401838280828437509497506110899650505050505050565b005b34801561043757600080fd5b5061018a600160a060020a0360043516602435611129565b34801561045b57600080fd5b50610154600160a060020a0360043516611219565b34801561047c57600080fd5b5061018a600160a060020a0360043516602435611234565b3480156104a057600080fd5b5061018a600160a060020a0360043516602435611487565b3480156104c457600080fd5b506101546116a2565b3480156104d957600080fd5b50604080516020600460443581810135601f810184900484028501840190955284845261018a948235600160a060020a03169460248035953695946064949201919081908401838280828437509497506116c69650505050505050565b34801561054257600080fd5b5061018a600160a060020a0360043516602435611851565b34801561056657600080fd5b5061018a600160a060020a03600435166024356118ea565b34801561058a57600080fd5b50610154600160a060020a0360043581169060243516611ab5565b3480156105b157600080fd5b50610154611ae0565b3480156105c657600080fd5b50610154611ae6565b3480156105db57600080fd5b50604080516020601f60643560048181013592830184900484028501840190955281845261018a94600160a060020a038135811695602480359092169560443595369560849401918190840183828082843750949750611b0a9650505050505050565b34801561064a57600080fd5b50610154611c25565b60025481565b336000818152600660209081526040808320600160a060020a038716808552908352818420869055815186815291519394909390927f8c5be1e5ebec7d5bd14f71427d1e84f3dd0314c0f7b2291e5b200ac8c7c3b925928290030190a350600192915050565b60075481565b6000806000806000807f4255524e5f524f4c4500000000000000000000000000000000000000000000006106f93382611c49565b61076961075d61070e61071361070e86611d09565b611e7f565b6107516040805190810160405280601f81526020017f20646f206e6f7420686176652074686520636f727265637420726f6c653a2000815250611e7f565b9063ffffffff611ea516565b61075161070e33611f1c565b9015156107f75760405160e560020a62461bcd0281526004018080602001828103825283818151815260200191508051906020019080838360005b838110156107bc5781810151838201526020016107a4565b50505050905090810190601f1680156107e95780820380516001836020036101000a031916815260200191505b509250505060405180910390fd5b5088955085600160a060020a031663e1ba7d016040518163ffffffff1660e060020a028152600401602060405180830381600087803b15801561083957600080fd5b505af115801561084d573d6000803e3d6000fd5b505050506040513d602081101561086357600080fd5b50519450600093505b8484101561092757604080517f2d883a73000000000000000000000000000000000000000000000000000000008152600481018690528151600160a060020a03891692632d883a7392602480820193918290030181600087803b1580156108d257600080fd5b505af11580156108e6573d6000803e3d6000fd5b505050506040513d60408110156108fc57600080fd5b5080516020909101519093509150811561091c5761091a8389611234565b505b60019093019261086c565b50600198975050505050505050565b6000600160a060020a0383161515610998576040805160e560020a62461bcd02815260206004820152601560248201527f746f2073686f756c64206e6f74206265206e756c6c0000000000000000000000604482015290519081900360640190fd5b600160a060020a038416600090815260046020526040902054821115610a2e576040805160e560020a62461bcd02815260206004820152602160248201527f76616c75652073686f756c64206265206c657373207468616e2062616c616e6360448201527f6500000000000000000000000000000000000000000000000000000000000000606482015290519081900360840190fd5b600160a060020a0384166000908152600660209081526040808320338452909152902054821115610acf576040805160e560020a62461bcd02815260206004820152602360248201527f76616c75652073686f756c64206265206c657373207468616e20616c6c6f776160448201527f6e63650000000000000000000000000000000000000000000000000000000000606482015290519081900360840190fd5b600160a060020a0383166000908152600460205260409020600101541515610b5d57600160a060020a0383166000818152600460205260408120426001918201556005805491820181559091527f036b6384b5eca791c62761152d0c79bb0604c104a5fb6f4eb0703f3154bb3db001805473ffffffffffffffffffffffffffffffffffffffff191690911790555b600160a060020a038416600090815260046020526040902054610b86908363ffffffff611fc316565b600160a060020a038086166000908152600460205260408082209390935590851681522054610bbb908363ffffffff611fd516565b600160a060020a038085166000908152600460209081526040808320949094559187168152600682528281203382529091522054610bff908363ffffffff611fc316565b600160a060020a03808616600081815260066020908152604080832033845282529182902094909455805186815290519287169391926000805160206120f2833981519152929181900390910190a35060019392505050565b6000610c648484611487565b1515610cba576040805160e560020a62461bcd02815260206004820152600f60248201527f7472616e73666572206661696c65640000000000000000000000000000000000604482015290519081900360640190fd5b83600160a060020a031633600160a060020a03167f69cf42fddae119b7568ebaa1f70aac657fd6abd62d00c2ab4fcf81ff87935ab3846040518080602001828103825283818151815260200191508051906020019080838360005b83811015610d2d578181015183820152602001610d15565b50505050905090810190601f168015610d5a5780820380516001836020036101000a031916815260200191505b509250505060405180910390a35060019392505050565b600080600583815481101515610d8357fe5b600091825260208220015460058054600160a060020a0390921694506004929186908110610dad57fe5b6000918252602080832090910154600160a060020a03168352820192909252604001902054919391925050565b60035460ff1681565b60018054604080516020600284861615610100026000190190941693909304601f81018490048402820184019092528181529291830182828015610e685780601f10610e3d57610100808354040283529160200191610e68565b820191906000526020600020905b815481529060010190602001808311610e4b57829003601f168201915b505050505081565b60007f4d494e545f524f4c450000000000000000000000000000000000000000000000610e9d3382611c49565b610eb261075d61070e61071361070e86611d09565b901515610f045760405160e560020a62461bcd028152600401808060200182810382528381815181526020019150805190602001908083836000838110156107bc5781810151838201526020016107a4565b50600160a060020a0384166000908152600460205260409020600101541515610f9357600160a060020a0384166000818152600460205260408120426001918201556005805491820181559091527f036b6384b5eca791c62761152d0c79bb0604c104a5fb6f4eb0703f3154bb3db001805473ffffffffffffffffffffffffffffffffffffffff191690911790555b600754610fa6908463ffffffff611fd516565b600755600160a060020a038416600090815260046020526040902054610fd2908463ffffffff611fd516565b600160a060020a038516600081815260046020908152604091829020939093558051868152905191927f0f6798a560793a54c3bcfe86a93cde1e73087d944c0ea20544137d412139688592918290030190a2604080518481529051600160a060020a038616916000916000805160206120f28339815191529181900360200190a35060019392505050565b600054600160a060020a031681565b600160a060020a0381166000908152600460205260409020549091565b7f5550444154455f4d455441444154415f524f4c450000000000000000000000006110b43382611c49565b6110c961075d61070e61071361070e86611d09565b90151561111b5760405160e560020a62461bcd028152600401808060200182810382528381815181526020019150805190602001908083836000838110156107bc5781810151838201526020016107a4565b5061112582611fe8565b5050565b336000908152600660209081526040808320600160a060020a03861684529091528120548083111561117e57336000908152600660209081526040808320600160a060020a03881684529091528120556111b3565b61118e818463ffffffff611fc316565b336000908152600660209081526040808320600160a060020a03891684529091529020555b336000818152600660209081526040808320600160a060020a0389168085529083529281902054815190815290519293927f8c5be1e5ebec7d5bd14f71427d1e84f3dd0314c0f7b2291e5b200ac8c7c3b925929181900390910190a35060019392505050565b600160a060020a031660009081526004602052604090205490565b60007f4255524e5f524f4c4500000000000000000000000000000000000000000000006112613382611c49565b61127661075d61070e61071361070e86611d09565b9015156112c85760405160e560020a62461bcd028152600401808060200182810382528381815181526020019150805190602001908083836000838110156107bc5781810151838201526020016107a4565b5060008311611321576040805160e560020a62461bcd02815260206004820152601e60248201527f616d6f756e742068736f756c6420626520626967676572207468616e20300000604482015290519081900360640190fd5b600160a060020a0384166000908152600460205260409020548311156113b7576040805160e560020a62461bcd02815260206004820152602260248201527f616d6f756e742073686f756c64206265206c657373207468616e2062616c616e60448201527f6365000000000000000000000000000000000000000000000000000000000000606482015290519081900360840190fd5b600160a060020a0384166000908152600460205260409020546113e0908463ffffffff611fc316565b600160a060020a03851660009081526004602052604090205560075461140c908463ffffffff611fc316565b600755604080518481529051600160a060020a038616917fcc16f5dbb4873280815c1ee09dbd06736cffcc184412cf7a71a0fdb75d397ca5919081900360200190a2604080518481529051600091600160a060020a038716916000805160206120f28339815191529181900360200190a35060019392505050565b6000600160a060020a03831615156114e9576040805160e560020a62461bcd02815260206004820152601260248201527f746f2073686f756c64206e6f7420626520300000000000000000000000000000604482015290519081900360640190fd5b33600090815260046020526040902054821115611576576040805160e560020a62461bcd02815260206004820152602160248201527f76616c75652073686f756c64206265206c657373207468616e2062616c616e6360448201527f6500000000000000000000000000000000000000000000000000000000000000606482015290519081900360840190fd5b600160a060020a038316600090815260046020526040902060010154151561160457600160a060020a0383166000818152600460205260408120426001918201556005805491820181559091527f036b6384b5eca791c62761152d0c79bb0604c104a5fb6f4eb0703f3154bb3db001805473ffffffffffffffffffffffffffffffffffffffff191690911790555b33600090815260046020526040902054611624908363ffffffff611fc316565b3360009081526004602052604080822092909255600160a060020a03851681522054611656908363ffffffff611fd516565b600160a060020a0384166000818152600460209081526040918290209390935580518581529051919233926000805160206120f28339815191529281900390910190a350600192915050565b7f4255524e5f524f4c45000000000000000000000000000000000000000000000081565b60006116d28484610659565b151561174d576040805160e560020a62461bcd028152602060048201526024808201527f436f756c64206e6f7420617070726f766520616d6f756e7420666f722073706560448201527f6e64657200000000000000000000000000000000000000000000000000000000606482015290519081900360840190fd5b6040517f8f4ffcb10000000000000000000000000000000000000000000000000000000081523360048201818152602483018690523060448401819052608060648501908152865160848601528651600160a060020a038a1695638f4ffcb195948a94938a939192909160a490910190602085019080838360005b838110156117e05781810151838201526020016117c8565b50505050905090810190601f16801561180d5780820380516001836020036101000a031916815260200191505b5095505050505050600060405180830381600087803b15801561182f57600080fd5b505af1158015611843573d6000803e3d6000fd5b506001979650505050505050565b336000908152600660209081526040808320600160a060020a0386168452909152812054611885908363ffffffff611fd516565b336000818152600660209081526040808320600160a060020a0389168085529083529281902085905580519485525191937f8c5be1e5ebec7d5bd14f71427d1e84f3dd0314c0f7b2291e5b200ac8c7c3b925929081900390910190a350600192915050565b6000806000806000807f4d494e545f524f4c45000000000000000000000000000000000000000000000061191e3382611c49565b61193361075d61070e61071361070e86611d09565b9015156119855760405160e560020a62461bcd028152600401808060200182810382528381815181526020019150805190602001908083836000838110156107bc5781810151838201526020016107a4565b5088955085600160a060020a031663e1ba7d016040518163ffffffff1660e060020a028152600401602060405180830381600087803b1580156119c757600080fd5b505af11580156119db573d6000803e3d6000fd5b505050506040513d60208110156119f157600080fd5b50519450600093505b8484101561092757604080517f2d883a73000000000000000000000000000000000000000000000000000000008152600481018690528151600160a060020a03891692632d883a7392602480820193918290030181600087803b158015611a6057600080fd5b505af1158015611a74573d6000803e3d6000fd5b505050506040513d6040811015611a8a57600080fd5b50805160209091015190935091508115611aaa57611aa88389610e70565b505b6001909301926119fa565b600160a060020a03918216600090815260066020908152604080832093909416825291909152205490565b60055490565b7f4d494e545f524f4c45000000000000000000000000000000000000000000000081565b6000611b17858585610936565b1515611b6d576040805160e560020a62461bcd02815260206004820152600f60248201527f7472616e73666572206661696c65640000000000000000000000000000000000604482015290519081900360640190fd5b83600160a060020a031685600160a060020a03167f69cf42fddae119b7568ebaa1f70aac657fd6abd62d00c2ab4fcf81ff87935ab3846040518080602001828103825283818151815260200191508051906020019080838360005b83811015611be0578181015183820152602001611bc8565b50505050905090810190601f168015611c0d5780820380516001836020036101000a031916815260200191505b509250505060405180910390a3506001949350505050565b7f5550444154455f4d455441444154415f524f4c4500000000000000000000000081565b60008054600160a060020a03161580611d02575060008054604080517f6d6712d8000000000000000000000000000000000000000000000000000000008152600160a060020a0387811660048301523060248301526044820187905291519190921692636d6712d892606480820193602093909283900390910190829087803b158015611cd557600080fd5b505af1158015611ce9573d6000803e3d6000fd5b505050506040513d6020811015611cff57600080fd5b50515b9392505050565b6040805160208082528183019092526060918291600091829182918591908082016104008038833901905050945060009350600092505b6020831015611dcd576008830260020a870291507fff00000000000000000000000000000000000000000000000000000000000000821615611dc257818585815181101515611d8b57fe5b9060200101907effffffffffffffffffffffffffffffffffffffffffffffffffffffffffffff1916908160001a9053506001909301925b600190920191611d40565b836040519080825280601f01601f191660200182016040528015611dfb578160200160208202803883390190505b509050600092505b83831015611e75578483815181101515611e1957fe5b90602001015160f860020a900460f860020a028184815181101515611e3a57fe5b9060200101907effffffffffffffffffffffffffffffffffffffffffffffffffffffffffffff1916908160001a905350600190920191611e03565b9695505050505050565b611e8761203f565b50604080518082019091528151815260209182019181019190915290565b606080600083600001518560000151016040519080825280601f01601f191660200182016040528015611ee2578160200160208202803883390190505b509150602082019050611efe8186602001518760000151611ffb565b845160208501518551611f149284019190611ffb565b509392505050565b60408051601480825281830190925260609182916000916020820161028080388339019050509150600090505b6014811015611fbc578060130360080260020a84600160a060020a0316811515611f6f57fe5b0460f860020a028282815181101515611f8457fe5b9060200101907effffffffffffffffffffffffffffffffffffffffffffffffffffffffffffff1916908160001a905350600101611f49565b5092915050565b600082821115611fcf57fe5b50900390565b81810182811015611fe257fe5b92915050565b8051611125906001906020840190612056565b60005b60208210612020578251845260209384019390920191601f1990910190611ffe565b50905182516020929092036101000a6000190180199091169116179052565b604080518082019091526000808252602082015290565b828054600181600116156101000203166002900490600052602060002090601f016020900481019282601f1061209757805160ff19168380011785556120c4565b828001600101855582156120c4579182015b828111156120c45782518255916020019190600101906120a9565b506120d09291506120d4565b5090565b6120ee91905b808211156120d057600081556001016120da565b905600ddf252ad1be2c89b69c2b068fc378daa952ba7f163c4a11628f55a4df523b3efa165627a7a723058205f7555bd2e4ae3f2eff3cbc3dd0b57af7382d22b7d6f5e9a0c6d96703aff21d50029",
  "source": "pragma solidity ^0.4.24;\n\nimport \"@settlemint/solidity-mint/contracts/marketplaces/tokensystem/Token.sol\";\n\n\n/**\n * Contains the Local DTX token\n */\ncontract LocalDTXToken is Token {\n\n  constructor(\n    bytes32 _name,\n    uint8 _decimals,\n    address _gateKeeper\n  )\n    Token(\n      _name,\n      _decimals,\n      _gateKeeper\n    )\n    public\n  {}\n\n  function getIndexLength() public view returns (uint length) {\n    length = tokenHolders.length;\n  }\n\n  function getByIndex(uint index) public view returns (address key, uint256 balance) {\n    key = tokenHolders[index];\n    balance = balances[tokenHolders[index]].balance;\n  }\n\n  function getByKey(address _key) public view returns (address key, uint256 balance) {\n    key = _key;\n    balance = balances[_key].balance;\n  }\n\n}\n",
  "sourcePath": "/Users/peterjanbrone/databrokerdao/databrokerdao-dapi/contracts/token/LocalDTXToken.sol",
  "compiler": {
    "name": "solc",
    "version": "0.4.24+commit.e67f0147.Emscripten.clang"
  },
  "schemaVersion": "3.0.0-beta.0",
  "updatedAt": "2018-09-25T07:29:55.398Z"
}