{
  "contractName": "LocalDTXTokenRegistry",
  "abi": [
    {
      "constant": true,
      "inputs": [
        {
          "name": "index",
          "type": "uint256"
        }
      ],
      "name": "getByIndex",
      "outputs": [
        {
          "name": "key",
          "type": "bytes32"
        },
        {
          "name": "contractAddress",
          "type": "address"
        }
      ],
      "payable": false,
      "stateMutability": "view",
      "type": "function",
      "signature": "0x2d883a73"
    },
    {
      "constant": true,
      "inputs": [],
      "name": "metadata",
      "outputs": [
        {
          "name": "",
          "type": "string"
        }
      ],
      "payable": false,
      "stateMutability": "view",
      "type": "function",
      "signature": "0x392f37e9"
    },
    {
      "constant": true,
      "inputs": [],
      "name": "gateKeeper",
      "outputs": [
        {
          "name": "",
          "type": "address"
        }
      ],
      "payable": false,
      "stateMutability": "view",
      "type": "function",
      "signature": "0x45d61ded"
    },
    {
      "constant": true,
      "inputs": [
        {
          "name": "_key",
          "type": "bytes32"
        }
      ],
      "name": "getByKey",
      "outputs": [
        {
          "name": "key",
          "type": "bytes32"
        },
        {
          "name": "contractAddress",
          "type": "address"
        }
      ],
      "payable": false,
      "stateMutability": "view",
      "type": "function",
      "signature": "0x4a91da90"
    },
    {
      "constant": false,
      "inputs": [
        {
          "name": "ipfsHash",
          "type": "string"
        }
      ],
      "name": "updateMetaData",
      "outputs": [],
      "payable": false,
      "stateMutability": "nonpayable",
      "type": "function",
      "signature": "0x5cc07505"
    },
    {
      "constant": true,
      "inputs": [],
      "name": "LIST_TOKEN_ROLE",
      "outputs": [
        {
          "name": "",
          "type": "bytes32"
        }
      ],
      "payable": false,
      "stateMutability": "view",
      "type": "function",
      "signature": "0x8273871e"
    },
    {
      "constant": false,
      "inputs": [
        {
          "name": "_name",
          "type": "bytes32"
        },
        {
          "name": "_token",
          "type": "address"
        }
      ],
      "name": "addToken",
      "outputs": [],
      "payable": false,
      "stateMutability": "nonpayable",
      "type": "function",
      "signature": "0x9776aacf"
    },
    {
      "constant": true,
      "inputs": [],
      "name": "getIndexLength",
      "outputs": [
        {
          "name": "length",
          "type": "uint256"
        }
      ],
      "payable": false,
      "stateMutability": "view",
      "type": "function",
      "signature": "0xe1ba7d01"
    },
    {
      "constant": true,
      "inputs": [],
      "name": "UPDATE_METADATA_ROLE",
      "outputs": [
        {
          "name": "",
          "type": "bytes32"
        }
      ],
      "payable": false,
      "stateMutability": "view",
      "type": "function",
      "signature": "0xfff139cf"
    },
    {
      "inputs": [
        {
          "name": "_gateKeeper",
          "type": "address"
        }
      ],
      "payable": false,
      "stateMutability": "nonpayable",
      "type": "constructor",
      "signature": "constructor"
    }
  ],
  "bytecode": "0x608060405234801561001057600080fd5b50604051602080610ae6833981016040525160008054600160a060020a03909216600160a060020a0319909216919091179055610a94806100526000396000f3006080604052600436106100985763ffffffff7c01000000000000000000000000000000000000000000000000000000006000350416632d883a73811461009d578063392f37e9146100d657806345d61ded146101605780634a91da90146101915780635cc07505146101a95780638273871e146102045780639776aacf1461022b578063e1ba7d011461024f578063fff139cf14610264575b600080fd5b3480156100a957600080fd5b506100b5600435610279565b60408051928352600160a060020a0390911660208301528051918290030190f35b3480156100e257600080fd5b506100eb6102a7565b6040805160208082528351818301528351919283929083019185019080838360005b8381101561012557818101518382015260200161010d565b50505050905090810190601f1680156101525780820380516001836020036101000a031916815260200191505b509250505060405180910390f35b34801561016c57600080fd5b50610175610334565b60408051600160a060020a039092168252519081900360200190f35b34801561019d57600080fd5b506100b5600435610343565b3480156101b557600080fd5b506040805160206004803580820135601f81018490048402850184019095528484526102029436949293602493928401919081908401838280828437509497506103629650505050505050565b005b34801561021057600080fd5b50610219610379565b60408051918252519081900360200190f35b34801561023757600080fd5b50610202600435600160a060020a036024351661039d565b34801561025b57600080fd5b506102196105ce565b34801561027057600080fd5b506102196105d4565b60008061029e60038481548110151561028e57fe5b9060005260206000200154610343565b91509150915091565b60018054604080516020600284861615610100026000190190941693909304601f8101849004840282018401909252818152929183018282801561032c5780601f106103015761010080835404028352916020019161032c565b820191906000526020600020905b81548152906001019060200180831161030f57829003601f168201915b505050505081565b600054600160a060020a031681565b6000818152600260205260409020549091600160a060020a0390911690565b80516103759060019060208401906109b6565b5050565b7f4c4953545f544f4b454e5f524f4c45000000000000000000000000000000000081565b7f4c4953545f544f4b454e5f524f4c4500000000000000000000000000000000006103c833826105f8565b61043861042c6103dd6103e26103dd866106b8565b61082e565b6104206040805190810160405280601f81526020017f20646f206e6f7420686176652074686520636f727265637420726f6c653a200081525061082e565b9063ffffffff61085416565b6104206103dd336108cb565b9015156104dd576040517f08c379a00000000000000000000000000000000000000000000000000000000081526004018080602001828103825283818151815260200191508051906020019080838360005b838110156104a257818101518382015260200161048a565b50505050905090810190601f1680156104cf5780820380516001836020036101000a031916815260200191505b509250505060405180910390fd5b50600083815260026020526040902054600160a060020a03161561056257604080517f08c379a000000000000000000000000000000000000000000000000000000000815260206004820152601860248201527f6f6e6c792061636365707420756e69717565206e616d65730000000000000000604482015290519081900360640190fd5b506000828152600260205260408120805473ffffffffffffffffffffffffffffffffffffffff1916600160a060020a0393909316929092179091556003805460018101825591527fc2575a0e9e593c00f959f8c92f12db2869c3395a3b0502d05e2516446f71f85b0155565b60035490565b7f5550444154455f4d455441444154415f524f4c4500000000000000000000000081565b60008054600160a060020a031615806106b1575060008054604080517f6d6712d8000000000000000000000000000000000000000000000000000000008152600160a060020a0387811660048301523060248301526044820187905291519190921692636d6712d892606480820193602093909283900390910190829087803b15801561068457600080fd5b505af1158015610698573d6000803e3d6000fd5b505050506040513d60208110156106ae57600080fd5b50515b9392505050565b6040805160208082528183019092526060918291600091829182918591908082016104008038833901905050945060009350600092505b602083101561077c576008830260020a870291507fff000000000000000000000000000000000000000000000000000000000000008216156107715781858581518110151561073a57fe5b9060200101907effffffffffffffffffffffffffffffffffffffffffffffffffffffffffffff1916908160001a9053506001909301925b6001909201916106ef565b836040519080825280601f01601f1916602001820160405280156107aa578160200160208202803883390190505b509050600092505b838310156108245784838151811015156107c857fe5b90602001015160f860020a900460f860020a0281848151811015156107e957fe5b9060200101907effffffffffffffffffffffffffffffffffffffffffffffffffffffffffffff1916908160001a9053506001909201916107b2565b9695505050505050565b610836610a34565b50604080518082019091528151815260209182019181019190915290565b606080600083600001518560000151016040519080825280601f01601f191660200182016040528015610891578160200160208202803883390190505b5091506020820190506108ad8186602001518760000151610972565b8451602085015185516108c39284019190610972565b509392505050565b60408051601480825281830190925260609182916000916020820161028080388339019050509150600090505b601481101561096b578060130360080260020a84600160a060020a031681151561091e57fe5b0460f860020a02828281518110151561093357fe5b9060200101907effffffffffffffffffffffffffffffffffffffffffffffffffffffffffffff1916908160001a9053506001016108f8565b5092915050565b60005b60208210610997578251845260209384019390920191601f1990910190610975565b50905182516020929092036101000a6000190180199091169116179052565b828054600181600116156101000203166002900490600052602060002090601f016020900481019282601f106109f757805160ff1916838001178555610a24565b82800160010185558215610a24579182015b82811115610a24578251825591602001919060010190610a09565b50610a30929150610a4b565b5090565b604080518082019091526000808252602082015290565b610a6591905b80821115610a305760008155600101610a51565b905600a165627a7a72305820b175d0b22df092b5ae5ee8a01836fa904c664c69660d60c0ad8e5d05d552dc850029",
  "source": "pragma solidity ^0.4.24;\n\nimport \"@settlemint/solidity-mint/contracts/marketplaces/tokensystem/TokenRegistry.sol\";\n\n\n/**\n * Contains all the DTX tokens: in this case, there is only one\n */\ncontract LocalDTXTokenRegistry is TokenRegistry {\n\n  constructor(address _gateKeeper) public TokenRegistry(_gateKeeper) {}\n\n}\n",
  "sourcePath": "/Users/peterjanbrone/databrokerdao/databrokerdao-dapi/contracts/token/LocalDTXTokenRegistry.sol",
  "compiler": {
    "name": "solc",
    "version": "0.4.24+commit.e67f0147.Emscripten.clang"
  },
  "schemaVersion": "3.0.0-beta.0",
  "updatedAt": "2018-09-25T20:19:05.983Z"
}