{
  "contractName": "Purchase",
  "abi": [
    {
      "constant": true,
      "inputs": [],
      "name": "endTime",
      "outputs": [
        {
          "name": "",
          "type": "uint256"
        }
      ],
      "payable": false,
      "stateMutability": "view",
      "type": "function"
    },
    {
      "constant": true,
      "inputs": [],
      "name": "metadata",
      "outputs": [
        {
          "name": "",
          "type": "string"
        }
      ],
      "payable": false,
      "stateMutability": "view",
      "type": "function"
    },
    {
      "constant": true,
      "inputs": [],
      "name": "gateKeeper",
      "outputs": [
        {
          "name": "",
          "type": "address"
        }
      ],
      "payable": false,
      "stateMutability": "view",
      "type": "function"
    },
    {
      "constant": true,
      "inputs": [],
      "name": "purchaser",
      "outputs": [
        {
          "name": "",
          "type": "address"
        }
      ],
      "payable": false,
      "stateMutability": "view",
      "type": "function"
    },
    {
      "constant": true,
      "inputs": [],
      "name": "startTime",
      "outputs": [
        {
          "name": "",
          "type": "uint256"
        }
      ],
      "payable": false,
      "stateMutability": "view",
      "type": "function"
    },
    {
      "constant": true,
      "inputs": [],
      "name": "price",
      "outputs": [
        {
          "name": "",
          "type": "uint256"
        }
      ],
      "payable": false,
      "stateMutability": "view",
      "type": "function"
    },
    {
      "constant": true,
      "inputs": [],
      "name": "sensor",
      "outputs": [
        {
          "name": "",
          "type": "address"
        }
      ],
      "payable": false,
      "stateMutability": "view",
      "type": "function"
    },
    {
      "constant": true,
      "inputs": [],
      "name": "UPDATE_METADATA_ROLE",
      "outputs": [
        {
          "name": "",
          "type": "bytes32"
        }
      ],
      "payable": false,
      "stateMutability": "view",
      "type": "function"
    },
    {
      "inputs": [
        {
          "name": "_price",
          "type": "uint256"
        },
        {
          "name": "_startTime",
          "type": "uint256"
        },
        {
          "name": "_endTime",
          "type": "uint256"
        },
        {
          "name": "_purchaser",
          "type": "address"
        },
        {
          "name": "_sensor",
          "type": "address"
        },
        {
          "name": "_gateKeeper",
          "type": "address"
        }
      ],
      "payable": false,
      "stateMutability": "nonpayable",
      "type": "constructor"
    },
    {
      "constant": false,
      "inputs": [
        {
          "name": "ipfsHash",
          "type": "string"
        }
      ],
      "name": "updateMetaData",
      "outputs": [],
      "payable": false,
      "stateMutability": "nonpayable",
      "type": "function"
    }
  ],
  "bytecode": "0x608060405234801561001057600080fd5b5060405160c0806104ec83398101604090815281516020830151918301516060840151608085015160a09095015160008054600160a060020a03928316600160a060020a03199182161790915560029490945560039490945560049190915560058054918416918316919091179055600680549290931691161790556104518061009b6000396000f3006080604052600436106100985763ffffffff7c01000000000000000000000000000000000000000000000000000000006000350416633197cbb6811461009d578063392f37e9146100c457806345d61ded1461014e5780635a77dc461461018c5780635cc07505146101a157806378e97925146101fc578063a035b1fe14610211578063f57c34db14610226578063fff139cf1461023b575b600080fd5b3480156100a957600080fd5b506100b2610250565b60408051918252519081900360200190f35b3480156100d057600080fd5b506100d9610256565b6040805160208082528351818301528351919283929083019185019080838360005b838110156101135781810151838201526020016100fb565b50505050905090810190601f1680156101405780820380516001836020036101000a031916815260200191505b509250505060405180910390f35b34801561015a57600080fd5b506101636102e3565b6040805173ffffffffffffffffffffffffffffffffffffffff9092168252519081900360200190f35b34801561019857600080fd5b506101636102ff565b3480156101ad57600080fd5b506040805160206004803580820135601f81018490048402850184019095528484526101fa94369492936024939284019190819084018382808284375094975061031b9650505050505050565b005b34801561020857600080fd5b506100b2610327565b34801561021d57600080fd5b506100b261032d565b34801561023257600080fd5b50610163610333565b34801561024757600080fd5b506100b261034f565b60045481565b60018054604080516020600284861615610100026000190190941693909304601f810184900484028201840190925281815292918301828280156102db5780601f106102b0576101008083540402835291602001916102db565b820191906000526020600020905b8154815290600101906020018083116102be57829003601f168201915b505050505081565b60005473ffffffffffffffffffffffffffffffffffffffff1681565b60055473ffffffffffffffffffffffffffffffffffffffff1681565b61032481610373565b50565b60035481565b60025481565b60065473ffffffffffffffffffffffffffffffffffffffff1681565b7f5550444154455f4d455441444154415f524f4c4500000000000000000000000081565b805161038690600190602084019061038a565b5050565b828054600181600116156101000203166002900490600052602060002090601f016020900481019282601f106103cb57805160ff19168380011785556103f8565b828001600101855582156103f8579182015b828111156103f85782518255916020019190600101906103dd565b50610404929150610408565b5090565b61042291905b80821115610404576000815560010161040e565b905600a165627a7a7230582053017347337c7bfee7798bd3c42d586becd969fb8938adbddc88c71a011c7ffb0029",
  "source": "pragma solidity ^0.4.24;\n\nimport \"@settlemint/solidity-mint/contracts/authentication/Secured.sol\";\nimport \"@settlemint/solidity-mint/contracts/utility/syncing/Syncable.sol\";\nimport \"@settlemint/solidity-mint/contracts/utility/metadata/MetaDataContainer.sol\";\n\n\n/**\n * Contains one sensor purchase entity\n */\ncontract Purchase is Secured, MetaDataContainer {\n\n  uint public price; // price per second for which access was purchased\n  uint public startTime; // the time at which the purchaser will gain access to this sensor\n  uint public endTime; // the time at which the purchaser will lose access to this sensor\n  address public purchaser; // address of the user\n  address public sensor; // id of the sensor to which access was purchased\n\n  constructor(\n    uint _price,\n    uint _startTime,\n    uint _endTime,\n    address _purchaser,\n    address _sensor,\n    address _gateKeeper\n  )\n    public\n    Secured(_gateKeeper)\n  {\n    price = _price;\n    startTime = _startTime;\n    endTime = _endTime;\n    purchaser = _purchaser;\n    sensor = _sensor;\n  }\n\n  /**\n  * implementation of metadata methods\n  */\n  function updateMetaData(string ipfsHash) public {\n    super.updateMetaData(ipfsHash);\n  }\n}\n",
  "sourcePath": "/Users/peterjanbrone/databrokerdao/databrokerdao-dapi/contracts/purchase/Purchase.sol",
  "compiler": {
    "name": "solc",
    "version": "0.4.24+commit.e67f0147.Emscripten.clang"
  },
  "schemaVersion": "3.0.0-beta.0",
  "updatedAt": "2018-09-25T20:11:46.461Z"
}