{
  "contractName": "PurchaseRegistryDispatcher",
  "abi": [
    {
      "constant": true,
      "inputs": [],
      "name": "UPGRADE_CONTRACT",
      "outputs": [
        {
          "name": "",
          "type": "bytes32"
        }
      ],
      "payable": false,
      "stateMutability": "view",
      "type": "function",
      "signature": "0x17f82139"
    },
    {
      "constant": true,
      "inputs": [],
      "name": "CHANGE_SETTINGS_ROLE",
      "outputs": [
        {
          "name": "",
          "type": "bytes32"
        }
      ],
      "payable": false,
      "stateMutability": "view",
      "type": "function",
      "signature": "0x3426ddd5"
    },
    {
      "constant": true,
      "inputs": [],
      "name": "CREATE_PERMISSIONS_ROLE",
      "outputs": [
        {
          "name": "",
          "type": "bytes32"
        }
      ],
      "payable": false,
      "stateMutability": "view",
      "type": "function",
      "signature": "0x3d6ab68f"
    },
    {
      "constant": true,
      "inputs": [],
      "name": "gateKeeper",
      "outputs": [
        {
          "name": "",
          "type": "address"
        }
      ],
      "payable": false,
      "stateMutability": "view",
      "type": "function",
      "signature": "0x45d61ded"
    },
    {
      "constant": true,
      "inputs": [
        {
          "name": "",
          "type": "address"
        }
      ],
      "name": "purchases",
      "outputs": [
        {
          "name": "",
          "type": "address"
        }
      ],
      "payable": false,
      "stateMutability": "view",
      "type": "function",
      "signature": "0x842a77d3"
    },
    {
      "constant": true,
      "inputs": [
        {
          "name": "",
          "type": "uint256"
        }
      ],
      "name": "purchasesIndex",
      "outputs": [
        {
          "name": "",
          "type": "address"
        }
      ],
      "payable": false,
      "stateMutability": "view",
      "type": "function",
      "signature": "0xb8e52d87"
    },
    {
      "constant": true,
      "inputs": [],
      "name": "target",
      "outputs": [
        {
          "name": "",
          "type": "address"
        }
      ],
      "payable": false,
      "stateMutability": "view",
      "type": "function",
      "signature": "0xd4b83992"
    },
    {
      "constant": true,
      "inputs": [],
      "name": "token",
      "outputs": [
        {
          "name": "",
          "type": "address"
        }
      ],
      "payable": false,
      "stateMutability": "view",
      "type": "function",
      "signature": "0xfc0c546a"
    },
    {
      "inputs": [
        {
          "name": "_gateKeeper",
          "type": "address"
        },
        {
          "name": "_token",
          "type": "address"
        },
        {
          "name": "_sensorRegistry",
          "type": "address"
        }
      ],
      "payable": false,
      "stateMutability": "nonpayable",
      "type": "constructor",
      "signature": "constructor"
    },
    {
      "payable": false,
      "stateMutability": "nonpayable",
      "type": "fallback"
    },
    {
      "anonymous": false,
      "inputs": [
        {
          "indexed": false,
          "name": "originalTarget",
          "type": "address"
        },
        {
          "indexed": false,
          "name": "newTarget",
          "type": "address"
        }
      ],
      "name": "TargetChanged",
      "type": "event",
      "signature": "0x4d11d6210a5e807da812a693b5d341a870571b5fc31158172207a3d99c911ccd"
    },
    {
      "constant": false,
      "inputs": [
        {
          "name": "_target",
          "type": "address"
        }
      ],
      "name": "setTarget",
      "outputs": [],
      "payable": false,
      "stateMutability": "nonpayable",
      "type": "function",
      "signature": "0x776d1a01"
    }
  ],
  "bytecode": "0x6080604052600160065534801561001557600080fd5b5060405160608061090483398101604090815281516020830151919092015160008054600160a060020a0319908116600160a060020a0395861617825560048054821694861694909417909355600580549093169390911692909217905561088190819061008390396000f3006080604052600436106100985763ffffffff7c010000000000000000000000000000000000000000000000000000000060003504166317f8213981146100d35780633426ddd5146100fa5780633d6ab68f1461010f57806345d61ded14610124578063776d1a0114610155578063842a77d314610178578063b8e52d8714610199578063d4b83992146101b1578063fc0c546a146101c6575b3480156100a457600080fd5b506001546000803591600160a060020a03169036908037600080366000846127105a03f43d806000803e806000f35b3480156100df57600080fd5b506100e86101db565b60408051918252519081900360200190f35b34801561010657600080fd5b506100e86101ff565b34801561011b57600080fd5b506100e8610223565b34801561013057600080fd5b50610139610247565b60408051600160a060020a039092168252519081900360200190f35b34801561016157600080fd5b50610176600160a060020a0360043516610256565b005b34801561018457600080fd5b50610139600160a060020a0360043516610262565b3480156101a557600080fd5b5061013960043561027d565b3480156101bd57600080fd5b506101396102a5565b3480156101d257600080fd5b506101396102b4565b7f555047524144455f434f4e54524143540000000000000000000000000000000081565b7f4348414e47455f53455454494e47535f524f4c4500000000000000000000000081565b7f4352454154455f5045524d495353494f4e535f524f4c4500000000000000000081565b600054600160a060020a031681565b61025f816102c3565b50565b600260205260009081526040902054600160a060020a031681565b600380548290811061028b57fe5b600091825260209091200154600160a060020a0316905081565b600154600160a060020a031681565b600454600160a060020a031681565b61025f817f555047524144455f434f4e5452414354000000000000000000000000000000006102f23382610480565b61036261035661030761030c61030786610540565b6106b6565b61034a6040805190810160405280601f81526020017f20646f206e6f7420686176652074686520636f727265637420726f6c653a20008152506106b6565b9063ffffffff6106dc16565b61034a61030733610753565b901515610407576040517f08c379a00000000000000000000000000000000000000000000000000000000081526004018080602001828103825283818151815260200191508051906020019080838360005b838110156103cc5781810151838201526020016103b4565b50505050905090810190601f1680156103f95780820380516001836020036101000a031916815260200191505b509250505060405180910390fd5b5060015460408051600160a060020a039283168152918416602083015280517f4d11d6210a5e807da812a693b5d341a870571b5fc31158172207a3d99c911ccd9281900390910190a1506001805473ffffffffffffffffffffffffffffffffffffffff1916600160a060020a0392909216919091179055565b60008054600160a060020a03161580610539575060008054604080517f6d6712d8000000000000000000000000000000000000000000000000000000008152600160a060020a0387811660048301523060248301526044820187905291519190921692636d6712d892606480820193602093909283900390910190829087803b15801561050c57600080fd5b505af1158015610520573d6000803e3d6000fd5b505050506040513d602081101561053657600080fd5b50515b9392505050565b6040805160208082528183019092526060918291600091829182918591908082016104008038833901905050945060009350600092505b6020831015610604576008830260020a870291507fff000000000000000000000000000000000000000000000000000000000000008216156105f9578185858151811015156105c257fe5b9060200101907effffffffffffffffffffffffffffffffffffffffffffffffffffffffffffff1916908160001a9053506001909301925b600190920191610577565b836040519080825280601f01601f191660200182016040528015610632578160200160208202803883390190505b509050600092505b838310156106ac57848381518110151561065057fe5b90602001015160f860020a900460f860020a02818481518110151561067157fe5b9060200101907effffffffffffffffffffffffffffffffffffffffffffffffffffffffffffff1916908160001a90535060019092019161063a565b9695505050505050565b6106be61083e565b50604080518082019091528151815260209182019181019190915290565b606080600083600001518560000151016040519080825280601f01601f191660200182016040528015610719578160200160208202803883390190505b50915060208201905061073581866020015187600001516107fa565b84516020850151855161074b92840191906107fa565b509392505050565b60408051601480825281830190925260609182916000916020820161028080388339019050509150600090505b60148110156107f3578060130360080260020a84600160a060020a03168115156107a657fe5b0460f860020a0282828151811015156107bb57fe5b9060200101907effffffffffffffffffffffffffffffffffffffffffffffffffffffffffffff1916908160001a905350600101610780565b5092915050565b60005b6020821061081f578251845260209384019390920191601f19909101906107fd565b50905182516020929092036101000a6000190180199091169116179052565b6040805180820190915260008082526020820152905600a165627a7a72305820a0f087e1013b38a9700f539ea626d5bbb5611981d7788f0c3174bfeae4ed84d40029",
  "source": "pragma solidity ^0.4.24;\n\nimport \"@settlemint/solidity-mint/contracts/utility/upgrading/Dispatcher.sol\";\nimport \"../sensor/SensorRegistry.sol\";\nimport \"../token/LocalDTXToken.sol\";\nimport \"./Purchase.sol\";\n\n\n/**\n * Dispatches calls to the purchase registry\n */\ncontract PurchaseRegistryDispatcher is Dispatcher {\n\n  // Same state as contract it will refer to\n  bytes32 constant public CREATE_PERMISSIONS_ROLE = \"CREATE_PERMISSIONS_ROLE\";\n  bytes32 constant public CHANGE_SETTINGS_ROLE = \"CHANGE_SETTINGS_ROLE\";\n  mapping (address => Purchase) public purchases;\n  address[] public purchasesIndex;\n  LocalDTXToken public token;\n  SensorRegistry sensorRegistry;\n  uint salePercentage = 1;\n\n  constructor(\n    address _gateKeeper,\n    address _token,\n    address _sensorRegistry\n  )\n    public\n    Secured(_gateKeeper)\n  {\n    // State also needs to initialized!\n    token = LocalDTXToken(_token);\n    sensorRegistry = SensorRegistry(_sensorRegistry);\n  }\n\n  function setTarget(address _target) public {\n    super.setTarget(_target);\n  }\n}\n",
  "sourcePath": "/Users/peterjanbrone/databrokerdao/databrokerdao-dapi/contracts/purchase/PurchaseRegistryDispatcher.sol",
  "compiler": {
    "name": "solc",
    "version": "0.4.24+commit.e67f0147.Emscripten.clang"
  },
  "schemaVersion": "3.0.0-beta.0",
  "updatedAt": "2018-09-25T07:23:46.419Z"
}