{
  "contractName": "PurchaseRegistry",
  "abi": [
    {
      "constant": true,
      "inputs": [],
      "name": "CHANGE_SETTINGS_ROLE",
      "outputs": [
        {
          "name": "",
          "type": "bytes32"
        }
      ],
      "payable": false,
      "stateMutability": "view",
      "type": "function",
      "signature": "0x3426ddd5"
    },
    {
      "constant": true,
      "inputs": [],
      "name": "CREATE_PERMISSIONS_ROLE",
      "outputs": [
        {
          "name": "",
          "type": "bytes32"
        }
      ],
      "payable": false,
      "stateMutability": "view",
      "type": "function",
      "signature": "0x3d6ab68f"
    },
    {
      "constant": true,
      "inputs": [],
      "name": "gateKeeper",
      "outputs": [
        {
          "name": "",
          "type": "address"
        }
      ],
      "payable": false,
      "stateMutability": "view",
      "type": "function",
      "signature": "0x45d61ded"
    },
    {
      "constant": true,
      "inputs": [
        {
          "name": "",
          "type": "address"
        }
      ],
      "name": "purchases",
      "outputs": [
        {
          "name": "",
          "type": "address"
        }
      ],
      "payable": false,
      "stateMutability": "view",
      "type": "function",
      "signature": "0x842a77d3"
    },
    {
      "constant": true,
      "inputs": [
        {
          "name": "",
          "type": "uint256"
        }
      ],
      "name": "purchasesIndex",
      "outputs": [
        {
          "name": "",
          "type": "address"
        }
      ],
      "payable": false,
      "stateMutability": "view",
      "type": "function",
      "signature": "0xb8e52d87"
    },
    {
      "constant": true,
      "inputs": [],
      "name": "token",
      "outputs": [
        {
          "name": "",
          "type": "address"
        }
      ],
      "payable": false,
      "stateMutability": "view",
      "type": "function",
      "signature": "0xfc0c546a"
    },
    {
      "inputs": [
        {
          "name": "_gateKeeper",
          "type": "address"
        },
        {
          "name": "_token",
          "type": "address"
        },
        {
          "name": "_sensorRegistry",
          "type": "address"
        }
      ],
      "payable": false,
      "stateMutability": "nonpayable",
      "type": "constructor",
      "signature": "constructor"
    },
    {
      "anonymous": false,
      "inputs": [
        {
          "indexed": false,
          "name": "sensor",
          "type": "address"
        },
        {
          "indexed": false,
          "name": "user",
          "type": "address"
        },
        {
          "indexed": false,
          "name": "startTime",
          "type": "uint256"
        },
        {
          "indexed": false,
          "name": "endTime",
          "type": "uint256"
        },
        {
          "indexed": false,
          "name": "price",
          "type": "uint256"
        },
        {
          "indexed": false,
          "name": "purchase",
          "type": "address"
        }
      ],
      "name": "AccessPurchased",
      "type": "event",
      "signature": "0xa46fb31f0524729f82c7e370054d0f3ad832386ce8a7ecf09d7368594d30b305"
    },
    {
      "anonymous": false,
      "inputs": [
        {
          "indexed": false,
          "name": "value",
          "type": "uint256"
        }
      ],
      "name": "SalePercentageChanged",
      "type": "event",
      "signature": "0xd34e657b3ee017118fd2f0d6c68a6bb681b24ab59f0bb3f65768870a5bf9fbc1"
    },
    {
      "constant": false,
      "inputs": [
        {
          "name": "_sensor",
          "type": "address"
        },
        {
          "name": "_endTime",
          "type": "uint256"
        },
        {
          "name": "_metadata",
          "type": "string"
        }
      ],
      "name": "purchaseAccess",
      "outputs": [],
      "payable": false,
      "stateMutability": "nonpayable",
      "type": "function",
      "signature": "0xba41f3d4"
    },
    {
      "constant": false,
      "inputs": [
        {
          "name": "_salePercentage",
          "type": "uint256"
        }
      ],
      "name": "setSalePercentage",
      "outputs": [],
      "payable": false,
      "stateMutability": "nonpayable",
      "type": "function",
      "signature": "0x72cc9850"
    },
    {
      "constant": true,
      "inputs": [],
      "name": "getIndexLength",
      "outputs": [
        {
          "name": "length",
          "type": "uint256"
        }
      ],
      "payable": false,
      "stateMutability": "view",
      "type": "function",
      "signature": "0xe1ba7d01"
    },
    {
      "constant": true,
      "inputs": [
        {
          "name": "index",
          "type": "uint256"
        }
      ],
      "name": "getByIndex",
      "outputs": [
        {
          "name": "key",
          "type": "address"
        },
        {
          "name": "contractAddress",
          "type": "address"
        }
      ],
      "payable": false,
      "stateMutability": "view",
      "type": "function",
      "signature": "0x2d883a73"
    },
    {
      "constant": true,
      "inputs": [
        {
          "name": "_key",
          "type": "address"
        }
      ],
      "name": "getByKey",
      "outputs": [
        {
          "name": "key",
          "type": "address"
        },
        {
          "name": "contractAddress",
          "type": "address"
        }
      ],
      "payable": false,
      "stateMutability": "view",
      "type": "function",
      "signature": "0x49877038"
    }
  ],
  "bytecode": "0x6080604052600160055534801561001557600080fd5b506040516060806111fb83398101604090815281516020830151919092015160008054600160a060020a0319908116600160a060020a0395861617825560038054821694861694909417909355600480549093169390911692909217905561117890819061008390396000f3006080604052600436106100955763ffffffff60e060020a6000350416632d883a73811461009a5780633426ddd5146100d85780633d6ab68f146100ff57806345d61ded14610114578063498770381461014557806372cc985014610166578063842a77d314610180578063b8e52d87146101a1578063ba41f3d4146101b9578063e1ba7d0114610222578063fc0c546a14610237575b600080fd5b3480156100a657600080fd5b506100b260043561024c565b60408051600160a060020a03938416815291909216602082015281519081900390910190f35b3480156100e457600080fd5b506100ed610284565b60408051918252519081900360200190f35b34801561010b57600080fd5b506100ed6102a8565b34801561012057600080fd5b506101296102cc565b60408051600160a060020a039092168252519081900360200190f35b34801561015157600080fd5b506100b2600160a060020a03600435166102db565b34801561017257600080fd5b5061017e6004356102fb565b005b34801561018c57600080fd5b50610129600160a060020a03600435166103f5565b3480156101ad57600080fd5b50610129600435610410565b3480156101c557600080fd5b50604080516020600460443581810135601f810184900484028501840190955284845261017e948235600160a060020a03169460248035953695946064949201919081908401838280828437509497506104389650505050505050565b34801561022e57600080fd5b506100ed610b29565b34801561024357600080fd5b50610129610b2f565b60008061027b60028481548110151561026157fe5b600091825260209091200154600160a060020a03166102db565b91509150915091565b7f4348414e47455f53455454494e47535f524f4c4500000000000000000000000081565b7f4352454154455f5045524d495353494f4e535f524f4c4500000000000000000081565b600054600160a060020a031681565b600160a060020a0390811660009081526001602052604090205416908190565b7f4348414e47455f53455454494e47535f524f4c450000000000000000000000006103263382610b3e565b15156103b957604080517f08c379a000000000000000000000000000000000000000000000000000000000815260206004820152602160248201527f596f7520646f206e6f7420686176652074686520636f727265637420726f6c6560448201527f7300000000000000000000000000000000000000000000000000000000000000606482015290519081900360840190fd5b60058290556040805183815290517fd34e657b3ee017118fd2f0d6c68a6bb681b24ab59f0bb3f65768870a5bf9fbc19181900360200190a15050565b600160205260009081526040902054600160a060020a031681565b600280548290811061041e57fe5b600091825260209091200154600160a060020a0316905081565b6000428180808615156104b95787600160a060020a031663a035b1fe6040518163ffffffff1660e060020a028152600401602060405180830381600087803b15801561048357600080fd5b505af1158015610497573d6000803e3d6000fd5b505050506040513d60208110156104ad57600080fd5b50519450849250610548565b87600160a060020a031663a035b1fe6040518163ffffffff1660e060020a028152600401602060405180830381600087803b1580156104f757600080fd5b505af115801561050b573d6000803e3d6000fd5b505050506040513d602081101561052157600080fd5b50519450610545610538888663ffffffff610c0016565b869063ffffffff610c1216565b92505b60055461056d9061056090606463ffffffff610c3b16565b849063ffffffff610c1216565b9150600360009054906101000a9004600160a060020a0316600160a060020a03166323b872dd338a600160a060020a0316638da5cb5b6040518163ffffffff1660e060020a028152600401602060405180830381600087803b1580156105d257600080fd5b505af11580156105e6573d6000803e3d6000fd5b505050506040513d60208110156105fc57600080fd5b505161060e878763ffffffff610c0016565b6040805160e060020a63ffffffff8716028152600160a060020a0394851660048201529290931660248301526044820152905160648083019260209291908290030181600087803b15801561066257600080fd5b505af1158015610676573d6000803e3d6000fd5b505050506040513d602081101561068c57600080fd5b5051151561072157604080517f08c379a000000000000000000000000000000000000000000000000000000000815260206004820152603860248201527f546865207472616e73666572206f66207468652044545820746f6b656e20746f60448201527f207468652073656e736f72206f776e6572206661696c65640000000000000000606482015290519081900360840190fd5b600354604080517f23b872dd000000000000000000000000000000000000000000000000000000008152336004820152306024820152604481018590529051600160a060020a03909216916323b872dd916064808201926020929091908290030181600087803b15801561079457600080fd5b505af11580156107a8573d6000803e3d6000fd5b505050506040513d60208110156107be57600080fd5b5051151561085357604080517f08c379a000000000000000000000000000000000000000000000000000000000815260206004820152603560248201527f546865207472616e73666572206f66207468652044545820746f6b656e20746f60448201527f204461746142726f6b657244414f206661696c65640000000000000000000000606482015290519081900360840190fd5b60005485908590899033908c90600160a060020a0316610871610c50565b9586526020860194909452604080860193909352600160a060020a039182166060860152811660808501529190911660a0830152519081900360c001906000f0801580156108c3573d6000803e3d6000fd5b5060008054604080517fbe0384780000000000000000000000000000000000000000000000000000000081523360048201819052600160a060020a0380871660248401527f5550444154455f4d455441444154415f524f4c4500000000000000000000000060448401526064830191909152915194955091169263be0384789260848084019391929182900301818387803b15801561096157600080fd5b505af1158015610975573d6000803e3d6000fd5b50506040517f5cc075050000000000000000000000000000000000000000000000000000000081526020600482018181528a5160248401528a51600160a060020a0387169550635cc0750594508b9391928392604401919085019080838360005b838110156109ee5781810151838201526020016109d6565b50505050905090810190601f168015610a1b5780820380516001836020036101000a031916815260200191505b5092505050600060405180830381600087803b158015610a3a57600080fd5b505af1158015610a4e573d6000803e3d6000fd5b505050600160a060020a038083166000818152600160208181526040808420805473ffffffffffffffffffffffffffffffffffffffff1990811687179091556002805494850181559094527f405787fa12a823e0f2b7631cc41b3ba8828b3321ca811111fa75cd3aa3bb5ace909201805490931684179092558051938d1684523391840191909152828101889052606083018b90526080830187905260a0830191909152517fa46fb31f0524729f82c7e370054d0f3ad832386ce8a7ecf09d7368594d30b30592509081900360c00190a15050505050505050565b60025490565b600354600160a060020a031681565b60008054600160a060020a03161580610bf7575060008054604080517f6d6712d8000000000000000000000000000000000000000000000000000000008152600160a060020a0387811660048301523060248301526044820187905291519190921692636d6712d892606480820193602093909283900390910190829087803b158015610bca57600080fd5b505af1158015610bde573d6000803e3d6000fd5b505050506040513d6020811015610bf457600080fd5b50515b90505b92915050565b600082821115610c0c57fe5b50900390565b6000821515610c2357506000610bfa565b50818102818382811515610c3357fe5b0414610bfa57fe5b60008183811515610c4857fe5b049392505050565b6040516104ec80610c61833901905600608060405234801561001057600080fd5b5060405160c0806104ec83398101604090815281516020830151918301516060840151608085015160a09095015160008054600160a060020a03928316600160a060020a03199182161790915560029490945560039490945560049190915560058054918416918316919091179055600680549290931691161790556104518061009b6000396000f3006080604052600436106100985763ffffffff7c01000000000000000000000000000000000000000000000000000000006000350416633197cbb6811461009d578063392f37e9146100c457806345d61ded1461014e5780635a77dc461461018c5780635cc07505146101a157806378e97925146101fc578063a035b1fe14610211578063f57c34db14610226578063fff139cf1461023b575b600080fd5b3480156100a957600080fd5b506100b2610250565b60408051918252519081900360200190f35b3480156100d057600080fd5b506100d9610256565b6040805160208082528351818301528351919283929083019185019080838360005b838110156101135781810151838201526020016100fb565b50505050905090810190601f1680156101405780820380516001836020036101000a031916815260200191505b509250505060405180910390f35b34801561015a57600080fd5b506101636102e3565b6040805173ffffffffffffffffffffffffffffffffffffffff9092168252519081900360200190f35b34801561019857600080fd5b506101636102ff565b3480156101ad57600080fd5b506040805160206004803580820135601f81018490048402850184019095528484526101fa94369492936024939284019190819084018382808284375094975061031b9650505050505050565b005b34801561020857600080fd5b506100b2610327565b34801561021d57600080fd5b506100b261032d565b34801561023257600080fd5b50610163610333565b34801561024757600080fd5b506100b261034f565b60045481565b60018054604080516020600284861615610100026000190190941693909304601f810184900484028201840190925281815292918301828280156102db5780601f106102b0576101008083540402835291602001916102db565b820191906000526020600020905b8154815290600101906020018083116102be57829003601f168201915b505050505081565b60005473ffffffffffffffffffffffffffffffffffffffff1681565b60055473ffffffffffffffffffffffffffffffffffffffff1681565b61032481610373565b50565b60035481565b60025481565b60065473ffffffffffffffffffffffffffffffffffffffff1681565b7f5550444154455f4d455441444154415f524f4c4500000000000000000000000081565b805161038690600190602084019061038a565b5050565b828054600181600116156101000203166002900490600052602060002090601f016020900481019282601f106103cb57805160ff19168380011785556103f8565b828001600101855582156103f8579182015b828111156103f85782518255916020019190600101906103dd565b50610404929150610408565b5090565b61042291905b80821115610404576000815560010161040e565b905600a165627a7a723058208cf0fe8caa3e69d538ccae2f1e0f5659e1c0b8c5a251dfce579a6056906d53d60029a165627a7a72305820ef7e2df4076f416c818ef5da0e7eb3ad8e61bb5b3549befb594bde984318136c0029",
  "source": "pragma solidity ^0.4.24;\n\nimport \"./Purchase.sol\";\nimport \"../sensor/Sensor.sol\";\nimport \"../sensor/SensorRegistry.sol\";\nimport \"../token/LocalDTXToken.sol\";\nimport \"@settlemint/solidity-mint/contracts/authentication/Secured.sol\";\nimport \"@settlemint/solidity-mint/contracts/authentication/GateKeeper.sol\";\nimport \"@settlemint/solidity-mint/contracts/utility/syncing/Syncable.sol\";\n\n\n\n/**\n * Contains all purchases of sensors\n */\ncontract PurchaseRegistry is Secured, Syncable {\n  using SafeMath for uint256;\n\n  bytes32 constant public CREATE_PERMISSIONS_ROLE = \"CREATE_PERMISSIONS_ROLE\";\n  bytes32 constant public CHANGE_SETTINGS_ROLE = \"CHANGE_SETTINGS_ROLE\";\n\n  event AccessPurchased(address sensor, address user, uint startTime, uint endTime, uint price, address purchase);\n  event SalePercentageChanged(uint value);\n\n  mapping (address => Purchase) public purchases;\n  address[] public purchasesIndex;\n\n  LocalDTXToken public token;\n  SensorRegistry sensorRegistry;\n  uint salePercentage = 1;\n\n  /**\n  @dev Contructor\n  @notice                Sets the address for token\n  @param _gateKeeper     Address of the gatekeeper\n  @param _token          Address of the token\n  */\n  constructor(\n    address _gateKeeper,\n    address _token,\n    address _sensorRegistry\n  )\n    Secured(_gateKeeper)\n    public\n  {\n    token = LocalDTXToken(_token);\n    sensorRegistry = SensorRegistry(_sensorRegistry);\n  }\n\n  /**\n  @notice               Lets the sender buy access to the sensor\n  @param _sensor        Id of the listing\n  @param _endTime       Timestamp of when the user will stop receiving sensor readings in seconds (not milliseconds!)\n  */\n  function purchaseAccess(address _sensor, uint _endTime, string _metadata) public {\n    // Calculate total cost for the user.\n    // If endtime is 0, the purchase is forever, and the price is just the price as listed.\n    uint _sensorPricePerSecond;\n    uint _startTime = now;\n    uint _sensorPrice;\n    if (_endTime == 0) {\n      _sensorPricePerSecond = Sensor(_sensor).price();\n      _sensorPrice = _sensorPricePerSecond;\n    } else {\n      _sensorPricePerSecond = Sensor(_sensor).price();\n      _sensorPrice = _sensorPricePerSecond.mul(_endTime.sub(_startTime));\n    }\n\n    // Pay out:\n    uint _salePercentage = _sensorPrice.mul(salePercentage.div(100));\n\n    // Sensor owner\n    require(\n      token.transferFrom(msg.sender,Sensor(_sensor).owner(),_sensorPrice.sub(_salePercentage)),\n      \"The transfer of the DTX token to the sensor owner failed\"\n    );\n\n    // DBDAO\n    require(\n      token.transferFrom(msg.sender, this, _salePercentage),\n      \"The transfer of the DTX token to DataBrokerDAO failed\"\n    );\n\n    // Create purchase\n    Purchase _purchase = new Purchase(\n      _sensorPricePerSecond,\n      _startTime,\n      _endTime,\n      msg.sender,\n      _sensor,\n      address(gateKeeper)\n    );\n\n    // Metadata role\n    gateKeeper.createPermission(\n      msg.sender,\n      address(_purchase),\n      bytes32(\"UPDATE_METADATA_ROLE\"),\n      msg.sender\n    );\n\n    // Add metadata\n    _purchase.updateMetaData(_metadata);\n\n    // Push to mapping\n    purchases[address(_purchase)] = Purchase(address(_purchase));\n    purchasesIndex.push(address(_purchase));\n\n    emit AccessPurchased(\n      _sensor,\n      msg.sender,\n      _startTime,\n      _endTime,\n      _sensorPrice,\n      address(_purchase)\n    );\n  }\n\n  /**\n  @notice                Sets the sale percentage\n  @param _salePercentage salePercentage\n  */\n  function setSalePercentage(uint _salePercentage) public auth(CHANGE_SETTINGS_ROLE) {\n    salePercentage = _salePercentage;\n    emit SalePercentageChanged(_salePercentage);\n  }\n\n  /**\n  * implementation of syncable methods\n  */\n  function getIndexLength() public view returns (uint length) {\n    length = purchasesIndex.length;\n  }\n\n  function getByIndex(uint index) public view returns (address key, address contractAddress) {\n    return getByKey(purchasesIndex[index]);\n  }\n\n  function getByKey(address _key) public view returns (address key, address contractAddress) {\n    key = address(purchases[_key]);\n    contractAddress = address(purchases[_key]);\n  }\n}\n",
  "sourcePath": "/Users/peterjanbrone/databrokerdao/databrokerdao-dapi/contracts/purchase/PurchaseRegistry.sol",
  "compiler": {
    "name": "solc",
    "version": "0.4.24+commit.e67f0147.Emscripten.clang"
  },
  "schemaVersion": "3.0.0-beta.0",
  "updatedAt": "2018-09-12T09:21:25.427Z"
}