{
  "contractName": "RoleRegistry",
  "abi": [
    {
      "constant": true,
      "inputs": [],
      "name": "DESIGNATE_ROLE",
      "outputs": [
        {
          "name": "",
          "type": "bytes32"
        }
      ],
      "payable": false,
      "stateMutability": "view",
      "type": "function"
    },
    {
      "constant": true,
      "inputs": [],
      "name": "gateKeeper",
      "outputs": [
        {
          "name": "",
          "type": "address"
        }
      ],
      "payable": false,
      "stateMutability": "view",
      "type": "function"
    },
    {
      "inputs": [
        {
          "name": "_gateKeeper",
          "type": "address"
        }
      ],
      "payable": false,
      "stateMutability": "nonpayable",
      "type": "constructor"
    },
    {
      "anonymous": false,
      "inputs": [
        {
          "indexed": false,
          "name": "_address",
          "type": "address"
        }
      ],
      "name": "Designated",
      "type": "event"
    },
    {
      "anonymous": false,
      "inputs": [
        {
          "indexed": false,
          "name": "_address",
          "type": "address"
        }
      ],
      "name": "Discharged",
      "type": "event"
    },
    {
      "anonymous": false,
      "inputs": [
        {
          "indexed": false,
          "name": "_address",
          "type": "address"
        }
      ],
      "name": "RoleRegistryCreated",
      "type": "event"
    },
    {
      "constant": true,
      "inputs": [
        {
          "name": "_address",
          "type": "address"
        }
      ],
      "name": "hasRole",
      "outputs": [
        {
          "name": "hasTheRole",
          "type": "bool"
        }
      ],
      "payable": false,
      "stateMutability": "view",
      "type": "function"
    },
    {
      "constant": false,
      "inputs": [
        {
          "name": "_address",
          "type": "address"
        }
      ],
      "name": "designate",
      "outputs": [],
      "payable": false,
      "stateMutability": "nonpayable",
      "type": "function"
    },
    {
      "constant": false,
      "inputs": [
        {
          "name": "_address",
          "type": "address"
        }
      ],
      "name": "discharge",
      "outputs": [],
      "payable": false,
      "stateMutability": "nonpayable",
      "type": "function"
    },
    {
      "constant": true,
      "inputs": [],
      "name": "getIndexLength",
      "outputs": [
        {
          "name": "length",
          "type": "uint256"
        }
      ],
      "payable": false,
      "stateMutability": "view",
      "type": "function"
    },
    {
      "constant": true,
      "inputs": [
        {
          "name": "_index",
          "type": "uint256"
        }
      ],
      "name": "getByIndex",
      "outputs": [
        {
          "name": "key",
          "type": "address"
        },
        {
          "name": "hasTheRole",
          "type": "bool"
        }
      ],
      "payable": false,
      "stateMutability": "view",
      "type": "function"
    },
    {
      "constant": true,
      "inputs": [
        {
          "name": "_key",
          "type": "address"
        }
      ],
      "name": "getByKey",
      "outputs": [
        {
          "name": "key",
          "type": "address"
        },
        {
          "name": "hasTheRole",
          "type": "bool"
        }
      ],
      "payable": false,
      "stateMutability": "view",
      "type": "function"
    }
  ],
  "bytecode": "0x608060405234801561001057600080fd5b50604051602080610773833981016040818152915160008054600160a060020a031916600160a060020a03831617905530825291517fe1024fd8985d06ce8c9f997f972a1260bbbb007e7f7496825505aff3b18165e9916020908290030190a1506106f3806100806000396000f30060806040526004361061008d5763ffffffff7c01000000000000000000000000000000000000000000000000000000006000350416630231853a81146100925780630a7519a3146100b55780632d883a73146100dc578063453416921461011757806345d61ded1461013857806349877038146101695780637ef09bca1461018a578063e1ba7d01146101bf575b600080fd5b34801561009e57600080fd5b506100b3600160a060020a03600435166101d4565b005b3480156100c157600080fd5b506100ca610378565b60408051918252519081900360200190f35b3480156100e857600080fd5b506100f460043561039c565b60408051600160a060020a03909316835290151560208301528051918290030190f35b34801561012357600080fd5b506100b3600160a060020a0360043516610409565b34801561014457600080fd5b5061014d6105b1565b60408051600160a060020a039092168252519081900360200190f35b34801561017557600080fd5b506100f4600160a060020a03600435166105c0565b34801561019657600080fd5b506101ab600160a060020a03600435166105e3565b604080519115158252519081900360200190f35b3480156101cb57600080fd5b506100ca610601565b7f44455349474e4154455f524f4c450000000000000000000000000000000000006101ff3382610607565b151561029257604080517f08c379a000000000000000000000000000000000000000000000000000000000815260206004820152602160248201527f596f7520646f206e6f7420686176652074686520636f727265637420726f6c6560448201527f7300000000000000000000000000000000000000000000000000000000000000606482015290519081900360840190fd5b600160a060020a03821660009081526001602081905260409091200154151561031f576002805460018082019092557f405787fa12a823e0f2b7631cc41b3ba8828b3321ca811111fa75cd3aa3bb5ace01805473ffffffffffffffffffffffffffffffffffffffff1916600160a060020a0385169081179091556000908152602082905260409020429101555b600160a060020a038216600081815260016020908152604091829020805460ff19169055815192835290517fa918a014a3cc4d384620aab101a9de9a018850704254ab6ce288864db9abd98b9281900390910190a15050565b7f44455349474e4154455f524f4c4500000000000000000000000000000000000081565b6000806002838154811015156103ae57fe5b600091825260208220015460028054600160a060020a03909216945060019291869081106103d857fe5b6000918252602080832090910154600160a060020a03168352820192909252604001902054919360ff909216925050565b7f44455349474e4154455f524f4c450000000000000000000000000000000000006104343382610607565b15156104c757604080517f08c379a000000000000000000000000000000000000000000000000000000000815260206004820152602160248201527f596f7520646f206e6f7420686176652074686520636f727265637420726f6c6560448201527f7300000000000000000000000000000000000000000000000000000000000000606482015290519081900360840190fd5b600160a060020a038216600090815260016020819052604090912001541515610554576002805460018082019092557f405787fa12a823e0f2b7631cc41b3ba8828b3321ca811111fa75cd3aa3bb5ace01805473ffffffffffffffffffffffffffffffffffffffff1916600160a060020a0385169081179091556000908152602082905260409020429101555b600160a060020a038216600081815260016020818152604092839020805460ff1916909217909155815192835290517f6a7971839356e91af1f994a516a95eac2d3583cb6ba16b104843fcc927d77dae9281900390910190a15050565b600054600160a060020a031681565b600160a060020a038116600090815260016020526040902054909160ff90911690565b600160a060020a031660009081526001602052604090205460ff1690565b60025490565b60008054600160a060020a031615806106c0575060008054604080517f6d6712d8000000000000000000000000000000000000000000000000000000008152600160a060020a0387811660048301523060248301526044820187905291519190921692636d6712d892606480820193602093909283900390910190829087803b15801561069357600080fd5b505af11580156106a7573d6000803e3d6000fd5b505050506040513d60208110156106bd57600080fd5b50515b93925050505600a165627a7a72305820a1e13a60931e688fc33b8e3331a071281f5bbb97c026d7ab66b4263b5fe22c000029",
  "source": "pragma solidity ^0.4.24;\n\nimport \"./interfaces/IRoleRegistry.sol\";\nimport \"./Secured.sol\";\nimport \"../utility/syncing/Syncable.sol\";\n\n\n/**\n * @title RoleRegistry\n * @dev The RoleRegistry contract defines the methods and data structures to\n * record if addresses have certain roles or not.\n */\ncontract RoleRegistry is IRoleRegistry, Syncable, Secured {\n\n  bytes32 constant public DESIGNATE_ROLE = bytes32(\"DESIGNATE_ROLE\");\n\n  struct RoleHolderContainer {\n    bool roleDesignated;\n    uint256 creationDate;\n  }\n  mapping(address => RoleHolderContainer) private roleHolders;\n  address[] private roleHoldersIndex;\n\n  event Designated(address _address);\n  event Discharged(address _address);\n  event RoleRegistryCreated(address _address);\n\n  constructor(address _gateKeeper) Secured(_gateKeeper) public {\n    emit RoleRegistryCreated(this);\n  }\n\n  /**\n   * @dev Checks if an address has a certain role\n   * @param _address The address to check for the role.\n   * @return A boolean that is True if the address has the role.\n   */\n  function hasRole(address _address) public view returns (bool hasTheRole) {\n    hasTheRole = roleHolders[_address].roleDesignated;\n  }\n\n  /**\n   * @dev Gives the role to an address\n   * @param _address The address to designate the role to.\n   */\n  function designate(address _address) public auth(DESIGNATE_ROLE) {\n    if (roleHolders[_address].creationDate == 0) {\n      roleHoldersIndex.push(_address);\n      roleHolders[_address].creationDate = now;\n    }\n    roleHolders[_address].roleDesignated = true;\n    emit Designated(_address);\n  }\n\n  /**\n   * @dev Removes the role from an address\n   * @param _address The address to discharge fromn the role.\n   */\n  function discharge(address _address) public auth(DESIGNATE_ROLE) {\n    if (roleHolders[_address].creationDate == 0) {\n      roleHoldersIndex.push(_address);\n      roleHolders[_address].creationDate = now;\n    }\n    roleHolders[_address].roleDesignated = false;\n    emit Discharged(_address);\n  }\n\n  /**\n   * @dev Returns the length of the index array\n   * @return the amount of items in the index array\n   */\n  function getIndexLength() public view returns (uint length) {\n    length = roleHoldersIndex.length;\n  }\n\n  /**\n   * @dev Returns the information for the key on a certain index\n   * @param _index The index of the key in the key array\n   * @return the information for the key on a certain index\n   */\n  function getByIndex(uint _index) public view returns (address key, bool hasTheRole) {\n    key = roleHoldersIndex[_index];\n    hasTheRole = roleHolders[roleHoldersIndex[_index]].roleDesignated;\n  }\n\n  /**\n   * @dev Returns the information for the key\n   * @param _key The key to get the info for\n   * @return the information for the key\n   */\n  function getByKey(address _key) public view returns (address key, bool hasTheRole) {\n    key = _key;\n    hasTheRole = roleHolders[_key].roleDesignated;\n  }\n\n}\n",
  "sourcePath": "@settlemint/solidity-mint/contracts/authentication/RoleRegistry.sol",
  "compiler": {
    "name": "solc",
    "version": "0.4.24+commit.e67f0147.Emscripten.clang"
  },
  "schemaVersion": "3.0.0-beta.0",
  "updatedAt": "2018-09-03T08:50:22.795Z"
}