{
  "contractName": "Secured",
  "abi": [
    {
      "constant": true,
      "inputs": [],
      "name": "gateKeeper",
      "outputs": [
        {
          "name": "",
          "type": "address"
        }
      ],
      "payable": false,
      "stateMutability": "view",
      "type": "function"
    },
    {
      "inputs": [
        {
          "name": "_gateKeeper",
          "type": "address"
        }
      ],
      "payable": false,
      "stateMutability": "nonpayable",
      "type": "constructor"
    }
  ],
  "bytecode": "0x608060405234801561001057600080fd5b50604051602080610117833981016040525160008054600160a060020a03909216600160a060020a031990921691909117905560c6806100516000396000f300608060405260043610603e5763ffffffff7c010000000000000000000000000000000000000000000000000000000060003504166345d61ded81146043575b600080fd5b348015604e57600080fd5b506055607e565b6040805173ffffffffffffffffffffffffffffffffffffffff9092168252519081900360200190f35b60005473ffffffffffffffffffffffffffffffffffffffff16815600a165627a7a7230582059f371cafcf6c6ed2849c40673d1135eef904ae0cdc00e424dd504669eeb6e600029",
  "source": "pragma solidity ^0.4.24;\n\nimport \"./GateKeeper.sol\";\nimport \"../external/strings.sol\";\nimport \"../utility/conversions/Converter.sol\";\n\n\ncontract Secured is Converter {\n  using strings for *;\n\n  GateKeeper public gateKeeper;\n\n  modifier auth(bytes32 _role) {\n    require(\n      canPerform(msg.sender, _role),\n      addressToString(msg.sender).toSlice().concat(\" do not have the correct role: \".toSlice().concat(bytes32ToString(_role).toSlice()).toSlice()));\n    _;\n  }\n\n  constructor(address _gateKeeper) public {\n    gateKeeper = GateKeeper(_gateKeeper);\n  }\n\n  function canPerform(address _sender, bytes32 _role) internal view returns (bool) {\n    return address(gateKeeper) == 0 || gateKeeper.hasPermission(_sender, address(this), _role);\n  }\n\n}\n",
  "sourcePath": "@settlemint/solidity-mint/contracts/authentication/Secured.sol",
  "compiler": {
    "name": "solc",
    "version": "0.4.24+commit.e67f0147.Emscripten.clang"
  },
  "schemaVersion": "3.0.0-beta.0",
  "updatedAt": "2018-09-25T20:11:46.470Z"
}