{
  "contractName": "SensorFactory",
  "abi": [
    {
      "constant": true,
      "inputs": [],
      "name": "gateKeeper",
      "outputs": [
        {
          "name": "",
          "type": "address"
        }
      ],
      "payable": false,
      "stateMutability": "view",
      "type": "function",
      "signature": "0x45d61ded"
    },
    {
      "inputs": [
        {
          "name": "_gateKeeper",
          "type": "address"
        }
      ],
      "payable": false,
      "stateMutability": "nonpayable",
      "type": "constructor",
      "signature": "constructor"
    },
    {
      "anonymous": false,
      "inputs": [
        {
          "indexed": false,
          "name": "_address",
          "type": "address"
        }
      ],
      "name": "ListingAdded",
      "type": "event",
      "signature": "0xeb7555f6c91aac4537f67b183de21d3eb9382b081cd7b22b4d9c6669e60e042e"
    },
    {
      "constant": false,
      "inputs": [
        {
          "name": "_owner",
          "type": "address"
        },
        {
          "name": "_price",
          "type": "uint256"
        },
        {
          "name": "_stakeAmount",
          "type": "uint256"
        },
        {
          "name": "_tcr",
          "type": "address"
        },
        {
          "name": "_metadata",
          "type": "string"
        }
      ],
      "name": "createListing",
      "outputs": [],
      "payable": false,
      "stateMutability": "nonpayable",
      "type": "function",
      "signature": "0x35012d7e"
    }
  ],
  "bytecode": "0x608060405234801561001057600080fd5b5060405160208061122a833981016040525160008054600160a060020a03909216600160a060020a03199092169190911790556111d8806100526000396000f30060806040526004361061004b5763ffffffff7c010000000000000000000000000000000000000000000000000000000060003504166335012d7e811461005057806345d61ded146100c8575b600080fd5b34801561005c57600080fd5b50604080516020600460843581810135601f81018490048402850184019095528484526100c6948235600160a060020a039081169560248035966044359660643590941695369560a494939091019181908401838280828437509497506100f99650505050505050565b005b3480156100d457600080fd5b506100dd610382565b60408051600160a060020a039092168252519081900360200190f35b600080548190879087908790600160a060020a0316610116610391565b600160a060020a03948516815260208101939093526040808401929092529092166060820152905190819003608001906000f08015801561015b573d6000803e3d6000fd5b5060008054604080517fbe0384780000000000000000000000000000000000000000000000000000000081523360048201819052600160a060020a0380871660248401527f5550444154455f4d455441444154415f524f4c4500000000000000000000000060448401526064830191909152915194965091169263be0384789260848084019391929182900301818387803b1580156101f957600080fd5b505af115801561020d573d6000803e3d6000fd5b50506040517f5cc07505000000000000000000000000000000000000000000000000000000008152602060048201818152875160248401528751600160a060020a0388169550635cc075059450889391928392604401919085019080838360005b8381101561028657818101518382015260200161026e565b50505050905090810190601f1680156102b35780820380516001836020036101000a031916815260200191505b5092505050600060405180830381600087803b1580156102d257600080fd5b505af11580156102e6573d6000803e3d6000fd5b5050505083905080600160a060020a03166359d5da89836040518263ffffffff167c01000000000000000000000000000000000000000000000000000000000281526004018082600160a060020a0316600160a060020a03168152602001915050600060405180830381600087803b15801561036157600080fd5b505af1158015610375573d6000803e3d6000fd5b5050505050505050505050565b600054600160a060020a031681565b604051610e0b806103a2833901905600608060405260006002819055600381905560048190556005556007805460ff1916600117905534801561003157600080fd5b50604051608080610e0b833981016040908152815160208301519183015160609093015160008054600160a060020a03928316600160a060020a031990911617905560078054919092166101000261010060a860020a0319909116179055600255600355610d67806100a46000396000f30060806040526004361061011c5763ffffffff7c010000000000000000000000000000000000000000000000000000000060003504166319afe463811461012157806335d9db5314610148578063392f37e9146101625780633a4b66f1146101ec5780633d9287fa1461020157806345d61ded1461022a5780635cc075051461025b578063605cba82146102b45780636de149f5146102c95780637b789204146102e15780637daa30df146102fb5780638da5cb5b1461031c5780638f1d37761461033157806391b7f5ed14610349578063a035b1fe14610361578063a2de836814610376578063a4b5fa561461038e578063ae110875146103a3578063b263b26e146103b8578063cfd6d732146103d0578063fff139cf146103e5575b600080fd5b34801561012d57600080fd5b506101366103fa565b60408051918252519081900360200190f35b34801561015457600080fd5b5061016060043561041e565b005b34801561016e57600080fd5b50610177610461565b6040805160208082528351818301528351919283929083019185019080838360005b838110156101b1578181015183820152602001610199565b50505050905090810190601f1680156101de5780820380516001836020036101000a031916815260200191505b509250505060405180910390f35b3480156101f857600080fd5b506101366104ee565b34801561020d57600080fd5b506102166104f4565b604080519115158252519081900360200190f35b34801561023657600080fd5b5061023f6104fd565b60408051600160a060020a039092168252519081900360200190f35b34801561026757600080fd5b506040805160206004803580820135601f810184900484028501840190955284845261016094369492936024939284019190819084018382808284375094975061050c9650505050505050565b3480156102c057600080fd5b50610136610518565b3480156102d557600080fd5b5061016060043561051e565b3480156102ed57600080fd5b506101606004351515610561565b34801561030757600080fd5b50610160600160a060020a03600435166105b0565b34801561032857600080fd5b5061023f61060f565b34801561033d57600080fd5b5061023f600435610623565b34801561035557600080fd5b5061016060043561064b565b34801561036d57600080fd5b5061013661068e565b34801561038257600080fd5b50610160600435610694565b34801561039a57600080fd5b506101606106d7565b3480156103af57600080fd5b50610136610858565b3480156103c457600080fd5b5061023f60043561085e565b3480156103dc57600080fd5b5061013661088a565b3480156103f157600080fd5b50610136610890565b7f424c41434b4c4953545f524f4c4500000000000000000000000000000000000081565b6003819055604080513081526020810183905281517f91ea5c7d3e6075f2586305ea460cca898d81cf65d0222fe1164ada2afbc4d4d1929181900390910190a150565b60018054604080516020600284861615610100026000190190941693909304601f810184900484028201840190925281815292918301828280156104e65780601f106104bb576101008083540402835291602001916104e6565b820191906000526020600020905b8154815290600101906020018083116104c957829003601f168201915b505050505081565b60035481565b60075460ff1681565b600054600160a060020a031681565b610515816108b4565b50565b60045481565b6004819055604080513081526020810183905281517f20676180e1da70fdf5891a3c30f993ab862a69f30e0b86c6f978bbbdefe4f2bb929181900390910190a150565b6007805460ff191682151590811790915560408051308152602081019290925280517f707f3c5101172c4122bef76a7247663a6c9347fd005fc5eff73c858572d9f5899281900390910190a150565b600680546001810182556000919091527ff652222313e28459528d920b65115c16c04f3efc82aaedc97be59f3f377c0d3f01805473ffffffffffffffffffffffffffffffffffffffff1916600160a060020a0392909216919091179055565b6007546101009004600160a060020a031681565b600680548290811061063157fe5b600091825260209091200154600160a060020a0316905081565b6002819055604080513081526020810183905281517ff9a09e2869a1f88523f00504328d7965866201bafe501573db2e114e3375a086929181900390910190a150565b60025481565b6005819055604080513081526020810183905281517f79a6cc998c9294fe1b2f03a63599378a8c641800e387a89b604bd01209b4e493929181900390910190a150565b7f424c41434b4c4953545f524f4c4500000000000000000000000000000000000061070233826108cb565b61077261076661071761071c6107178661098b565b610b01565b61075a6040805190810160405280601f81526020017f20646f206e6f7420686176652074686520636f727265637420726f6c653a2000815250610b01565b9063ffffffff610b2716565b61075a61071733610b9e565b901515610817576040517f08c379a00000000000000000000000000000000000000000000000000000000081526004018080602001828103825283818151815260200191508051906020019080838360005b838110156107dc5781810151838201526020016107c4565b50505050905090810190601f1680156108095780820380516001836020036101000a031916815260200191505b509250505060405180910390fd5b506007805460ff191690556040805130815290517fffa4e6181777692565cf28528fc88fd1516ea86b56da075235fa575af6a4b8559181900360200190a150565b60055481565b600060068281548110151561086f57fe5b600091825260209091200154600160a060020a031692915050565b60065490565b7f5550444154455f4d455441444154415f524f4c4500000000000000000000000081565b80516108c7906001906020840190610c89565b5050565b60008054600160a060020a03161580610984575060008054604080517f6d6712d8000000000000000000000000000000000000000000000000000000008152600160a060020a0387811660048301523060248301526044820187905291519190921692636d6712d892606480820193602093909283900390910190829087803b15801561095757600080fd5b505af115801561096b573d6000803e3d6000fd5b505050506040513d602081101561098157600080fd5b50515b9392505050565b6040805160208082528183019092526060918291600091829182918591908082016104008038833901905050945060009350600092505b6020831015610a4f576008830260020a870291507fff00000000000000000000000000000000000000000000000000000000000000821615610a4457818585815181101515610a0d57fe5b9060200101907effffffffffffffffffffffffffffffffffffffffffffffffffffffffffffff1916908160001a9053506001909301925b6001909201916109c2565b836040519080825280601f01601f191660200182016040528015610a7d578160200160208202803883390190505b509050600092505b83831015610af7578483815181101515610a9b57fe5b90602001015160f860020a900460f860020a028184815181101515610abc57fe5b9060200101907effffffffffffffffffffffffffffffffffffffffffffffffffffffffffffff1916908160001a905350600190920191610a85565b9695505050505050565b610b09610d07565b50604080518082019091528151815260209182019181019190915290565b606080600083600001518560000151016040519080825280601f01601f191660200182016040528015610b64578160200160208202803883390190505b509150602082019050610b808186602001518760000151610c45565b845160208501518551610b969284019190610c45565b509392505050565b60408051601480825281830190925260609182916000916020820161028080388339019050509150600090505b6014811015610c3e578060130360080260020a84600160a060020a0316811515610bf157fe5b0460f860020a028282815181101515610c0657fe5b9060200101907effffffffffffffffffffffffffffffffffffffffffffffffffffffffffffff1916908160001a905350600101610bcb565b5092915050565b60005b60208210610c6a578251845260209384019390920191601f1990910190610c48565b50905182516020929092036101000a6000190180199091169116179052565b828054600181600116156101000203166002900490600052602060002090601f016020900481019282601f10610cca57805160ff1916838001178555610cf7565b82800160010185558215610cf7579182015b82811115610cf7578251825591602001919060010190610cdc565b50610d03929150610d1e565b5090565b604080518082019091526000808252602082015290565b610d3891905b80821115610d035760008155600101610d24565b905600a165627a7a723058207a6a050191c47bb564efad32dfb14b35b186456be3c62fc41e47a9166e7eae960029a165627a7a7230582053a00b4fcdef17f22766dd75affffb21f020173fbf2ba566a4e3b30987fc4a7c0029",
  "source": "pragma solidity ^0.4.24;\n\nimport \"./Sensor.sol\";\nimport \"./SensorRegistry.sol\";\nimport \"@settlemint/solidity-mint/contracts/marketplaces/tokencuratedregistry/ListingFactory.sol\";\n\n\n/**\n * Creates new sensors\n */\ncontract SensorFactory is ListingFactory {\n\n  constructor(address _gateKeeper) public ListingFactory(_gateKeeper) {}\n\n  function createListing(\n    address _owner,\n    uint _price,\n    uint _stakeAmount,\n    address _tcr,\n    string _metadata\n  ) public\n  {\n    // Create listing\n    Sensor _newSensor = new Sensor(_owner, _price, _stakeAmount, gateKeeper);\n\n    // Metadata role\n    gateKeeper.createPermission(\n      msg.sender,\n      address(_newSensor),\n      bytes32(\"UPDATE_METADATA_ROLE\"),\n      msg.sender\n    );\n\n    // Add metadata\n    _newSensor.updateMetaData(_metadata);\n\n    // Add listing to token curated registry\n    SensorRegistry sensorRegistry = SensorRegistry(_tcr);\n    sensorRegistry.addListing(address(_newSensor));\n  }\n}\n",
  "sourcePath": "/Users/peterjanbrone/databrokerdao/databrokerdao-dapi/contracts/sensor/SensorFactory.sol",
  "compiler": {
    "name": "solc",
    "version": "0.4.24+commit.e67f0147.Emscripten.clang"
  },
  "schemaVersion": "3.0.0-beta.0",
  "updatedAt": "2018-09-25T20:20:15.808Z"
}