{
  "contractName": "SensorFactoryDispatcher",
  "abi": [
    {
      "constant": true,
      "inputs": [],
      "name": "UPGRADE_CONTRACT",
      "outputs": [
        {
          "name": "",
          "type": "bytes32"
        }
      ],
      "payable": false,
      "stateMutability": "view",
      "type": "function",
      "signature": "0x17f82139"
    },
    {
      "constant": true,
      "inputs": [],
      "name": "gateKeeper",
      "outputs": [
        {
          "name": "",
          "type": "address"
        }
      ],
      "payable": false,
      "stateMutability": "view",
      "type": "function",
      "signature": "0x45d61ded"
    },
    {
      "constant": true,
      "inputs": [],
      "name": "target",
      "outputs": [
        {
          "name": "",
          "type": "address"
        }
      ],
      "payable": false,
      "stateMutability": "view",
      "type": "function",
      "signature": "0xd4b83992"
    },
    {
      "inputs": [
        {
          "name": "_gateKeeper",
          "type": "address"
        }
      ],
      "payable": false,
      "stateMutability": "nonpayable",
      "type": "constructor",
      "signature": "constructor"
    },
    {
      "payable": false,
      "stateMutability": "nonpayable",
      "type": "fallback"
    },
    {
      "anonymous": false,
      "inputs": [
        {
          "indexed": false,
          "name": "originalTarget",
          "type": "address"
        },
        {
          "indexed": false,
          "name": "newTarget",
          "type": "address"
        }
      ],
      "name": "TargetChanged",
      "type": "event",
      "signature": "0x4d11d6210a5e807da812a693b5d341a870571b5fc31158172207a3d99c911ccd"
    },
    {
      "constant": false,
      "inputs": [
        {
          "name": "_target",
          "type": "address"
        }
      ],
      "name": "setTarget",
      "outputs": [],
      "payable": false,
      "stateMutability": "nonpayable",
      "type": "function",
      "signature": "0x776d1a01"
    }
  ],
  "bytecode": "0x608060405234801561001057600080fd5b5060405160208061078a833981016040525160008054600160a060020a03909216600160a060020a0319909216919091179055610738806100526000396000f3006080604052600436106100615763ffffffff7c010000000000000000000000000000000000000000000000000000000060003504166317f82139811461009c57806345d61ded146100c3578063776d1a01146100f4578063d4b8399214610117575b34801561006d57600080fd5b506001546000803591600160a060020a03169036908037600080366000846127105a03f43d806000803e806000f35b3480156100a857600080fd5b506100b161012c565b60408051918252519081900360200190f35b3480156100cf57600080fd5b506100d8610150565b60408051600160a060020a039092168252519081900360200190f35b34801561010057600080fd5b50610115600160a060020a036004351661015f565b005b34801561012357600080fd5b506100d861016b565b7f555047524144455f434f4e54524143540000000000000000000000000000000081565b600054600160a060020a031681565b6101688161017a565b50565b600154600160a060020a031681565b610168817f555047524144455f434f4e5452414354000000000000000000000000000000006101a93382610337565b61021961020d6101be6101c36101be866103f7565b61056d565b6102016040805190810160405280601f81526020017f20646f206e6f7420686176652074686520636f727265637420726f6c653a200081525061056d565b9063ffffffff61059316565b6102016101be3361060a565b9015156102be576040517f08c379a00000000000000000000000000000000000000000000000000000000081526004018080602001828103825283818151815260200191508051906020019080838360005b8381101561028357818101518382015260200161026b565b50505050905090810190601f1680156102b05780820380516001836020036101000a031916815260200191505b509250505060405180910390fd5b5060015460408051600160a060020a039283168152918416602083015280517f4d11d6210a5e807da812a693b5d341a870571b5fc31158172207a3d99c911ccd9281900390910190a1506001805473ffffffffffffffffffffffffffffffffffffffff1916600160a060020a0392909216919091179055565b60008054600160a060020a031615806103f0575060008054604080517f6d6712d8000000000000000000000000000000000000000000000000000000008152600160a060020a0387811660048301523060248301526044820187905291519190921692636d6712d892606480820193602093909283900390910190829087803b1580156103c357600080fd5b505af11580156103d7573d6000803e3d6000fd5b505050506040513d60208110156103ed57600080fd5b50515b9392505050565b6040805160208082528183019092526060918291600091829182918591908082016104008038833901905050945060009350600092505b60208310156104bb576008830260020a870291507fff000000000000000000000000000000000000000000000000000000000000008216156104b05781858581518110151561047957fe5b9060200101907effffffffffffffffffffffffffffffffffffffffffffffffffffffffffffff1916908160001a9053506001909301925b60019092019161042e565b836040519080825280601f01601f1916602001820160405280156104e9578160200160208202803883390190505b509050600092505b8383101561056357848381518110151561050757fe5b90602001015160f860020a900460f860020a02818481518110151561052857fe5b9060200101907effffffffffffffffffffffffffffffffffffffffffffffffffffffffffffff1916908160001a9053506001909201916104f1565b9695505050505050565b6105756106f5565b50604080518082019091528151815260209182019181019190915290565b606080600083600001518560000151016040519080825280601f01601f1916602001820160405280156105d0578160200160208202803883390190505b5091506020820190506105ec81866020015187600001516106b1565b84516020850151855161060292840191906106b1565b509392505050565b60408051601480825281830190925260609182916000916020820161028080388339019050509150600090505b60148110156106aa578060130360080260020a84600160a060020a031681151561065d57fe5b0460f860020a02828281518110151561067257fe5b9060200101907effffffffffffffffffffffffffffffffffffffffffffffffffffffffffffff1916908160001a905350600101610637565b5092915050565b60005b602082106106d6578251845260209384019390920191601f19909101906106b4565b50905182516020929092036101000a6000190180199091169116179052565b6040805180820190915260008082526020820152905600a165627a7a72305820a57bab1f9ac72b6d4f8c491fabb0a5f143baadd98e8053e8449b15f49fe903020029",
  "source": "pragma solidity ^0.4.24;\n\nimport \"@settlemint/solidity-mint/contracts/utility/upgrading/Dispatcher.sol\";\nimport \"@settlemint/solidity-mint/contracts/marketplaces/tokensystem/interfaces/IToken.sol\";\nimport \"@settlemint/solidity-mint/contracts/marketplaces/tokencuratedregistry/interfaces/IListing.sol\";\nimport \"@settlemint/solidity-mint/contracts/marketplaces/tokencuratedregistry/interfaces/IListingFactory.sol\";\nimport \"@settlemint/solidity-mint/contracts/marketplaces/tokencuratedregistry/ChallengeRegistry.sol\";\n\n/**\n * Dispatches calls to the sensor factory\n */\ncontract SensorFactoryDispatcher is Dispatcher {\n\n  constructor(\n    address _gateKeeper\n  )\n    public\n    Secured(_gateKeeper)\n  {}\n\n  function setTarget(address _target) public {\n    super.setTarget(_target);\n  }\n}\n",
  "sourcePath": "/Users/peterjanbrone/databrokerdao/databrokerdao-dapi/contracts/sensor/SensorFactoryDispatcher.sol",
  "compiler": {
    "name": "solc",
    "version": "0.4.24+commit.e67f0147.Emscripten.clang"
  },
  "schemaVersion": "3.0.0-beta.0",
  "updatedAt": "2018-09-25T20:20:15.808Z"
}