{
  "contractName": "SensorRegistryDispatcher",
  "abi": [
    {
      "constant": true,
      "inputs": [],
      "name": "UPGRADE_CONTRACT",
      "outputs": [
        {
          "name": "",
          "type": "bytes32"
        }
      ],
      "payable": false,
      "stateMutability": "view",
      "type": "function",
      "signature": "0x17f82139"
    },
    {
      "constant": true,
      "inputs": [],
      "name": "gateKeeper",
      "outputs": [
        {
          "name": "",
          "type": "address"
        }
      ],
      "payable": false,
      "stateMutability": "view",
      "type": "function",
      "signature": "0x45d61ded"
    },
    {
      "constant": true,
      "inputs": [
        {
          "name": "",
          "type": "address"
        }
      ],
      "name": "listings",
      "outputs": [
        {
          "name": "",
          "type": "address"
        }
      ],
      "payable": false,
      "stateMutability": "view",
      "type": "function",
      "signature": "0x65d96c82"
    },
    {
      "constant": true,
      "inputs": [],
      "name": "target",
      "outputs": [
        {
          "name": "",
          "type": "address"
        }
      ],
      "payable": false,
      "stateMutability": "view",
      "type": "function",
      "signature": "0xd4b83992"
    },
    {
      "constant": true,
      "inputs": [],
      "name": "token",
      "outputs": [
        {
          "name": "",
          "type": "address"
        }
      ],
      "payable": false,
      "stateMutability": "view",
      "type": "function",
      "signature": "0xfc0c546a"
    },
    {
      "constant": true,
      "inputs": [],
      "name": "listingFactory",
      "outputs": [
        {
          "name": "",
          "type": "address"
        }
      ],
      "payable": false,
      "stateMutability": "view",
      "type": "function",
      "signature": "0xfe8cde34"
    },
    {
      "inputs": [
        {
          "name": "_gateKeeper",
          "type": "address"
        },
        {
          "name": "_token",
          "type": "address"
        },
        {
          "name": "_listingFactory",
          "type": "address"
        },
        {
          "name": "_challengeRegistry",
          "type": "address"
        },
        {
          "name": "_minEnlistAmount",
          "type": "uint256"
        },
        {
          "name": "_minChallengeAmount",
          "type": "uint256"
        },
        {
          "name": "_curatorPercentage",
          "type": "uint256"
        }
      ],
      "payable": false,
      "stateMutability": "nonpayable",
      "type": "constructor",
      "signature": "constructor"
    },
    {
      "payable": false,
      "stateMutability": "nonpayable",
      "type": "fallback"
    },
    {
      "anonymous": false,
      "inputs": [
        {
          "indexed": false,
          "name": "originalTarget",
          "type": "address"
        },
        {
          "indexed": false,
          "name": "newTarget",
          "type": "address"
        }
      ],
      "name": "TargetChanged",
      "type": "event",
      "signature": "0x4d11d6210a5e807da812a693b5d341a870571b5fc31158172207a3d99c911ccd"
    },
    {
      "constant": false,
      "inputs": [
        {
          "name": "_target",
          "type": "address"
        }
      ],
      "name": "setTarget",
      "outputs": [],
      "payable": false,
      "stateMutability": "nonpayable",
      "type": "function",
      "signature": "0x776d1a01"
    }
  ],
  "bytecode": "0x608060405234801561001057600080fd5b5060405160e08061088f83398101604090815281516020830151918301516060840151608085015160a086015160c09096015160008054600160a060020a0319908116600160a060020a0397881617825560078054821698881698909817909755600880548816958716959095179094556009805490961694909216939093179093556002919091556003929092556004556107dd9081906100b290396000f3006080604052600436106100825763ffffffff7c010000000000000000000000000000000000000000000000000000000060003504166317f8213981146100bd57806345d61ded146100e457806365d96c8214610115578063776d1a0114610136578063d4b8399214610159578063fc0c546a1461016e578063fe8cde3414610183575b34801561008e57600080fd5b506001546000803591600160a060020a03169036908037600080366000846127105a03f43d806000803e806000f35b3480156100c957600080fd5b506100d2610198565b60408051918252519081900360200190f35b3480156100f057600080fd5b506100f96101bc565b60408051600160a060020a039092168252519081900360200190f35b34801561012157600080fd5b506100f9600160a060020a03600435166101cb565b34801561014257600080fd5b50610157600160a060020a03600435166101e6565b005b34801561016557600080fd5b506100f96101f2565b34801561017a57600080fd5b506100f9610201565b34801561018f57600080fd5b506100f9610210565b7f555047524144455f434f4e54524143540000000000000000000000000000000081565b600054600160a060020a031681565b600560205260009081526040902054600160a060020a031681565b6101ef8161021f565b50565b600154600160a060020a031681565b600754600160a060020a031681565b600854600160a060020a031681565b6101ef817f555047524144455f434f4e54524143540000000000000000000000000000000061024e33826103dc565b6102be6102b26102636102686102638661049c565b610612565b6102a66040805190810160405280601f81526020017f20646f206e6f7420686176652074686520636f727265637420726f6c653a2000815250610612565b9063ffffffff61063816565b6102a6610263336106af565b901515610363576040517f08c379a00000000000000000000000000000000000000000000000000000000081526004018080602001828103825283818151815260200191508051906020019080838360005b83811015610328578181015183820152602001610310565b50505050905090810190601f1680156103555780820380516001836020036101000a031916815260200191505b509250505060405180910390fd5b5060015460408051600160a060020a039283168152918416602083015280517f4d11d6210a5e807da812a693b5d341a870571b5fc31158172207a3d99c911ccd9281900390910190a1506001805473ffffffffffffffffffffffffffffffffffffffff1916600160a060020a0392909216919091179055565b60008054600160a060020a03161580610495575060008054604080517f6d6712d8000000000000000000000000000000000000000000000000000000008152600160a060020a0387811660048301523060248301526044820187905291519190921692636d6712d892606480820193602093909283900390910190829087803b15801561046857600080fd5b505af115801561047c573d6000803e3d6000fd5b505050506040513d602081101561049257600080fd5b50515b9392505050565b6040805160208082528183019092526060918291600091829182918591908082016104008038833901905050945060009350600092505b6020831015610560576008830260020a870291507fff000000000000000000000000000000000000000000000000000000000000008216156105555781858581518110151561051e57fe5b9060200101907effffffffffffffffffffffffffffffffffffffffffffffffffffffffffffff1916908160001a9053506001909301925b6001909201916104d3565b836040519080825280601f01601f19166020018201604052801561058e578160200160208202803883390190505b509050600092505b838310156106085784838151811015156105ac57fe5b90602001015160f860020a900460f860020a0281848151811015156105cd57fe5b9060200101907effffffffffffffffffffffffffffffffffffffffffffffffffffffffffffff1916908160001a905350600190920191610596565b9695505050505050565b61061a61079a565b50604080518082019091528151815260209182019181019190915290565b606080600083600001518560000151016040519080825280601f01601f191660200182016040528015610675578160200160208202803883390190505b5091506020820190506106918186602001518760000151610756565b8451602085015185516106a79284019190610756565b509392505050565b60408051601480825281830190925260609182916000916020820161028080388339019050509150600090505b601481101561074f578060130360080260020a84600160a060020a031681151561070257fe5b0460f860020a02828281518110151561071757fe5b9060200101907effffffffffffffffffffffffffffffffffffffffffffffffffffffffffffff1916908160001a9053506001016106dc565b5092915050565b60005b6020821061077b578251845260209384019390920191601f1990910190610759565b50905182516020929092036101000a6000190180199091169116179052565b6040805180820190915260008082526020820152905600a165627a7a723058207844f23d9fe44c0e8e6b69b2197df6076fb0187f049de09a9552aaafbe786bee0029",
  "source": "pragma solidity ^0.4.24;\n\nimport \"@settlemint/solidity-mint/contracts/utility/upgrading/Dispatcher.sol\";\nimport \"@settlemint/solidity-mint/contracts/marketplaces/tokensystem/interfaces/IToken.sol\";\nimport \"@settlemint/solidity-mint/contracts/marketplaces/tokencuratedregistry/interfaces/IListing.sol\";\nimport \"@settlemint/solidity-mint/contracts/marketplaces/tokencuratedregistry/interfaces/IListingFactory.sol\";\nimport \"@settlemint/solidity-mint/contracts/marketplaces/tokencuratedregistry/ChallengeRegistry.sol\";\n\n\n/**\n * Dispatches calls to the sensor registry\n */\ncontract SensorRegistryDispatcher is Dispatcher {\n\n  // Same state as contract it will refer to\n  uint minEnlistAmount;\n  uint minChallengeAmount;\n  uint curatorPercentage;\n  mapping(address => IListing) public listings;\n  address[] listingsIndex;\n  IToken public token;\n  IListingFactory public listingFactory;\n  ChallengeRegistry challengeRegistry;\n\n  constructor(\n    address _gateKeeper,\n    address _token,\n    address _listingFactory,\n    address _challengeRegistry,\n    uint _minEnlistAmount,\n    uint _minChallengeAmount,\n    uint _curatorPercentage\n  )\n    Secured(_gateKeeper)\n    public\n  {\n    // State also needs to initialized!\n    token = IToken(_token);\n    listingFactory = IListingFactory(_listingFactory);\n    challengeRegistry = ChallengeRegistry(_challengeRegistry);\n\n    minEnlistAmount = _minEnlistAmount;\n    minChallengeAmount = _minChallengeAmount;\n    curatorPercentage = _curatorPercentage;\n  }\n\n  function setTarget(address _target) public {\n    super.setTarget(_target);\n  }\n}\n",
  "sourcePath": "/Users/peterjanbrone/databrokerdao/databrokerdao-dapi/contracts/sensor/SensorRegistryDispatcher.sol",
  "compiler": {
    "name": "solc",
    "version": "0.4.24+commit.e67f0147.Emscripten.clang"
  },
  "schemaVersion": "3.0.0-beta.0",
  "updatedAt": "2018-09-25T20:20:15.805Z"
}