{
  "contractName": "SensorFactoryDispatcher",
  "abi": [
    {
      "constant": true,
      "inputs": [],
      "name": "UPGRADE_CONTRACT",
      "outputs": [
        {
          "name": "",
          "type": "bytes32"
        }
      ],
      "payable": false,
      "stateMutability": "view",
      "type": "function",
      "signature": "0x17f82139"
    },
    {
      "constant": true,
      "inputs": [],
      "name": "gateKeeper",
      "outputs": [
        {
          "name": "",
          "type": "address"
        }
      ],
      "payable": false,
      "stateMutability": "view",
      "type": "function",
      "signature": "0x45d61ded"
    },
    {
      "constant": true,
      "inputs": [],
      "name": "target",
      "outputs": [
        {
          "name": "",
          "type": "address"
        }
      ],
      "payable": false,
      "stateMutability": "view",
      "type": "function",
      "signature": "0xd4b83992"
    },
    {
      "inputs": [
        {
          "name": "_gateKeeper",
          "type": "address"
        }
      ],
      "payable": false,
      "stateMutability": "nonpayable",
      "type": "constructor",
      "signature": "constructor"
    },
    {
      "payable": false,
      "stateMutability": "nonpayable",
      "type": "fallback"
    },
    {
      "anonymous": false,
      "inputs": [
        {
          "indexed": false,
          "name": "originalTarget",
          "type": "address"
        },
        {
          "indexed": false,
          "name": "newTarget",
          "type": "address"
        }
      ],
      "name": "TargetChanged",
      "type": "event",
      "signature": "0x4d11d6210a5e807da812a693b5d341a870571b5fc31158172207a3d99c911ccd"
    },
    {
      "constant": false,
      "inputs": [
        {
          "name": "_target",
          "type": "address"
        }
      ],
      "name": "setTarget",
      "outputs": [],
      "payable": false,
      "stateMutability": "nonpayable",
      "type": "function",
      "signature": "0x776d1a01"
    }
  ],
  "bytecode": "0x608060405234801561001057600080fd5b506040516020806103f2833981016040525160008054600160a060020a03909216600160a060020a03199092169190911790556103a0806100526000396000f3006080604052600436106100615763ffffffff7c010000000000000000000000000000000000000000000000000000000060003504166317f82139811461009c57806345d61ded146100c3578063776d1a01146100f4578063d4b8399214610117575b34801561006d57600080fd5b506001546000803591600160a060020a03169036908037600080366000846127105a03f43d806000803e806000f35b3480156100a857600080fd5b506100b161012c565b60408051918252519081900360200190f35b3480156100cf57600080fd5b506100d8610150565b60408051600160a060020a039092168252519081900360200190f35b34801561010057600080fd5b50610115600160a060020a036004351661015f565b005b34801561012357600080fd5b506100d861016b565b7f555047524144455f434f4e54524143540000000000000000000000000000000081565b600054600160a060020a031681565b6101688161017a565b50565b600154600160a060020a031681565b610168817f555047524144455f434f4e5452414354000000000000000000000000000000006101a933826102b4565b151561023c57604080517f08c379a000000000000000000000000000000000000000000000000000000000815260206004820152602160248201527f596f7520646f206e6f7420686176652074686520636f727265637420726f6c6560448201527f7300000000000000000000000000000000000000000000000000000000000000606482015290519081900360840190fd5b60015460408051600160a060020a039283168152918416602083015280517f4d11d6210a5e807da812a693b5d341a870571b5fc31158172207a3d99c911ccd9281900390910190a1506001805473ffffffffffffffffffffffffffffffffffffffff1916600160a060020a0392909216919091179055565b60008054600160a060020a0316158061036d575060008054604080517f6d6712d8000000000000000000000000000000000000000000000000000000008152600160a060020a0387811660048301523060248301526044820187905291519190921692636d6712d892606480820193602093909283900390910190829087803b15801561034057600080fd5b505af1158015610354573d6000803e3d6000fd5b505050506040513d602081101561036a57600080fd5b50515b93925050505600a165627a7a723058200831c88b6838b0cd550b8599cb313d457db3b6f4ae68ce248aad57bf9a61ff4e0029",
  "source": "pragma solidity ^0.4.24;\n\nimport \"@settlemint/solidity-mint/contracts/utility/upgrading/Dispatcher.sol\";\nimport \"@settlemint/solidity-mint/contracts/marketplaces/tokensystem/interfaces/IToken.sol\";\nimport \"@settlemint/solidity-mint/contracts/marketplaces/tokencuratedregistry/interfaces/IListing.sol\";\nimport \"@settlemint/solidity-mint/contracts/marketplaces/tokencuratedregistry/interfaces/IListingFactory.sol\";\nimport \"@settlemint/solidity-mint/contracts/marketplaces/tokencuratedregistry/ChallengeRegistry.sol\";\n\n/**\n * Dispatches calls to the sensor factory\n */\ncontract SensorFactoryDispatcher is Dispatcher {\n\n  constructor(\n    address _gateKeeper\n  )\n    public\n    Secured(_gateKeeper)\n  {}\n\n  function setTarget(address _target) public {\n    super.setTarget(_target);\n  }\n}\n",
  "sourcePath": "/Users/peterjanbrone/databrokerdao/databrokerdao-dapi/contracts/sensor/SensorFactoryDispatcher.sol",
  "compiler": {
    "name": "solc",
    "version": "0.4.24+commit.e67f0147.Emscripten.clang"
  },
  "schemaVersion": "3.0.0-beta.0",
  "updatedAt": "2018-09-12T09:20:46.123Z"
}