{
  "contractName": "SensorRegistry",
  "abi": [
    {
      "constant": true,
      "inputs": [],
      "name": "WITHDRAW_FUNDS_ROLE",
      "outputs": [
        {
          "name": "",
          "type": "bytes32"
        }
      ],
      "payable": false,
      "stateMutability": "view",
      "type": "function",
      "signature": "0x1cbcd974"
    },
    {
      "constant": false,
      "inputs": [
        {
          "name": "_stakeAmount",
          "type": "uint256"
        },
        {
          "name": "_price",
          "type": "uint256"
        },
        {
          "name": "_metadata",
          "type": "string"
        }
      ],
      "name": "enlist",
      "outputs": [],
      "payable": false,
      "stateMutability": "nonpayable",
      "type": "function",
      "signature": "0x236b237c"
    },
    {
      "constant": true,
      "inputs": [
        {
          "name": "index",
          "type": "uint256"
        }
      ],
      "name": "getByIndex",
      "outputs": [
        {
          "name": "key",
          "type": "address"
        },
        {
          "name": "contractAddress",
          "type": "address"
        }
      ],
      "payable": false,
      "stateMutability": "view",
      "type": "function",
      "signature": "0x2d883a73"
    },
    {
      "constant": true,
      "inputs": [],
      "name": "CURATE_CHALLENGE_ROLE",
      "outputs": [
        {
          "name": "",
          "type": "bytes32"
        }
      ],
      "payable": false,
      "stateMutability": "view",
      "type": "function",
      "signature": "0x32a65198"
    },
    {
      "constant": true,
      "inputs": [],
      "name": "CHANGE_SETTINGS_ROLE",
      "outputs": [
        {
          "name": "",
          "type": "bytes32"
        }
      ],
      "payable": false,
      "stateMutability": "view",
      "type": "function",
      "signature": "0x3426ddd5"
    },
    {
      "constant": false,
      "inputs": [
        {
          "name": "_curatorPercentage",
          "type": "uint256"
        }
      ],
      "name": "setCuratorPercentage",
      "outputs": [],
      "payable": false,
      "stateMutability": "nonpayable",
      "type": "function",
      "signature": "0x346fa921"
    },
    {
      "constant": false,
      "inputs": [],
      "name": "withdraw",
      "outputs": [],
      "payable": false,
      "stateMutability": "nonpayable",
      "type": "function",
      "signature": "0x3ccfd60b"
    },
    {
      "constant": true,
      "inputs": [],
      "name": "gateKeeper",
      "outputs": [
        {
          "name": "",
          "type": "address"
        }
      ],
      "payable": false,
      "stateMutability": "view",
      "type": "function",
      "signature": "0x45d61ded"
    },
    {
      "constant": true,
      "inputs": [
        {
          "name": "_key",
          "type": "address"
        }
      ],
      "name": "getByKey",
      "outputs": [
        {
          "name": "key",
          "type": "address"
        },
        {
          "name": "contractAddress",
          "type": "address"
        }
      ],
      "payable": false,
      "stateMutability": "view",
      "type": "function",
      "signature": "0x49877038"
    },
    {
      "constant": false,
      "inputs": [
        {
          "name": "_listing",
          "type": "address"
        },
        {
          "name": "_stakeAmount",
          "type": "uint256"
        }
      ],
      "name": "increase",
      "outputs": [],
      "payable": false,
      "stateMutability": "nonpayable",
      "type": "function",
      "signature": "0x522afaec"
    },
    {
      "constant": false,
      "inputs": [
        {
          "name": "_listing",
          "type": "address"
        }
      ],
      "name": "addListing",
      "outputs": [],
      "payable": false,
      "stateMutability": "nonpayable",
      "type": "function",
      "signature": "0x59d5da89"
    },
    {
      "constant": true,
      "inputs": [
        {
          "name": "",
          "type": "address"
        }
      ],
      "name": "listings",
      "outputs": [
        {
          "name": "",
          "type": "address"
        }
      ],
      "payable": false,
      "stateMutability": "view",
      "type": "function",
      "signature": "0x65d96c82"
    },
    {
      "constant": false,
      "inputs": [
        {
          "name": "_listing",
          "type": "address"
        },
        {
          "name": "_stakeAmount",
          "type": "uint256"
        },
        {
          "name": "_metadata",
          "type": "string"
        }
      ],
      "name": "challenge",
      "outputs": [],
      "payable": false,
      "stateMutability": "nonpayable",
      "type": "function",
      "signature": "0x6c3344eb"
    },
    {
      "constant": false,
      "inputs": [
        {
          "name": "_minEnlistAmount",
          "type": "uint256"
        }
      ],
      "name": "setMinEnlistAmount",
      "outputs": [],
      "payable": false,
      "stateMutability": "nonpayable",
      "type": "function",
      "signature": "0x83b7113e"
    },
    {
      "constant": false,
      "inputs": [
        {
          "name": "_listing",
          "type": "address"
        }
      ],
      "name": "approveChallenge",
      "outputs": [],
      "payable": false,
      "stateMutability": "nonpayable",
      "type": "function",
      "signature": "0x92f60b96"
    },
    {
      "constant": false,
      "inputs": [
        {
          "name": "_listing",
          "type": "address"
        }
      ],
      "name": "denyChallenge",
      "outputs": [],
      "payable": false,
      "stateMutability": "nonpayable",
      "type": "function",
      "signature": "0x99b6c1c6"
    },
    {
      "constant": false,
      "inputs": [
        {
          "name": "_listing",
          "type": "address"
        }
      ],
      "name": "unlist",
      "outputs": [],
      "payable": false,
      "stateMutability": "nonpayable",
      "type": "function",
      "signature": "0xbde3672d"
    },
    {
      "constant": false,
      "inputs": [
        {
          "name": "_minChallengeAmount",
          "type": "uint256"
        }
      ],
      "name": "setMinChallengeAmount",
      "outputs": [],
      "payable": false,
      "stateMutability": "nonpayable",
      "type": "function",
      "signature": "0xde29ee68"
    },
    {
      "constant": true,
      "inputs": [],
      "name": "getIndexLength",
      "outputs": [
        {
          "name": "length",
          "type": "uint256"
        }
      ],
      "payable": false,
      "stateMutability": "view",
      "type": "function",
      "signature": "0xe1ba7d01"
    },
    {
      "constant": false,
      "inputs": [
        {
          "name": "_listing",
          "type": "address"
        },
        {
          "name": "_stakeAmount",
          "type": "uint256"
        }
      ],
      "name": "decrease",
      "outputs": [],
      "payable": false,
      "stateMutability": "nonpayable",
      "type": "function",
      "signature": "0xf27ac4d9"
    },
    {
      "constant": true,
      "inputs": [],
      "name": "token",
      "outputs": [
        {
          "name": "",
          "type": "address"
        }
      ],
      "payable": false,
      "stateMutability": "view",
      "type": "function",
      "signature": "0xfc0c546a"
    },
    {
      "constant": true,
      "inputs": [],
      "name": "listingFactory",
      "outputs": [
        {
          "name": "",
          "type": "address"
        }
      ],
      "payable": false,
      "stateMutability": "view",
      "type": "function",
      "signature": "0xfe8cde34"
    },
    {
      "inputs": [
        {
          "name": "_gateKeeper",
          "type": "address"
        },
        {
          "name": "_token",
          "type": "address"
        },
        {
          "name": "_listingFactory",
          "type": "address"
        },
        {
          "name": "_challengeRegistry",
          "type": "address"
        },
        {
          "name": "_minEnlistAmount",
          "type": "uint256"
        },
        {
          "name": "_minChallengeAmount",
          "type": "uint256"
        },
        {
          "name": "_curatorPercentage",
          "type": "uint256"
        }
      ],
      "payable": false,
      "stateMutability": "nonpayable",
      "type": "constructor",
      "signature": "constructor"
    },
    {
      "anonymous": false,
      "inputs": [
        {
          "indexed": false,
          "name": "listing",
          "type": "address"
        },
        {
          "indexed": false,
          "name": "stake",
          "type": "uint256"
        },
        {
          "indexed": false,
          "name": "price",
          "type": "uint256"
        }
      ],
      "name": "Enlisted",
      "type": "event",
      "signature": "0x7583fed51a2ab4e582c68d93e281e0fcc2601ef4a7491d1d2d2dc511f6a91279"
    },
    {
      "anonymous": false,
      "inputs": [
        {
          "indexed": false,
          "name": "listing",
          "type": "address"
        },
        {
          "indexed": false,
          "name": "stake",
          "type": "uint256"
        },
        {
          "indexed": false,
          "name": "challenge",
          "type": "address"
        }
      ],
      "name": "Challenged",
      "type": "event",
      "signature": "0xccd897ff376a9748c9a2e6af2a359a82cb0513a96ff431f17763ad057b161908"
    },
    {
      "anonymous": false,
      "inputs": [
        {
          "indexed": false,
          "name": "listing",
          "type": "address"
        }
      ],
      "name": "Unlisted",
      "type": "event",
      "signature": "0xc48322c2e165c864176005884983dd81c87a9fc8258ca6a1967d17b26cd8d0e3"
    },
    {
      "anonymous": false,
      "inputs": [
        {
          "indexed": false,
          "name": "listing",
          "type": "address"
        }
      ],
      "name": "ChallengeApproved",
      "type": "event",
      "signature": "0x9d9f99a36ef64966814c1f89a7a64fcb0132cbd085184a9666469302f32b92c4"
    },
    {
      "anonymous": false,
      "inputs": [
        {
          "indexed": false,
          "name": "listing",
          "type": "address"
        }
      ],
      "name": "ChallengeDenied",
      "type": "event",
      "signature": "0x125014e75e2aead4a1c8a35e9bb786a430fc1ba6354cbd9845802d3603abd0b0"
    },
    {
      "anonymous": false,
      "inputs": [
        {
          "indexed": false,
          "name": "listing",
          "type": "address"
        },
        {
          "indexed": false,
          "name": "increasedBy",
          "type": "uint256"
        },
        {
          "indexed": false,
          "name": "newStake",
          "type": "uint256"
        }
      ],
      "name": "Increased",
      "type": "event",
      "signature": "0x8b05844824acf2db2f068e4006ef99b307ca4fe1a896d06e884700f1a9da3a6d"
    },
    {
      "anonymous": false,
      "inputs": [
        {
          "indexed": false,
          "name": "listing",
          "type": "address"
        },
        {
          "indexed": false,
          "name": "decreasedBy",
          "type": "uint256"
        },
        {
          "indexed": false,
          "name": "newStake",
          "type": "uint256"
        }
      ],
      "name": "Decreased",
      "type": "event",
      "signature": "0x5ee9537083cb767f9e599a17876a9c597197deba435082e0b88c4da925d4599e"
    },
    {
      "anonymous": false,
      "inputs": [
        {
          "indexed": false,
          "name": "by",
          "type": "address"
        },
        {
          "indexed": false,
          "name": "balance",
          "type": "uint256"
        }
      ],
      "name": "Withdrawn",
      "type": "event",
      "signature": "0x7084f5476618d8e60b11ef0d7d3f06914655adb8793e28ff7f018d4c76d505d5"
    },
    {
      "anonymous": false,
      "inputs": [
        {
          "indexed": false,
          "name": "value",
          "type": "uint256"
        }
      ],
      "name": "MinEnlistAmountChanged",
      "type": "event",
      "signature": "0x1e2fffeb4ad73c19aa71037a187b8cb1a45220f05d6cce7c2801c106de268a8a"
    },
    {
      "anonymous": false,
      "inputs": [
        {
          "indexed": false,
          "name": "value",
          "type": "uint256"
        }
      ],
      "name": "MinChallengeAmountChanged",
      "type": "event",
      "signature": "0xec0975e9a985b0702fafca3ee144a642dfe5c48de1b5e1c934e0e4131ce5fcbe"
    },
    {
      "anonymous": false,
      "inputs": [
        {
          "indexed": false,
          "name": "value",
          "type": "uint256"
        }
      ],
      "name": "CuratorPercentageChanged",
      "type": "event",
      "signature": "0xea6c6084ca0283f30c459faead18d4a32783096c26aa5847e96e1eeec97edce8"
    }
  ],
  "bytecode": "0x608060405260006006556000600755600060085534801561001f57600080fd5b5060405160e0806136ba83398101604090815281516020830151918301516060840151608085015160a086015160c09096015160008054600160a060020a0319908116600160a060020a0397881617825560038054821698881698909817909755600480548816958716959095179094556005805490961694909216939093179093556006919091556007929092556008556135f99081906100c190396000f30060806040526004361061010e5763ffffffff60e060020a6000350416631cbcd9748114610113578063236b237c1461013a5780632d883a731461016457806332a65198146101a25780633426ddd5146101b7578063346fa921146101cc5780633ccfd60b146101e457806345d61ded146101f9578063498770381461022a578063522afaec1461024b57806359d5da891461026f57806365d96c82146102905780636c3344eb146102b157806383b7113e1461031a57806392f60b961461033257806399b6c1c614610353578063bde3672d14610374578063de29ee6814610395578063e1ba7d01146103ad578063f27ac4d9146103c2578063fc0c546a146103e6578063fe8cde34146103fb575b600080fd5b34801561011f57600080fd5b50610128610410565b60408051918252519081900360200190f35b34801561014657600080fd5b5061016260048035906024803591604435918201910135610434565b005b34801561017057600080fd5b5061017c600435610636565b60408051600160a060020a03938416815291909216602082015281519081900390910190f35b3480156101ae57600080fd5b5061012861066e565b3480156101c357600080fd5b50610128610692565b3480156101d857600080fd5b506101626004356106a4565b3480156101f057600080fd5b506101626107f8565b34801561020557600080fd5b5061020e610953565b60408051600160a060020a039092168252519081900360200190f35b34801561023657600080fd5b5061017c600160a060020a0360043516610962565b34801561025757600080fd5b50610162600160a060020a0360043516602435610982565b34801561027b57600080fd5b50610162600160a060020a0360043516610cdc565b34801561029c57600080fd5b5061020e600160a060020a0360043516610e8d565b3480156102bd57600080fd5b50604080516020600460443581810135601f8101849004840285018401909552848452610162948235600160a060020a0316946024803595369594606494920191908190840183828082843750949750610ea89650505050505050565b34801561032657600080fd5b5061016260043561149c565b34801561033e57600080fd5b50610162600160a060020a0360043516611559565b34801561035f57600080fd5b50610162600160a060020a0360043516611cd4565b34801561038057600080fd5b50610162600160a060020a03600435166122c2565b3480156103a157600080fd5b5061016260043561268c565b3480156103b957600080fd5b50610128612749565b3480156103ce57600080fd5b50610162600160a060020a036004351660243561274f565b3480156103f257600080fd5b5061020e612b6f565b34801561040757600080fd5b5061020e612b7e565b7f57495448445241575f46554e44535f524f4c450000000000000000000000000081565b60065484101561048e576040805160e560020a62461bcd02815260206004820152601f60248201527f5f7374616b65416d6f756e74203e3d206d696e456e6c697374416d6f756e7400604482015290519081900360640190fd5b600354604080517f23b872dd000000000000000000000000000000000000000000000000000000008152336004820152306024820152604481018790529051600160a060020a03909216916323b872dd916064808201926020929091908290030181600087803b15801561050157600080fd5b505af1158015610515573d6000803e3d6000fd5b505050506040513d602081101561052b57600080fd5b50511515610571576040805160e560020a62461bcd02815260206004820152600f60248201526000805160206135ae833981519152604482015290519081900360640190fd5b600480546040517f35012d7e000000000000000000000000000000000000000000000000000000008152339281018381526024820187905260448201889052306064830181905260a06084840190815260a48401879052600160a060020a03909416946335012d7e94909389938b93928a928a92919060c4018484808284378201915050975050505050505050600060405180830381600087803b15801561061857600080fd5b505af115801561062c573d6000803e3d6000fd5b5050505050505050565b60008061066560028481548110151561064b57fe5b600091825260209091200154600160a060020a0316610962565b91509150915091565b7f4355524154455f4348414c4c454e47455f524f4c45000000000000000000000081565b60008051602061358e83398151915281565b60008051602061358e8339815191526106bd3382612b8d565b61072d6107216106d26106d76106d286612c4f565b612dc5565b6107156040805190810160405280601f81526020017f20646f206e6f7420686176652074686520636f727265637420726f6c653a2000815250612dc5565b9063ffffffff612deb16565b6107156106d233612e62565b9015156107bb5760405160e560020a62461bcd0281526004018080602001828103825283818151815260200191508051906020019080838360005b83811015610780578181015183820152602001610768565b50505050905090810190601f1680156107ad5780820380516001836020036101000a031916815260200191505b509250505060405180910390fd5b5060088290556040805183815290517fea6c6084ca0283f30c459faead18d4a32783096c26aa5847e96e1eeec97edce89181900360200190a15050565b60007f57495448445241575f46554e44535f524f4c45000000000000000000000000006108253382612b8d565b61083a6107216106d26106d76106d286612c4f565b90151561088c5760405160e560020a62461bcd02815260040180806020018281038252838181518152602001915080519060200190808383600083811015610780578181015183820152602001610768565b506003546040805160e060020a63a9059cbb0281523360048201523080316024830152915191319450600160a060020a039092169163a9059cbb9160448083019260209291908290030181600087803b1580156108e857600080fd5b505af11580156108fc573d6000803e3d6000fd5b505050506040513d602081101561091257600080fd5b5050604080513381526020810184905281517f7084f5476618d8e60b11ef0d7d3f06914655adb8793e28ff7f018d4c76d505d5929181900390910190a15050565b600054600160a060020a031681565b600160a060020a0390811660009081526001602052604090205416908190565b600160a060020a03808316600090815260016020908152604080832054815160e060020a638da5cb5b028152915194169333938593638da5cb5b936004808201949293918390030190829087803b1580156109dc57600080fd5b505af11580156109f0573d6000803e3d6000fd5b505050506040513d6020811015610a0657600080fd5b5051600160a060020a031614610a66576040805160e560020a62461bcd02815260206004820152601760248201527f6f776e6572206973206e6f74207468652073656e646572000000000000000000604482015290519081900360640190fd5b600354604080517f23b872dd000000000000000000000000000000000000000000000000000000008152336004820152306024820152604481018590529051600160a060020a03909216916323b872dd916064808201926020929091908290030181600087803b158015610ad957600080fd5b505af1158015610aed573d6000803e3d6000fd5b505050506040513d6020811015610b0357600080fd5b50511515610b49576040805160e560020a62461bcd02815260206004820152600f60248201526000805160206135ae833981519152604482015290519081900360640190fd5b80600160a060020a03166335d9db53610bd28484600160a060020a0316633a4b66f16040518163ffffffff1660e060020a028152600401602060405180830381600087803b158015610b9a57600080fd5b505af1158015610bae573d6000803e3d6000fd5b505050506040513d6020811015610bc457600080fd5b50519063ffffffff612f0916565b6040518263ffffffff1660e060020a02815260040180828152602001915050600060405180830381600087803b158015610c0b57600080fd5b505af1158015610c1f573d6000803e3d6000fd5b505050507f8b05844824acf2db2f068e4006ef99b307ca4fe1a896d06e884700f1a9da3a6d838383600160a060020a0316633a4b66f16040518163ffffffff1660e060020a028152600401602060405180830381600087803b158015610c8457600080fd5b505af1158015610c98573d6000803e3d6000fd5b505050506040513d6020811015610cae57600080fd5b505160408051600160a060020a039094168452602084019290925282820152519081900360600190a1505050565b600160a060020a0381166000818152600160208181526040808420805473ffffffffffffffffffffffffffffffffffffffff19908116871790915560028054948501815585527f405787fa12a823e0f2b7631cc41b3ba8828b3321ca811111fa75cd3aa3bb5ace90930180549093168517909255815160e060020a633a4b66f1028152915185947f7583fed51a2ab4e582c68d93e281e0fcc2601ef4a7491d1d2d2dc511f6a912799486949193633a4b66f193600480850194929391928390030190829087803b158015610daf57600080fd5b505af1158015610dc3573d6000803e3d6000fd5b505050506040513d6020811015610dd957600080fd5b5051604080517fa035b1fe0000000000000000000000000000000000000000000000000000000081529051600160a060020a0386169163a035b1fe9160048083019260209291908290030181600087803b158015610e3657600080fd5b505af1158015610e4a573d6000803e3d6000fd5b505050506040513d6020811015610e6057600080fd5b505160408051600160a060020a039094168452602084019290925282820152519081900360600190a15050565b600160205260009081526040902054600160a060020a031681565b6000806007548410151515610f2d576040805160e560020a62461bcd02815260206004820152602260248201527f5f7374616b65416d6f756e74203e3d206d696e4368616c6c656e6765416d6f7560448201527f6e74000000000000000000000000000000000000000000000000000000000000606482015290519081900360840190fd5b600160a060020a0380861660009081526001602090815260408083205460035482517f23b872dd000000000000000000000000000000000000000000000000000000008152336004820152306024820152604481018b905292519186169750909416936323b872dd93606480840194938390030190829087803b158015610fb357600080fd5b505af1158015610fc7573d6000803e3d6000fd5b505050506040513d6020811015610fdd57600080fd5b50511515611023576040805160e560020a62461bcd02815260206004820152600f60248201526000805160206135ae833981519152604482015290519081900360640190fd5b600054339085908790600160a060020a031661103d612faa565b600160a060020a039485168152602081019390935290831660408084019190915292166060820152905190819003608001906000f080158015611084573d6000803e3d6000fd5b5060008054604080517fbe0384780000000000000000000000000000000000000000000000000000000081523360048201819052600160a060020a0380871660248401527f5550444154455f4d455441444154415f524f4c4500000000000000000000000060448401526064830191909152915194955091169263be0384789260848084019391929182900301818387803b15801561112257600080fd5b505af1158015611136573d6000803e3d6000fd5b50506040517f5cc07505000000000000000000000000000000000000000000000000000000008152602060048201818152875160248401528751600160a060020a0387169550635cc075059450889391928392604401919085019080838360005b838110156111af578181015183820152602001611197565b50505050905090810190601f1680156111dc5780820380516001836020036101000a031916815260200191505b5092505050600060405180830381600087803b1580156111fb57600080fd5b505af115801561120f573d6000803e3d6000fd5b5050600554604080517ff8242c32000000000000000000000000000000000000000000000000000000008152600160a060020a038681166004830152915191909216935063f8242c329250602480830192600092919082900301818387803b15801561127a57600080fd5b505af115801561128e573d6000803e3d6000fd5b5050505081600160a060020a0316636de149f56112e38685600160a060020a031663605cba826040518163ffffffff1660e060020a028152600401602060405180830381600087803b158015610b9a57600080fd5b6040518263ffffffff1660e060020a02815260040180828152602001915050600060405180830381600087803b15801561131c57600080fd5b505af1158015611330573d6000803e3d6000fd5b5050505081600160a060020a031663a2de8368611386600185600160a060020a031663ae1108756040518163ffffffff1660e060020a028152600401602060405180830381600087803b158015610b9a57600080fd5b6040518263ffffffff1660e060020a02815260040180828152602001915050600060405180830381600087803b1580156113bf57600080fd5b505af11580156113d3573d6000803e3d6000fd5b5050505081600160a060020a0316637daa30df826040518263ffffffff1660e060020a0281526004018082600160a060020a0316600160a060020a03168152602001915050600060405180830381600087803b15801561143257600080fd5b505af1158015611446573d6000803e3d6000fd5b505060408051600160a060020a03808a1682526020820189905285168183015290517fccd897ff376a9748c9a2e6af2a359a82cb0513a96ff431f17763ad057b1619089350908190036060019150a15050505050565b60008051602061358e8339815191526114b53382612b8d565b6114ca6107216106d26106d76106d286612c4f565b90151561151c5760405160e560020a62461bcd02815260040180806020018281038252838181518152602001915080519060200190808383600083811015610780578181015183820152602001610768565b5060068290556040805183815290517f1e2fffeb4ad73c19aa71037a187b8cb1a45220f05d6cce7c2801c106de268a8a9181900360200190a15050565b6000806000806000807f4355524154455f4348414c4c454e47455f524f4c45000000000000000000000061158d3382612b8d565b6115a26107216106d26106d76106d286612c4f565b9015156115f45760405160e560020a62461bcd02815260040180806020018281038252838181518152602001915080519060200190808383600083811015610780578181015183820152602001610768565b50600160a060020a0380891660009081526001602090815260408083205481517f605cba82000000000000000000000000000000000000000000000000000000008152915194169a508a9363605cba8293600480840194938390030190829087803b15801561166257600080fd5b505af1158015611676573d6000803e3d6000fd5b505050506040513d602081101561168c57600080fd5b50516008549096506116b6906116a990606463ffffffff612f1616565b879063ffffffff612f2b16565b6003546040805160e060020a63a9059cbb028152336004820152602481018490529051929750600160a060020a039091169163a9059cbb916044808201926020929091908290030181600087803b15801561171057600080fd5b505af1158015611724573d6000803e3d6000fd5b505050506040513d602081101561173a57600080fd5b5060009450505b86600160a060020a031663cfd6d7326040518163ffffffff1660e060020a028152600401602060405180830381600087803b15801561177f57600080fd5b505af1158015611793573d6000803e3d6000fd5b505050506040513d60208110156117a957600080fd5b5051841015611af05786600160a060020a031663b263b26e856040518263ffffffff1660e060020a02815260040180828152602001915050602060405180830381600087803b1580156117fb57600080fd5b505af115801561180f573d6000803e3d6000fd5b505050506040513d602081101561182557600080fd5b5051604080517f3f6fa6550000000000000000000000000000000000000000000000000000000081529051919450600160a060020a03851691633f6fa655916004808201926020929091908290030181600087803b15801561188657600080fd5b505af115801561189a573d6000803e3d6000fd5b505050506040513d60208110156118b057600080fd5b50511515611ae5576118c8868663ffffffff612f5416565b9150600360009054906101000a9004600160a060020a0316600160a060020a031663a9059cbb84600160a060020a031663534db0e26040518163ffffffff1660e060020a028152600401602060405180830381600087803b15801561192c57600080fd5b505af1158015611940573d6000803e3d6000fd5b505050506040513d602081101561195657600080fd5b50516040805160e060020a633a4b66f102815290516119ed916119e0918c91600160a060020a038b1691633a4b66f1916004808201926020929091908290030181600087803b1580156119a857600080fd5b505af11580156119bc573d6000803e3d6000fd5b505050506040513d60208110156119d257600080fd5b50519063ffffffff612f1616565b869063ffffffff612f2b16565b6040518363ffffffff1660e060020a0281526004018083600160a060020a0316600160a060020a0316815260200182815260200192505050602060405180830381600087803b158015611a3f57600080fd5b505af1158015611a53573d6000803e3d6000fd5b505050506040513d6020811015611a6957600080fd5b5050604080517f164d90e0000000000000000000000000000000000000000000000000000000008152600160048201529051600160a060020a0385169163164d90e091602480830192600092919082900301818387803b158015611acc57600080fd5b505af1158015611ae0573d6000803e3d6000fd5b505050505b600190930192611741565b86600160a060020a03166335d9db5360006040518263ffffffff1660e060020a02815260040180828152602001915050600060405180830381600087803b158015611b3a57600080fd5b505af1158015611b4e573d6000803e3d6000fd5b5050505086600160a060020a0316636de149f560006040518263ffffffff1660e060020a02815260040180828152602001915050600060405180830381600087803b158015611b9c57600080fd5b505af1158015611bb0573d6000803e3d6000fd5b5050505086600160a060020a031663a2de836860006040518263ffffffff1660e060020a02815260040180828152602001915050600060405180830381600087803b158015611bfe57600080fd5b505af1158015611c12573d6000803e3d6000fd5b5050604080517f7b7892040000000000000000000000000000000000000000000000000000000081526000600482018190529151600160a060020a038c169450637b78920493506024808301939282900301818387803b158015611c7557600080fd5b505af1158015611c89573d6000803e3d6000fd5b505060408051600160a060020a038c16815290517f9d9f99a36ef64966814c1f89a7a64fcb0132cbd085184a9666469302f32b92c49350908190036020019150a15050505050505050565b60008060008060007f4355524154455f4348414c4c454e47455f524f4c450000000000000000000000611d073382612b8d565b611d1c6107216106d26106d76106d286612c4f565b901515611d6e5760405160e560020a62461bcd02815260040180806020018281038252838181518152602001915080519060200190808383600083811015610780578181015183820152602001610768565b50600160a060020a0380881660009081526001602090815260408083205481517f605cba82000000000000000000000000000000000000000000000000000000008152915194169950899363605cba8293600480840194938390030190829087803b158015611ddc57600080fd5b505af1158015611df0573d6000803e3d6000fd5b505050506040513d6020811015611e0657600080fd5b5051600854909550611e23906119e090606463ffffffff612f1616565b6003546040805160e060020a63a9059cbb028152336004820152602481018490529051929650600160a060020a039091169163a9059cbb916044808201926020929091908290030181600087803b158015611e7d57600080fd5b505af1158015611e91573d6000803e3d6000fd5b505050506040513d6020811015611ea757600080fd5b50506003546040805160e060020a638da5cb5b0281529051600160a060020a039283169263a9059cbb92908a1691638da5cb5b916004808201926020929091908290030181600087803b158015611efd57600080fd5b505af1158015611f11573d6000803e3d6000fd5b505050506040513d6020811015611f2757600080fd5b5051611f39888863ffffffff612f5416565b6040518363ffffffff1660e060020a0281526004018083600160a060020a0316600160a060020a0316815260200182815260200192505050602060405180830381600087803b158015611f8b57600080fd5b505af1158015611f9f573d6000803e3d6000fd5b505050506040513d6020811015611fb557600080fd5b5060009350505b85600160a060020a031663cfd6d7326040518163ffffffff1660e060020a028152600401602060405180830381600087803b158015611ffa57600080fd5b505af115801561200e573d6000803e3d6000fd5b505050506040513d602081101561202457600080fd5b50518310156121b85785600160a060020a031663b263b26e846040518263ffffffff1660e060020a02815260040180828152602001915050602060405180830381600087803b15801561207657600080fd5b505af115801561208a573d6000803e3d6000fd5b505050506040513d60208110156120a057600080fd5b5051604080517f3f6fa6550000000000000000000000000000000000000000000000000000000081529051919350600160a060020a03841691633f6fa655916004808201926020929091908290030181600087803b15801561210157600080fd5b505af1158015612115573d6000803e3d6000fd5b505050506040513d602081101561212b57600080fd5b505115156121ad57604080517f164d90e0000000000000000000000000000000000000000000000000000000008152600160048201529051600160a060020a0384169163164d90e091602480830192600092919082900301818387803b15801561219457600080fd5b505af11580156121a8573d6000803e3d6000fd5b505050505b600190920191611fbc565b85600160a060020a0316636de149f560006040518263ffffffff1660e060020a02815260040180828152602001915050600060405180830381600087803b15801561220257600080fd5b505af1158015612216573d6000803e3d6000fd5b5050505085600160a060020a031663a2de836860006040518263ffffffff1660e060020a02815260040180828152602001915050600060405180830381600087803b15801561226457600080fd5b505af1158015612278573d6000803e3d6000fd5b505060408051600160a060020a038b16815290517f125014e75e2aead4a1c8a35e9bb786a430fc1ba6354cbd9845802d3603abd0b09350908190036020019150a150505050505050565b600160a060020a03808216600090815260016020908152604080832054815160e060020a638da5cb5b02815291519416938493638da5cb5b93600480850194919392918390030190829087803b15801561231b57600080fd5b505af115801561232f573d6000803e3d6000fd5b505050506040513d602081101561234557600080fd5b5051600160a060020a031633146123a6576040805160e560020a62461bcd02815260206004820152601760248201527f73656e646572206973206e6f7420746865206f776e6572000000000000000000604482015290519081900360640190fd5b600081600160a060020a0316633a4b66f16040518163ffffffff1660e060020a028152600401602060405180830381600087803b1580156123e657600080fd5b505af11580156123fa573d6000803e3d6000fd5b505050506040513d602081101561241057600080fd5b505111156125d457600360009054906101000a9004600160a060020a0316600160a060020a031663a9059cbb82600160a060020a0316638da5cb5b6040518163ffffffff1660e060020a028152600401602060405180830381600087803b15801561247a57600080fd5b505af115801561248e573d6000803e3d6000fd5b505050506040513d60208110156124a457600080fd5b50516040805160e060020a633a4b66f10281529051600160a060020a03861691633a4b66f19160048083019260209291908290030181600087803b1580156124eb57600080fd5b505af11580156124ff573d6000803e3d6000fd5b505050506040513d602081101561251557600080fd5b50516040805160e060020a63ffffffff8616028152600160a060020a03909316600484015260248301919091525160448083019260209291908290030181600087803b15801561256457600080fd5b505af1158015612578573d6000803e3d6000fd5b505050506040513d602081101561258e57600080fd5b505115156125d4576040805160e560020a62461bcd02815260206004820152600f60248201526000805160206135ae833981519152604482015290519081900360640190fd5b604080517f7b7892040000000000000000000000000000000000000000000000000000000081526000600482018190529151600160a060020a03841692637b789204926024808201939182900301818387803b15801561263357600080fd5b505af1158015612647573d6000803e3d6000fd5b505060408051600160a060020a038616815290517fc48322c2e165c864176005884983dd81c87a9fc8258ca6a1967d17b26cd8d0e39350908190036020019150a15050565b60008051602061358e8339815191526126a53382612b8d565b6126ba6107216106d26106d76106d286612c4f565b90151561270c5760405160e560020a62461bcd02815260040180806020018281038252838181518152602001915080519060200190808383600083811015610780578181015183820152602001610768565b5060078290556040805183815290517fec0975e9a985b0702fafca3ee144a642dfe5c48de1b5e1c934e0e4131ce5fcbe9181900360200190a15050565b60025490565b600160a060020a03808316600090815260016020908152604080832054815160e060020a633a4b66f102815291519416938492633a4b66f1926004808201939182900301818787803b1580156127a457600080fd5b505af11580156127b8573d6000803e3d6000fd5b505050506040513d60208110156127ce57600080fd5b50516040805160e060020a638da5cb5b02815290519192503391600160a060020a03851691638da5cb5b9160048083019260209291908290030181600087803b15801561281a57600080fd5b505af115801561282e573d6000803e3d6000fd5b505050506040513d602081101561284457600080fd5b5051600160a060020a0316146128a4576040805160e560020a62461bcd02815260206004820152601760248201527f6f776e6572206973206e6f74207468652073656e646572000000000000000000604482015290519081900360640190fd5b808311156128fc576040805160e560020a62461bcd02815260206004820152601560248201527f5f7374616b65416d6f756e74203c3d207374616b650000000000000000000000604482015290519081900360640190fd5b600654838203101561297e576040805160e560020a62461bcd02815260206004820152602760248201527f7374616b65202d205f7374616b65416d6f756e74203e3d206d696e456e6c697360448201527f74416d6f756e7400000000000000000000000000000000000000000000000000606482015290519081900360840190fd5b6003546040805160e060020a63a9059cbb028152336004820152602481018690529051600160a060020a039092169163a9059cbb916044808201926020929091908290030181600087803b1580156129d557600080fd5b505af11580156129e9573d6000803e3d6000fd5b505050506040513d60208110156129ff57600080fd5b50511515612a45576040805160e560020a62461bcd02815260206004820152600f60248201526000805160206135ae833981519152604482015290519081900360640190fd5b600160a060020a0382166335d9db53612a64838663ffffffff612f5416565b6040518263ffffffff1660e060020a02815260040180828152602001915050600060405180830381600087803b158015612a9d57600080fd5b505af1158015612ab1573d6000803e3d6000fd5b505050507f5ee9537083cb767f9e599a17876a9c597197deba435082e0b88c4da925d4599e848484600160a060020a0316633a4b66f16040518163ffffffff1660e060020a028152600401602060405180830381600087803b158015612b1657600080fd5b505af1158015612b2a573d6000803e3d6000fd5b505050506040513d6020811015612b4057600080fd5b505160408051600160a060020a039094168452602084019290925282820152519081900360600190a150505050565b600354600160a060020a031681565b600454600160a060020a031681565b60008054600160a060020a03161580612c46575060008054604080517f6d6712d8000000000000000000000000000000000000000000000000000000008152600160a060020a0387811660048301523060248301526044820187905291519190921692636d6712d892606480820193602093909283900390910190829087803b158015612c1957600080fd5b505af1158015612c2d573d6000803e3d6000fd5b505050506040513d6020811015612c4357600080fd5b50515b90505b92915050565b6040805160208082528183019092526060918291600091829182918591908082016104008038833901905050945060009350600092505b6020831015612d13576008830260020a870291507fff00000000000000000000000000000000000000000000000000000000000000821615612d0857818585815181101515612cd157fe5b9060200101907effffffffffffffffffffffffffffffffffffffffffffffffffffffffffffff1916908160001a9053506001909301925b600190920191612c86565b836040519080825280601f01601f191660200182016040528015612d41578160200160208202803883390190505b509050600092505b83831015612dbb578483815181101515612d5f57fe5b90602001015160f860020a900460f860020a028184815181101515612d8057fe5b9060200101907effffffffffffffffffffffffffffffffffffffffffffffffffffffffffffff1916908160001a905350600190920191612d49565b9695505050505050565b612dcd612fba565b50604080518082019091528151815260209182019181019190915290565b606080600083600001518560000151016040519080825280601f01601f191660200182016040528015612e28578160200160208202803883390190505b509150602082019050612e448186602001518760000151612f66565b845160208501518551612e5a9284019190612f66565b509392505050565b60408051601480825281830190925260609182916000916020820161028080388339019050509150600090505b6014811015612f02578060130360080260020a84600160a060020a0316811515612eb557fe5b0460f860020a028282815181101515612eca57fe5b9060200101907effffffffffffffffffffffffffffffffffffffffffffffffffffffffffffff1916908160001a905350600101612e8f565b5092915050565b81810182811015612c4957fe5b60008183811515612f2357fe5b049392505050565b6000821515612f3c57506000612c49565b50818102818382811515612f4c57fe5b0414612c4957fe5b600082821115612f6057fe5b50900390565b60005b60208210612f8b578251845260209384019390920191601f1990910190612f69565b50905182516020929092036101000a6000190180199091169116179052565b6040516105bc80612fd283390190565b604080518082019091526000808252602082015290560060806040526002805460a060020a60ff021916905534801561002057600080fd5b506040516080806105bc833981016040908152815160208301519183015160609093015160008054600160a060020a03928316600160a060020a031991821617909155600280549383169382169390931790925560039290925560048054929093169116179055426005556105228061009a6000396000f3006080604052600436106100a35763ffffffff7c0100000000000000000000000000000000000000000000000000000000600035041663164d90e081146100a8578063392f37e9146100c45780633a4b66f11461014e5780633f6fa6551461017557806345d61ded1461019e578063534db0e2146101dc5780635cc07505146101f1578063b80777ea1461024a578063bc7c55ed1461025f578063fff139cf14610274575b600080fd5b3480156100b457600080fd5b506100c26004351515610289565b005b3480156100d057600080fd5b506100d9610306565b6040805160208082528351818301528351919283929083019185019080838360005b838110156101135781810151838201526020016100fb565b50505050905090810190601f1680156101405780820380516001836020036101000a031916815260200191505b509250505060405180910390f35b34801561015a57600080fd5b50610163610393565b60408051918252519081900360200190f35b34801561018157600080fd5b5061018a610399565b604080519115158252519081900360200190f35b3480156101aa57600080fd5b506101b36103ba565b6040805173ffffffffffffffffffffffffffffffffffffffff9092168252519081900360200190f35b3480156101e857600080fd5b506101b36103d6565b3480156101fd57600080fd5b506040805160206004803580820135601f81018490048402850184019095528484526100c29436949293602493928401919081908401838280828437509497506103f29650505050505050565b34801561025657600080fd5b506101636103fe565b34801561026b57600080fd5b506101b3610404565b34801561028057600080fd5b50610163610420565b6002805474ff00000000000000000000000000000000000000001916740100000000000000000000000000000000000000008315159081029190911790915560408051308152602081019290925280517f1e26517183efe4efd75405d381f0fd1aa3fc89740db3c17a9c244127ca64c79c9281900390910190a150565b60018054604080516020600284861615610100026000190190941693909304601f8101849004840282018401909252818152929183018282801561038b5780601f106103605761010080835404028352916020019161038b565b820191906000526020600020905b81548152906001019060200180831161036e57829003601f168201915b505050505081565b60035481565b60025474010000000000000000000000000000000000000000900460ff1681565b60005473ffffffffffffffffffffffffffffffffffffffff1681565b60025473ffffffffffffffffffffffffffffffffffffffff1681565b6103fb81610444565b50565b60055481565b60045473ffffffffffffffffffffffffffffffffffffffff1681565b7f5550444154455f4d455441444154415f524f4c4500000000000000000000000081565b805161045790600190602084019061045b565b5050565b828054600181600116156101000203166002900490600052602060002090601f016020900481019282601f1061049c57805160ff19168380011785556104c9565b828001600101855582156104c9579182015b828111156104c95782518255916020019190600101906104ae565b506104d59291506104d9565b5090565b6104f391905b808211156104d557600081556001016104df565b905600a165627a7a723058202e8996303cca71c838c6d79f613fe88aa6346d0efa09e12e6bebe2ec4479329200294348414e47455f53455454494e47535f524f4c450000000000000000000000007472616e73666572206661696c65640000000000000000000000000000000000a165627a7a7230582057fbb20d5871004e174c4f0ba46bbb3d7aab820906e2d8e977cb6c31396a451d0029",
  "source": "pragma solidity ^0.4.24;\n\nimport \"@settlemint/solidity-mint/contracts/marketplaces/tokencuratedregistry/TokenCuratedRegistry.sol\";\nimport \"@settlemint/solidity-mint/contracts/marketplaces/tokensystem/Token.sol\";\n\n\n/**\n * Contains all sensors\n */\ncontract SensorRegistry is TokenCuratedRegistry {\n\n  /**\n  @dev Contructor\n  @notice                Sets the address for token\n  @param _gateKeeper     Address of the gatekeeper\n  @param _token          Address of the token\n  */\n  constructor(\n    address _gateKeeper,\n    address _token,\n    address _listingFactory,\n    address _challengeRegistry,\n    uint _minEnlistAmount,\n    uint _minChallengeAmount,\n    uint _curatorPercentage\n  )\n    TokenCuratedRegistry(\n      _gateKeeper,\n      _token,\n      _listingFactory,\n      _challengeRegistry,\n      _minEnlistAmount,\n      _minChallengeAmount,\n      _curatorPercentage\n    )\n    public\n  {}\n}\n",
  "sourcePath": "/Users/peterjanbrone/databrokerdao/databrokerdao-dapi/contracts/sensor/SensorRegistry.sol",
  "compiler": {
    "name": "solc",
    "version": "0.4.24+commit.e67f0147.Emscripten.clang"
  },
  "schemaVersion": "3.0.0-beta.0",
  "updatedAt": "2018-09-25T20:20:55.819Z"
}