{
  "contractName": "TokenCuratedRegistry",
  "abi": [
    {
      "constant": true,
      "inputs": [],
      "name": "WITHDRAW_FUNDS_ROLE",
      "outputs": [
        {
          "name": "",
          "type": "bytes32"
        }
      ],
      "payable": false,
      "stateMutability": "view",
      "type": "function"
    },
    {
      "constant": true,
      "inputs": [],
      "name": "CURATE_CHALLENGE_ROLE",
      "outputs": [
        {
          "name": "",
          "type": "bytes32"
        }
      ],
      "payable": false,
      "stateMutability": "view",
      "type": "function"
    },
    {
      "constant": true,
      "inputs": [],
      "name": "CHANGE_SETTINGS_ROLE",
      "outputs": [
        {
          "name": "",
          "type": "bytes32"
        }
      ],
      "payable": false,
      "stateMutability": "view",
      "type": "function"
    },
    {
      "constant": true,
      "inputs": [],
      "name": "gateKeeper",
      "outputs": [
        {
          "name": "",
          "type": "address"
        }
      ],
      "payable": false,
      "stateMutability": "view",
      "type": "function"
    },
    {
      "constant": true,
      "inputs": [
        {
          "name": "",
          "type": "address"
        }
      ],
      "name": "listings",
      "outputs": [
        {
          "name": "",
          "type": "address"
        }
      ],
      "payable": false,
      "stateMutability": "view",
      "type": "function"
    },
    {
      "constant": true,
      "inputs": [],
      "name": "token",
      "outputs": [
        {
          "name": "",
          "type": "address"
        }
      ],
      "payable": false,
      "stateMutability": "view",
      "type": "function"
    },
    {
      "constant": true,
      "inputs": [],
      "name": "listingFactory",
      "outputs": [
        {
          "name": "",
          "type": "address"
        }
      ],
      "payable": false,
      "stateMutability": "view",
      "type": "function"
    },
    {
      "inputs": [
        {
          "name": "_gateKeeper",
          "type": "address"
        },
        {
          "name": "_token",
          "type": "address"
        },
        {
          "name": "_listingFactory",
          "type": "address"
        },
        {
          "name": "_challengeRegistry",
          "type": "address"
        },
        {
          "name": "_minEnlistAmount",
          "type": "uint256"
        },
        {
          "name": "_minChallengeAmount",
          "type": "uint256"
        },
        {
          "name": "_curatorPercentage",
          "type": "uint256"
        }
      ],
      "payable": false,
      "stateMutability": "nonpayable",
      "type": "constructor"
    },
    {
      "anonymous": false,
      "inputs": [
        {
          "indexed": false,
          "name": "listing",
          "type": "address"
        },
        {
          "indexed": false,
          "name": "stake",
          "type": "uint256"
        },
        {
          "indexed": false,
          "name": "price",
          "type": "uint256"
        }
      ],
      "name": "Enlisted",
      "type": "event"
    },
    {
      "anonymous": false,
      "inputs": [
        {
          "indexed": false,
          "name": "listing",
          "type": "address"
        },
        {
          "indexed": false,
          "name": "stake",
          "type": "uint256"
        },
        {
          "indexed": false,
          "name": "challenge",
          "type": "address"
        }
      ],
      "name": "Challenged",
      "type": "event"
    },
    {
      "anonymous": false,
      "inputs": [
        {
          "indexed": false,
          "name": "listing",
          "type": "address"
        }
      ],
      "name": "Unlisted",
      "type": "event"
    },
    {
      "anonymous": false,
      "inputs": [
        {
          "indexed": false,
          "name": "listing",
          "type": "address"
        }
      ],
      "name": "ChallengeApproved",
      "type": "event"
    },
    {
      "anonymous": false,
      "inputs": [
        {
          "indexed": false,
          "name": "listing",
          "type": "address"
        }
      ],
      "name": "ChallengeDenied",
      "type": "event"
    },
    {
      "anonymous": false,
      "inputs": [
        {
          "indexed": false,
          "name": "listing",
          "type": "address"
        },
        {
          "indexed": false,
          "name": "increasedBy",
          "type": "uint256"
        },
        {
          "indexed": false,
          "name": "newStake",
          "type": "uint256"
        }
      ],
      "name": "Increased",
      "type": "event"
    },
    {
      "anonymous": false,
      "inputs": [
        {
          "indexed": false,
          "name": "listing",
          "type": "address"
        },
        {
          "indexed": false,
          "name": "decreasedBy",
          "type": "uint256"
        },
        {
          "indexed": false,
          "name": "newStake",
          "type": "uint256"
        }
      ],
      "name": "Decreased",
      "type": "event"
    },
    {
      "anonymous": false,
      "inputs": [
        {
          "indexed": false,
          "name": "by",
          "type": "address"
        },
        {
          "indexed": false,
          "name": "balance",
          "type": "uint256"
        }
      ],
      "name": "Withdrawn",
      "type": "event"
    },
    {
      "anonymous": false,
      "inputs": [
        {
          "indexed": false,
          "name": "value",
          "type": "uint256"
        }
      ],
      "name": "MinEnlistAmountChanged",
      "type": "event"
    },
    {
      "anonymous": false,
      "inputs": [
        {
          "indexed": false,
          "name": "value",
          "type": "uint256"
        }
      ],
      "name": "MinChallengeAmountChanged",
      "type": "event"
    },
    {
      "anonymous": false,
      "inputs": [
        {
          "indexed": false,
          "name": "value",
          "type": "uint256"
        }
      ],
      "name": "CuratorPercentageChanged",
      "type": "event"
    },
    {
      "constant": false,
      "inputs": [
        {
          "name": "_stakeAmount",
          "type": "uint256"
        },
        {
          "name": "_price",
          "type": "uint256"
        },
        {
          "name": "_metadata",
          "type": "string"
        }
      ],
      "name": "enlist",
      "outputs": [],
      "payable": false,
      "stateMutability": "nonpayable",
      "type": "function"
    },
    {
      "constant": false,
      "inputs": [
        {
          "name": "_listing",
          "type": "address"
        }
      ],
      "name": "addListing",
      "outputs": [],
      "payable": false,
      "stateMutability": "nonpayable",
      "type": "function"
    },
    {
      "constant": false,
      "inputs": [
        {
          "name": "_listing",
          "type": "address"
        }
      ],
      "name": "unlist",
      "outputs": [],
      "payable": false,
      "stateMutability": "nonpayable",
      "type": "function"
    },
    {
      "constant": false,
      "inputs": [
        {
          "name": "_listing",
          "type": "address"
        },
        {
          "name": "_stakeAmount",
          "type": "uint256"
        }
      ],
      "name": "increase",
      "outputs": [],
      "payable": false,
      "stateMutability": "nonpayable",
      "type": "function"
    },
    {
      "constant": false,
      "inputs": [
        {
          "name": "_listing",
          "type": "address"
        },
        {
          "name": "_stakeAmount",
          "type": "uint256"
        }
      ],
      "name": "decrease",
      "outputs": [],
      "payable": false,
      "stateMutability": "nonpayable",
      "type": "function"
    },
    {
      "constant": false,
      "inputs": [
        {
          "name": "_listing",
          "type": "address"
        },
        {
          "name": "_stakeAmount",
          "type": "uint256"
        },
        {
          "name": "_metadata",
          "type": "string"
        }
      ],
      "name": "challenge",
      "outputs": [],
      "payable": false,
      "stateMutability": "nonpayable",
      "type": "function"
    },
    {
      "constant": false,
      "inputs": [
        {
          "name": "_listing",
          "type": "address"
        }
      ],
      "name": "approveChallenge",
      "outputs": [],
      "payable": false,
      "stateMutability": "nonpayable",
      "type": "function"
    },
    {
      "constant": false,
      "inputs": [
        {
          "name": "_listing",
          "type": "address"
        }
      ],
      "name": "denyChallenge",
      "outputs": [],
      "payable": false,
      "stateMutability": "nonpayable",
      "type": "function"
    },
    {
      "constant": false,
      "inputs": [],
      "name": "withdraw",
      "outputs": [],
      "payable": false,
      "stateMutability": "nonpayable",
      "type": "function"
    },
    {
      "constant": false,
      "inputs": [
        {
          "name": "_minEnlistAmount",
          "type": "uint256"
        }
      ],
      "name": "setMinEnlistAmount",
      "outputs": [],
      "payable": false,
      "stateMutability": "nonpayable",
      "type": "function"
    },
    {
      "constant": false,
      "inputs": [
        {
          "name": "_minChallengeAmount",
          "type": "uint256"
        }
      ],
      "name": "setMinChallengeAmount",
      "outputs": [],
      "payable": false,
      "stateMutability": "nonpayable",
      "type": "function"
    },
    {
      "constant": false,
      "inputs": [
        {
          "name": "_curatorPercentage",
          "type": "uint256"
        }
      ],
      "name": "setCuratorPercentage",
      "outputs": [],
      "payable": false,
      "stateMutability": "nonpayable",
      "type": "function"
    },
    {
      "constant": true,
      "inputs": [],
      "name": "getIndexLength",
      "outputs": [
        {
          "name": "length",
          "type": "uint256"
        }
      ],
      "payable": false,
      "stateMutability": "view",
      "type": "function"
    },
    {
      "constant": true,
      "inputs": [
        {
          "name": "index",
          "type": "uint256"
        }
      ],
      "name": "getByIndex",
      "outputs": [
        {
          "name": "key",
          "type": "address"
        },
        {
          "name": "contractAddress",
          "type": "address"
        }
      ],
      "payable": false,
      "stateMutability": "view",
      "type": "function"
    },
    {
      "constant": true,
      "inputs": [
        {
          "name": "_key",
          "type": "address"
        }
      ],
      "name": "getByKey",
      "outputs": [
        {
          "name": "key",
          "type": "address"
        },
        {
          "name": "contractAddress",
          "type": "address"
        }
      ],
      "payable": false,
      "stateMutability": "view",
      "type": "function"
    }
  ],
  "bytecode": "0x608060405260006006556000600755600060085534801561001f57600080fd5b5060405160e0806132a483398101604090815281516020830151918301516060840151608085015160a086015160c09096015160008054600160a060020a0319908116600160a060020a0397881617825560038054821698881698909817909755600480548816958716959095179094556005805490961694909216939093179093556006919091556007929092556008556131e39081906100c190396000f30060806040526004361061010e5763ffffffff60e060020a6000350416631cbcd9748114610113578063236b237c1461013a5780632d883a731461016457806332a65198146101a25780633426ddd5146101b7578063346fa921146101cc5780633ccfd60b146101e457806345d61ded146101f9578063498770381461022a578063522afaec1461024b57806359d5da891461026f57806365d96c82146102905780636c3344eb146102b157806383b7113e1461031a57806392f60b961461033257806399b6c1c614610353578063bde3672d14610374578063de29ee6814610395578063e1ba7d01146103ad578063f27ac4d9146103c2578063fc0c546a146103e6578063fe8cde34146103fb575b600080fd5b34801561011f57600080fd5b50610128610410565b60408051918252519081900360200190f35b34801561014657600080fd5b5061016260048035906024803591604435918201910135610434565b005b34801561017057600080fd5b5061017c600435610636565b60408051600160a060020a03938416815291909216602082015281519081900390910190f35b3480156101ae57600080fd5b5061012861066e565b3480156101c357600080fd5b50610128610692565b3480156101d857600080fd5b506101626004356106a4565b3480156101f057600080fd5b5061016261074a565b34801561020557600080fd5b5061020e61088e565b60408051600160a060020a039092168252519081900360200190f35b34801561023657600080fd5b5061017c600160a060020a036004351661089d565b34801561025757600080fd5b50610162600160a060020a03600435166024356108bd565b34801561027b57600080fd5b50610162600160a060020a0360043516610c17565b34801561029c57600080fd5b5061020e600160a060020a0360043516610dc8565b3480156102bd57600080fd5b50604080516020600460443581810135601f8101849004840285018401909552848452610162948235600160a060020a0316946024803595369594606494920191908190840183828082843750949750610de39650505050505050565b34801561032657600080fd5b506101626004356113d7565b34801561033e57600080fd5b50610162600160a060020a036004351661147d565b34801561035f57600080fd5b50610162600160a060020a0360043516611be1565b34801561038057600080fd5b50610162600160a060020a03600435166121b8565b3480156103a157600080fd5b50610162600435612582565b3480156103b957600080fd5b50610128612628565b3480156103ce57600080fd5b50610162600160a060020a036004351660243561262e565b3480156103f257600080fd5b5061020e612a4e565b34801561040757600080fd5b5061020e612a5d565b7f57495448445241575f46554e44535f524f4c450000000000000000000000000081565b60065484101561048e576040805160e560020a62461bcd02815260206004820152601f60248201527f5f7374616b65416d6f756e74203e3d206d696e456e6c697374416d6f756e7400604482015290519081900360640190fd5b600354604080517f23b872dd000000000000000000000000000000000000000000000000000000008152336004820152306024820152604481018790529051600160a060020a03909216916323b872dd916064808201926020929091908290030181600087803b15801561050157600080fd5b505af1158015610515573d6000803e3d6000fd5b505050506040513d602081101561052b57600080fd5b50511515610571576040805160e560020a62461bcd02815260206004820152600f6024820152600080516020613198833981519152604482015290519081900360640190fd5b600480546040517f35012d7e000000000000000000000000000000000000000000000000000000008152339281018381526024820187905260448201889052306064830181905260a06084840190815260a48401879052600160a060020a03909416946335012d7e94909389938b93928a928a92919060c4018484808284378201915050975050505050505050600060405180830381600087803b15801561061857600080fd5b505af115801561062c573d6000803e3d6000fd5b5050505050505050565b60008061066560028481548110151561064b57fe5b600091825260209091200154600160a060020a031661089d565b91509150915091565b7f4355524154455f4348414c4c454e47455f524f4c45000000000000000000000081565b60008051602061317883398151915281565b6000805160206131788339815191526106bd3382612a6c565b151561070e576040805160e560020a62461bcd0281526020600482015260216024820152600080516020613158833981519152604482015260f860020a607302606482015290519081900360840190fd5b60088290556040805183815290517fea6c6084ca0283f30c459faead18d4a32783096c26aa5847e96e1eeec97edce89181900360200190a15050565b60007f57495448445241575f46554e44535f524f4c45000000000000000000000000006107773382612a6c565b15156107c8576040805160e560020a62461bcd0281526020600482015260216024820152600080516020613158833981519152604482015260f860020a607302606482015290519081900360840190fd5b6003546040805160e060020a63a9059cbb0281523360048201523080316024830152915191319450600160a060020a039092169163a9059cbb9160448083019260209291908290030181600087803b15801561082357600080fd5b505af1158015610837573d6000803e3d6000fd5b505050506040513d602081101561084d57600080fd5b5050604080513381526020810184905281517f7084f5476618d8e60b11ef0d7d3f06914655adb8793e28ff7f018d4c76d505d5929181900390910190a15050565b600054600160a060020a031681565b600160a060020a0390811660009081526001602052604090205416908190565b600160a060020a03808316600090815260016020908152604080832054815160e060020a638da5cb5b028152915194169333938593638da5cb5b936004808201949293918390030190829087803b15801561091757600080fd5b505af115801561092b573d6000803e3d6000fd5b505050506040513d602081101561094157600080fd5b5051600160a060020a0316146109a1576040805160e560020a62461bcd02815260206004820152601760248201527f6f776e6572206973206e6f74207468652073656e646572000000000000000000604482015290519081900360640190fd5b600354604080517f23b872dd000000000000000000000000000000000000000000000000000000008152336004820152306024820152604481018590529051600160a060020a03909216916323b872dd916064808201926020929091908290030181600087803b158015610a1457600080fd5b505af1158015610a28573d6000803e3d6000fd5b505050506040513d6020811015610a3e57600080fd5b50511515610a84576040805160e560020a62461bcd02815260206004820152600f6024820152600080516020613198833981519152604482015290519081900360640190fd5b80600160a060020a03166335d9db53610b0d8484600160a060020a0316633a4b66f16040518163ffffffff1660e060020a028152600401602060405180830381600087803b158015610ad557600080fd5b505af1158015610ae9573d6000803e3d6000fd5b505050506040513d6020811015610aff57600080fd5b50519063ffffffff612b2e16565b6040518263ffffffff1660e060020a02815260040180828152602001915050600060405180830381600087803b158015610b4657600080fd5b505af1158015610b5a573d6000803e3d6000fd5b505050507f8b05844824acf2db2f068e4006ef99b307ca4fe1a896d06e884700f1a9da3a6d838383600160a060020a0316633a4b66f16040518163ffffffff1660e060020a028152600401602060405180830381600087803b158015610bbf57600080fd5b505af1158015610bd3573d6000803e3d6000fd5b505050506040513d6020811015610be957600080fd5b505160408051600160a060020a039094168452602084019290925282820152519081900360600190a1505050565b600160a060020a0381166000818152600160208181526040808420805473ffffffffffffffffffffffffffffffffffffffff19908116871790915560028054948501815585527f405787fa12a823e0f2b7631cc41b3ba8828b3321ca811111fa75cd3aa3bb5ace90930180549093168517909255815160e060020a633a4b66f1028152915185947f7583fed51a2ab4e582c68d93e281e0fcc2601ef4a7491d1d2d2dc511f6a912799486949193633a4b66f193600480850194929391928390030190829087803b158015610cea57600080fd5b505af1158015610cfe573d6000803e3d6000fd5b505050506040513d6020811015610d1457600080fd5b5051604080517fa035b1fe0000000000000000000000000000000000000000000000000000000081529051600160a060020a0386169163a035b1fe9160048083019260209291908290030181600087803b158015610d7157600080fd5b505af1158015610d85573d6000803e3d6000fd5b505050506040513d6020811015610d9b57600080fd5b505160408051600160a060020a039094168452602084019290925282820152519081900360600190a15050565b600160205260009081526040902054600160a060020a031681565b6000806007548410151515610e68576040805160e560020a62461bcd02815260206004820152602260248201527f5f7374616b65416d6f756e74203e3d206d696e4368616c6c656e6765416d6f7560448201527f6e74000000000000000000000000000000000000000000000000000000000000606482015290519081900360840190fd5b600160a060020a0380861660009081526001602090815260408083205460035482517f23b872dd000000000000000000000000000000000000000000000000000000008152336004820152306024820152604481018b905292519186169750909416936323b872dd93606480840194938390030190829087803b158015610eee57600080fd5b505af1158015610f02573d6000803e3d6000fd5b505050506040513d6020811015610f1857600080fd5b50511515610f5e576040805160e560020a62461bcd02815260206004820152600f6024820152600080516020613198833981519152604482015290519081900360640190fd5b600054339085908790600160a060020a0316610f78612b8b565b600160a060020a039485168152602081019390935290831660408084019190915292166060820152905190819003608001906000f080158015610fbf573d6000803e3d6000fd5b5060008054604080517fbe0384780000000000000000000000000000000000000000000000000000000081523360048201819052600160a060020a0380871660248401527f5550444154455f4d455441444154415f524f4c4500000000000000000000000060448401526064830191909152915194955091169263be0384789260848084019391929182900301818387803b15801561105d57600080fd5b505af1158015611071573d6000803e3d6000fd5b50506040517f5cc07505000000000000000000000000000000000000000000000000000000008152602060048201818152875160248401528751600160a060020a0387169550635cc075059450889391928392604401919085019080838360005b838110156110ea5781810151838201526020016110d2565b50505050905090810190601f1680156111175780820380516001836020036101000a031916815260200191505b5092505050600060405180830381600087803b15801561113657600080fd5b505af115801561114a573d6000803e3d6000fd5b5050600554604080517ff8242c32000000000000000000000000000000000000000000000000000000008152600160a060020a038681166004830152915191909216935063f8242c329250602480830192600092919082900301818387803b1580156111b557600080fd5b505af11580156111c9573d6000803e3d6000fd5b5050505081600160a060020a0316636de149f561121e8685600160a060020a031663605cba826040518163ffffffff1660e060020a028152600401602060405180830381600087803b158015610ad557600080fd5b6040518263ffffffff1660e060020a02815260040180828152602001915050600060405180830381600087803b15801561125757600080fd5b505af115801561126b573d6000803e3d6000fd5b5050505081600160a060020a031663a2de83686112c1600185600160a060020a031663ae1108756040518163ffffffff1660e060020a028152600401602060405180830381600087803b158015610ad557600080fd5b6040518263ffffffff1660e060020a02815260040180828152602001915050600060405180830381600087803b1580156112fa57600080fd5b505af115801561130e573d6000803e3d6000fd5b5050505081600160a060020a0316637daa30df826040518263ffffffff1660e060020a0281526004018082600160a060020a0316600160a060020a03168152602001915050600060405180830381600087803b15801561136d57600080fd5b505af1158015611381573d6000803e3d6000fd5b505060408051600160a060020a03808a1682526020820189905285168183015290517fccd897ff376a9748c9a2e6af2a359a82cb0513a96ff431f17763ad057b1619089350908190036060019150a15050505050565b6000805160206131788339815191526113f03382612a6c565b1515611441576040805160e560020a62461bcd0281526020600482015260216024820152600080516020613158833981519152604482015260f860020a607302606482015290519081900360840190fd5b60068290556040805183815290517f1e2fffeb4ad73c19aa71037a187b8cb1a45220f05d6cce7c2801c106de268a8a9181900360200190a15050565b6000806000806000807f4355524154455f4348414c4c454e47455f524f4c4500000000000000000000006114b13382612a6c565b1515611502576040805160e560020a62461bcd0281526020600482015260216024820152600080516020613158833981519152604482015260f860020a607302606482015290519081900360840190fd5b600160a060020a0380891660009081526001602090815260408083205481517f605cba82000000000000000000000000000000000000000000000000000000008152915194169a508a9363605cba8293600480840194938390030190829087803b15801561156f57600080fd5b505af1158015611583573d6000803e3d6000fd5b505050506040513d602081101561159957600080fd5b50516008549096506115c3906115b690606463ffffffff612b3b16565b879063ffffffff612b5016565b6003546040805160e060020a63a9059cbb028152336004820152602481018490529051929750600160a060020a039091169163a9059cbb916044808201926020929091908290030181600087803b15801561161d57600080fd5b505af1158015611631573d6000803e3d6000fd5b505050506040513d602081101561164757600080fd5b5060009450505b86600160a060020a031663cfd6d7326040518163ffffffff1660e060020a028152600401602060405180830381600087803b15801561168c57600080fd5b505af11580156116a0573d6000803e3d6000fd5b505050506040513d60208110156116b657600080fd5b50518410156119fd5786600160a060020a031663b263b26e856040518263ffffffff1660e060020a02815260040180828152602001915050602060405180830381600087803b15801561170857600080fd5b505af115801561171c573d6000803e3d6000fd5b505050506040513d602081101561173257600080fd5b5051604080517f3f6fa6550000000000000000000000000000000000000000000000000000000081529051919450600160a060020a03851691633f6fa655916004808201926020929091908290030181600087803b15801561179357600080fd5b505af11580156117a7573d6000803e3d6000fd5b505050506040513d60208110156117bd57600080fd5b505115156119f2576117d5868663ffffffff612b7916565b9150600360009054906101000a9004600160a060020a0316600160a060020a031663a9059cbb84600160a060020a031663534db0e26040518163ffffffff1660e060020a028152600401602060405180830381600087803b15801561183957600080fd5b505af115801561184d573d6000803e3d6000fd5b505050506040513d602081101561186357600080fd5b50516040805160e060020a633a4b66f102815290516118fa916118ed918c91600160a060020a038b1691633a4b66f1916004808201926020929091908290030181600087803b1580156118b557600080fd5b505af11580156118c9573d6000803e3d6000fd5b505050506040513d60208110156118df57600080fd5b50519063ffffffff612b3b16565b869063ffffffff612b5016565b6040518363ffffffff1660e060020a0281526004018083600160a060020a0316600160a060020a0316815260200182815260200192505050602060405180830381600087803b15801561194c57600080fd5b505af1158015611960573d6000803e3d6000fd5b505050506040513d602081101561197657600080fd5b5050604080517f164d90e0000000000000000000000000000000000000000000000000000000008152600160048201529051600160a060020a0385169163164d90e091602480830192600092919082900301818387803b1580156119d957600080fd5b505af11580156119ed573d6000803e3d6000fd5b505050505b60019093019261164e565b86600160a060020a03166335d9db5360006040518263ffffffff1660e060020a02815260040180828152602001915050600060405180830381600087803b158015611a4757600080fd5b505af1158015611a5b573d6000803e3d6000fd5b5050505086600160a060020a0316636de149f560006040518263ffffffff1660e060020a02815260040180828152602001915050600060405180830381600087803b158015611aa957600080fd5b505af1158015611abd573d6000803e3d6000fd5b5050505086600160a060020a031663a2de836860006040518263ffffffff1660e060020a02815260040180828152602001915050600060405180830381600087803b158015611b0b57600080fd5b505af1158015611b1f573d6000803e3d6000fd5b5050604080517f7b7892040000000000000000000000000000000000000000000000000000000081526000600482018190529151600160a060020a038c169450637b78920493506024808301939282900301818387803b158015611b8257600080fd5b505af1158015611b96573d6000803e3d6000fd5b505060408051600160a060020a038c16815290517f9d9f99a36ef64966814c1f89a7a64fcb0132cbd085184a9666469302f32b92c49350908190036020019150a15050505050505050565b60008060008060007f4355524154455f4348414c4c454e47455f524f4c450000000000000000000000611c143382612a6c565b1515611c65576040805160e560020a62461bcd0281526020600482015260216024820152600080516020613158833981519152604482015260f860020a607302606482015290519081900360840190fd5b600160a060020a0380881660009081526001602090815260408083205481517f605cba82000000000000000000000000000000000000000000000000000000008152915194169950899363605cba8293600480840194938390030190829087803b158015611cd257600080fd5b505af1158015611ce6573d6000803e3d6000fd5b505050506040513d6020811015611cfc57600080fd5b5051600854909550611d19906118ed90606463ffffffff612b3b16565b6003546040805160e060020a63a9059cbb028152336004820152602481018490529051929650600160a060020a039091169163a9059cbb916044808201926020929091908290030181600087803b158015611d7357600080fd5b505af1158015611d87573d6000803e3d6000fd5b505050506040513d6020811015611d9d57600080fd5b50506003546040805160e060020a638da5cb5b0281529051600160a060020a039283169263a9059cbb92908a1691638da5cb5b916004808201926020929091908290030181600087803b158015611df357600080fd5b505af1158015611e07573d6000803e3d6000fd5b505050506040513d6020811015611e1d57600080fd5b5051611e2f888863ffffffff612b7916565b6040518363ffffffff1660e060020a0281526004018083600160a060020a0316600160a060020a0316815260200182815260200192505050602060405180830381600087803b158015611e8157600080fd5b505af1158015611e95573d6000803e3d6000fd5b505050506040513d6020811015611eab57600080fd5b5060009350505b85600160a060020a031663cfd6d7326040518163ffffffff1660e060020a028152600401602060405180830381600087803b158015611ef057600080fd5b505af1158015611f04573d6000803e3d6000fd5b505050506040513d6020811015611f1a57600080fd5b50518310156120ae5785600160a060020a031663b263b26e846040518263ffffffff1660e060020a02815260040180828152602001915050602060405180830381600087803b158015611f6c57600080fd5b505af1158015611f80573d6000803e3d6000fd5b505050506040513d6020811015611f9657600080fd5b5051604080517f3f6fa6550000000000000000000000000000000000000000000000000000000081529051919350600160a060020a03841691633f6fa655916004808201926020929091908290030181600087803b158015611ff757600080fd5b505af115801561200b573d6000803e3d6000fd5b505050506040513d602081101561202157600080fd5b505115156120a357604080517f164d90e0000000000000000000000000000000000000000000000000000000008152600160048201529051600160a060020a0384169163164d90e091602480830192600092919082900301818387803b15801561208a57600080fd5b505af115801561209e573d6000803e3d6000fd5b505050505b600190920191611eb2565b85600160a060020a0316636de149f560006040518263ffffffff1660e060020a02815260040180828152602001915050600060405180830381600087803b1580156120f857600080fd5b505af115801561210c573d6000803e3d6000fd5b5050505085600160a060020a031663a2de836860006040518263ffffffff1660e060020a02815260040180828152602001915050600060405180830381600087803b15801561215a57600080fd5b505af115801561216e573d6000803e3d6000fd5b505060408051600160a060020a038b16815290517f125014e75e2aead4a1c8a35e9bb786a430fc1ba6354cbd9845802d3603abd0b09350908190036020019150a150505050505050565b600160a060020a03808216600090815260016020908152604080832054815160e060020a638da5cb5b02815291519416938493638da5cb5b93600480850194919392918390030190829087803b15801561221157600080fd5b505af1158015612225573d6000803e3d6000fd5b505050506040513d602081101561223b57600080fd5b5051600160a060020a0316331461229c576040805160e560020a62461bcd02815260206004820152601760248201527f73656e646572206973206e6f7420746865206f776e6572000000000000000000604482015290519081900360640190fd5b600081600160a060020a0316633a4b66f16040518163ffffffff1660e060020a028152600401602060405180830381600087803b1580156122dc57600080fd5b505af11580156122f0573d6000803e3d6000fd5b505050506040513d602081101561230657600080fd5b505111156124ca57600360009054906101000a9004600160a060020a0316600160a060020a031663a9059cbb82600160a060020a0316638da5cb5b6040518163ffffffff1660e060020a028152600401602060405180830381600087803b15801561237057600080fd5b505af1158015612384573d6000803e3d6000fd5b505050506040513d602081101561239a57600080fd5b50516040805160e060020a633a4b66f10281529051600160a060020a03861691633a4b66f19160048083019260209291908290030181600087803b1580156123e157600080fd5b505af11580156123f5573d6000803e3d6000fd5b505050506040513d602081101561240b57600080fd5b50516040805160e060020a63ffffffff8616028152600160a060020a03909316600484015260248301919091525160448083019260209291908290030181600087803b15801561245a57600080fd5b505af115801561246e573d6000803e3d6000fd5b505050506040513d602081101561248457600080fd5b505115156124ca576040805160e560020a62461bcd02815260206004820152600f6024820152600080516020613198833981519152604482015290519081900360640190fd5b604080517f7b7892040000000000000000000000000000000000000000000000000000000081526000600482018190529151600160a060020a03841692637b789204926024808201939182900301818387803b15801561252957600080fd5b505af115801561253d573d6000803e3d6000fd5b505060408051600160a060020a038616815290517fc48322c2e165c864176005884983dd81c87a9fc8258ca6a1967d17b26cd8d0e39350908190036020019150a15050565b60008051602061317883398151915261259b3382612a6c565b15156125ec576040805160e560020a62461bcd0281526020600482015260216024820152600080516020613158833981519152604482015260f860020a607302606482015290519081900360840190fd5b60078290556040805183815290517fec0975e9a985b0702fafca3ee144a642dfe5c48de1b5e1c934e0e4131ce5fcbe9181900360200190a15050565b60025490565b600160a060020a03808316600090815260016020908152604080832054815160e060020a633a4b66f102815291519416938492633a4b66f1926004808201939182900301818787803b15801561268357600080fd5b505af1158015612697573d6000803e3d6000fd5b505050506040513d60208110156126ad57600080fd5b50516040805160e060020a638da5cb5b02815290519192503391600160a060020a03851691638da5cb5b9160048083019260209291908290030181600087803b1580156126f957600080fd5b505af115801561270d573d6000803e3d6000fd5b505050506040513d602081101561272357600080fd5b5051600160a060020a031614612783576040805160e560020a62461bcd02815260206004820152601760248201527f6f776e6572206973206e6f74207468652073656e646572000000000000000000604482015290519081900360640190fd5b808311156127db576040805160e560020a62461bcd02815260206004820152601560248201527f5f7374616b65416d6f756e74203c3d207374616b650000000000000000000000604482015290519081900360640190fd5b600654838203101561285d576040805160e560020a62461bcd02815260206004820152602760248201527f7374616b65202d205f7374616b65416d6f756e74203e3d206d696e456e6c697360448201527f74416d6f756e7400000000000000000000000000000000000000000000000000606482015290519081900360840190fd5b6003546040805160e060020a63a9059cbb028152336004820152602481018690529051600160a060020a039092169163a9059cbb916044808201926020929091908290030181600087803b1580156128b457600080fd5b505af11580156128c8573d6000803e3d6000fd5b505050506040513d60208110156128de57600080fd5b50511515612924576040805160e560020a62461bcd02815260206004820152600f6024820152600080516020613198833981519152604482015290519081900360640190fd5b600160a060020a0382166335d9db53612943838663ffffffff612b7916565b6040518263ffffffff1660e060020a02815260040180828152602001915050600060405180830381600087803b15801561297c57600080fd5b505af1158015612990573d6000803e3d6000fd5b505050507f5ee9537083cb767f9e599a17876a9c597197deba435082e0b88c4da925d4599e848484600160a060020a0316633a4b66f16040518163ffffffff1660e060020a028152600401602060405180830381600087803b1580156129f557600080fd5b505af1158015612a09573d6000803e3d6000fd5b505050506040513d6020811015612a1f57600080fd5b505160408051600160a060020a039094168452602084019290925282820152519081900360600190a150505050565b600354600160a060020a031681565b600454600160a060020a031681565b60008054600160a060020a03161580612b25575060008054604080517f6d6712d8000000000000000000000000000000000000000000000000000000008152600160a060020a0387811660048301523060248301526044820187905291519190921692636d6712d892606480820193602093909283900390910190829087803b158015612af857600080fd5b505af1158015612b0c573d6000803e3d6000fd5b505050506040513d6020811015612b2257600080fd5b50515b90505b92915050565b81810182811015612b2857fe5b60008183811515612b4857fe5b049392505050565b6000821515612b6157506000612b28565b50818102818382811515612b7157fe5b0414612b2857fe5b600082821115612b8557fe5b50900390565b6040516105bc80612b9c83390190560060806040526002805460a060020a60ff021916905534801561002057600080fd5b506040516080806105bc833981016040908152815160208301519183015160609093015160008054600160a060020a03928316600160a060020a031991821617909155600280549383169382169390931790925560039290925560048054929093169116179055426005556105228061009a6000396000f3006080604052600436106100a35763ffffffff7c0100000000000000000000000000000000000000000000000000000000600035041663164d90e081146100a8578063392f37e9146100c45780633a4b66f11461014e5780633f6fa6551461017557806345d61ded1461019e578063534db0e2146101dc5780635cc07505146101f1578063b80777ea1461024a578063bc7c55ed1461025f578063fff139cf14610274575b600080fd5b3480156100b457600080fd5b506100c26004351515610289565b005b3480156100d057600080fd5b506100d9610306565b6040805160208082528351818301528351919283929083019185019080838360005b838110156101135781810151838201526020016100fb565b50505050905090810190601f1680156101405780820380516001836020036101000a031916815260200191505b509250505060405180910390f35b34801561015a57600080fd5b50610163610393565b60408051918252519081900360200190f35b34801561018157600080fd5b5061018a610399565b604080519115158252519081900360200190f35b3480156101aa57600080fd5b506101b36103ba565b6040805173ffffffffffffffffffffffffffffffffffffffff9092168252519081900360200190f35b3480156101e857600080fd5b506101b36103d6565b3480156101fd57600080fd5b506040805160206004803580820135601f81018490048402850184019095528484526100c29436949293602493928401919081908401838280828437509497506103f29650505050505050565b34801561025657600080fd5b506101636103fe565b34801561026b57600080fd5b506101b3610404565b34801561028057600080fd5b50610163610420565b6002805474ff00000000000000000000000000000000000000001916740100000000000000000000000000000000000000008315159081029190911790915560408051308152602081019290925280517f1e26517183efe4efd75405d381f0fd1aa3fc89740db3c17a9c244127ca64c79c9281900390910190a150565b60018054604080516020600284861615610100026000190190941693909304601f8101849004840282018401909252818152929183018282801561038b5780601f106103605761010080835404028352916020019161038b565b820191906000526020600020905b81548152906001019060200180831161036e57829003601f168201915b505050505081565b60035481565b60025474010000000000000000000000000000000000000000900460ff1681565b60005473ffffffffffffffffffffffffffffffffffffffff1681565b60025473ffffffffffffffffffffffffffffffffffffffff1681565b6103fb81610444565b50565b60055481565b60045473ffffffffffffffffffffffffffffffffffffffff1681565b7f5550444154455f4d455441444154415f524f4c4500000000000000000000000081565b805161045790600190602084019061045b565b5050565b828054600181600116156101000203166002900490600052602060002090601f016020900481019282601f1061049c57805160ff19168380011785556104c9565b828001600101855582156104c9579182015b828111156104c95782518255916020019190600101906104ae565b506104d59291506104d9565b5090565b6104f391905b808211156104d557600081556001016104df565b905600a165627a7a72305820bf08d056b975e87f78bab50a2ec77cc2c36e536427d7979c7e30012f01aa403b0029596f7520646f206e6f7420686176652074686520636f727265637420726f6c654348414e47455f53455454494e47535f524f4c450000000000000000000000007472616e73666572206661696c65640000000000000000000000000000000000a165627a7a72305820282c1375e75e126ecfaf473c1a5d52e96495a6c87f978ed7891734783262c1790029",
  "source": "pragma solidity ^0.4.21;\n\nimport \"./interfaces/IListing.sol\";\nimport \"./interfaces/IListingFactory.sol\";\nimport \"../tokensystem/interfaces/IToken.sol\";\nimport \"../../authentication/Secured.sol\";\nimport \"../../utility/syncing/Syncable.sol\";\nimport \"../../utility/metadata/MetaDataContainer.sol\";\nimport \"openzeppelin-solidity/contracts/math/SafeMath.sol\";\nimport \"./Challenge.sol\";\nimport \"./ChallengeRegistry.sol\";\n\n\ncontract TokenCuratedRegistry is Secured, Syncable {\n  using SafeMath for uint256;\n\n  bytes32 constant public WITHDRAW_FUNDS_ROLE = \"WITHDRAW_FUNDS_ROLE\";\n  bytes32 constant public CURATE_CHALLENGE_ROLE = \"CURATE_CHALLENGE_ROLE\";\n  bytes32 constant public CHANGE_SETTINGS_ROLE = \"CHANGE_SETTINGS_ROLE\";\n\n  // ------\n  // EVENTS\n  // ------\n\n  event Enlisted(address listing, uint stake, uint price);\n  event Challenged(address listing, uint stake, address challenge);\n  event Unlisted(address listing);\n  event ChallengeApproved(address listing);\n  event ChallengeDenied(address listing);\n  event Increased(address listing, uint increasedBy, uint newStake);\n  event Decreased(address listing, uint decreasedBy, uint newStake);\n  event Withdrawn(address by, uint balance);\n  event MinEnlistAmountChanged(uint value);\n  event MinChallengeAmountChanged(uint value);\n  event CuratorPercentageChanged(uint value);\n\n  // Maps listingHashes to associated listing data\n  mapping(address => IListing) public listings;\n  address[] listingsIndex;\n\n  // Global Variables\n  IToken public token;\n  IListingFactory public listingFactory;\n  ChallengeRegistry challengeRegistry;\n\n  // Settings\n  uint minEnlistAmount = 0;\n  uint minChallengeAmount = 0;\n  uint curatorPercentage = 0;\n\n  /**\n  @dev Contructor\n  @notice                Sets the address for token\n  @param _gateKeeper     Address of the gatekeeper\n  @param _token          Address of the token\n  */\n  constructor(\n    address _gateKeeper,\n    address _token,\n    address _listingFactory,\n    address _challengeRegistry,\n    uint _minEnlistAmount,\n    uint _minChallengeAmount,\n    uint _curatorPercentage\n  )\n    Secured(_gateKeeper)\n    public\n  {\n    token = IToken(_token);\n    listingFactory = IListingFactory(_listingFactory);\n    challengeRegistry = ChallengeRegistry(_challengeRegistry);\n\n    minEnlistAmount = _minEnlistAmount;\n    minChallengeAmount = _minChallengeAmount;\n    curatorPercentage = _curatorPercentage;\n  }\n\n  /**\n  @notice                 Allows a seller to list data to be available for selling.\n  @notice                 Takes tokens from user.\n  @param _stakeAmount     The number of ERC20 tokens a user is willing to potentially stake\n  @param _price           Price of the listing\n  @param _metadata        Metadata\n  */\n  function enlist(uint _stakeAmount, uint _price, string _metadata) external {\n    // Stake must be above a certain amount\n    require(_stakeAmount >= minEnlistAmount, \"_stakeAmount >= minEnlistAmount\");\n\n    // Transfers tokens from user to Registry contract\n    require(token.transferFrom(msg.sender, this, _stakeAmount), \"transfer failed\");\n\n    // Add listing to listings\n    listingFactory.createListing(\n      msg.sender,\n      _price,\n      _stakeAmount,\n      this,\n      _metadata\n    );\n  }\n\n  /**\n  @notice                 Listing is added through the factory\n  @param _listing         Address of the added listing\n  */\n  function addListing(address _listing) public {\n    IListing listing = IListing(_listing);\n\n    // Add to mapping\n    listings[_listing] = listing;\n    listingsIndex.push(_listing);\n\n    // Event\n    emit Enlisted(_listing, listing.stake(), listing.price());\n  }\n\n  /**\n  @notice             Allows the owner of a listing to remove the listing from the whitelist\n  @notice             Returns all tokens to the owner of the listing\n  @param _listing     The listing of a user's listing\n  */\n  function unlist(address _listing) public {\n    IListing listing = listings[_listing];\n    require(msg.sender == listing.owner(), \"sender is not the owner\");\n\n    // Transfers any remaining balance back to the owner\n    if (listing.stake() > 0)\n      require(token.transfer(listing.owner(), listing.stake()), \"transfer failed\");\n\n    // Blacklist\n    listing.setWhitelisted(false);\n\n    // Event\n    emit Unlisted(_listing);\n  }\n\n  /**\n  @notice             Allows the owner of a listing to increase their unstaked deposit.\n  @param _listing     The listing of a user's application/listing\n  @param _stakeAmount The number of ERC20 tokens to increase a user's unstaked deposit\n  */\n  function increase(address _listing, uint _stakeAmount) public {\n    IListing listing = listings[_listing];\n\n    require(listing.owner() == msg.sender, \"owner is not the sender\");\n    require(token.transferFrom(msg.sender, this, _stakeAmount), \"transfer failed\");\n\n    listing.setStake(listing.stake().add(_stakeAmount));\n\n    // Event\n    emit Increased(_listing, _stakeAmount, listing.stake());\n  }\n\n  /**\n  @notice             Allows the owner of a listing to decrease their unstaked deposit.\n  @notice             The listing keeps its previous status.\n  @param _listing     The listing of a user's application/listing\n  @param _stakeAmount The number of ERC20 tokens to decrease a user's unstaked deposit\n  */\n  function decrease(address _listing, uint _stakeAmount) public {\n    IListing listing = listings[_listing];\n\n    uint stake = listing.stake();\n\n    require(listing.owner() == msg.sender, \"owner is not the sender\");\n    require(_stakeAmount <= stake, \"_stakeAmount <= stake\");\n    require(stake - _stakeAmount >= minEnlistAmount, \"stake - _stakeAmount >= minEnlistAmount\");\n\n    require(token.transfer(msg.sender, _stakeAmount), \"transfer failed\");\n\n    listing.setStake(stake.sub(_stakeAmount));\n\n    // Event\n    emit Decreased(_listing, _stakeAmount, listing.stake());\n  }\n\n  /**\n  @notice             Starts a challenge for a listing.\n  @dev                Tokens are taken from the challenger and the data seller's deposit is locked.\n  @param _listing     The listing of data.\n  @param _stakeAmount The amount the challenger wants to stake.\n  */\n  function challenge(address _listing, uint _stakeAmount, string _metadata) public {\n    require(_stakeAmount >= minChallengeAmount, \"_stakeAmount >= minChallengeAmount\");\n\n    IListing listing = listings[_listing];\n\n    // Takes tokens from challenger\n    require(token.transferFrom(msg.sender, this, _stakeAmount),\"transfer failed\");\n\n    // Add challenge to the challenges mapping\n    Challenge _challenge = new Challenge(\n      msg.sender,\n      _stakeAmount,\n      _listing,\n      gateKeeper\n    );\n\n    // Metadata role\n    gateKeeper.createPermission(\n      msg.sender,\n      address(_challenge),\n      bytes32(\"UPDATE_METADATA_ROLE\"),\n      msg.sender\n    );\n\n    // Add metadata\n    _challenge.updateMetaData(_metadata);\n\n    // Add challenge to registry\n    challengeRegistry.addChallenge(address(_challenge));\n    // Add the necessary data on the challenged listing\n    listing.setChallengesStake(listing.challengesStake().add(_stakeAmount));\n    listing.setNumberOfChallenges(listing.numberOfChallenges().add(1));\n    listing.setChallenge(address(_challenge));\n\n    // Event\n    emit Challenged(_listing, _stakeAmount, address(_challenge));\n  }\n\n   /**\n  @notice             Marks a challenge as resolved.\n  @notice             Rewards the winner tokens and either whitelists or de-whitelists the listing.\n  @param _listing     A listing with a challenge that is to be resolved\n  */\n  function approveChallenge(address _listing) public auth(CURATE_CHALLENGE_ROLE) {\n    IListing listing = listings[_listing];\n\n    uint challengesStake = listing.challengesStake();\n\n    // Curator (msg.sender) should get 10% of the total sum of all challenge stakes + lising stake\n    uint curatorShare = challengesStake.mul((curatorPercentage.div(100)));\n    token.transfer(msg.sender, curatorShare);\n\n    // Challengers should get a percentage of the total sum of all challenge stakes + lising stake\n    // equal to their share of the total challenge stake\n    // Get all challenges that are unresolved and are linked to this listing,\n    for (uint i = 0; i < listing.getChallengesLength(); i ++) {\n      Challenge _challenge = Challenge(listing.getChallengeAtIndex(i));\n\n      if (_challenge.resolved() == false) {\n        // Calculate what's left to divide between the challengers\n        uint challengerShare = challengesStake.sub(curatorShare);\n        // Transfer percentage of challenge to THIS challenger\n        token.transfer(_challenge.challenger(), challengerShare.mul(_challenge.stake().div(challengesStake)));\n        // Set challenge as resolved\n        _challenge.setResolved(true);\n      }\n    }\n\n    // Take stake from listing\n    listing.setStake(0);\n    // Reset number of challenges and total challenges stake\n    listing.setChallengesStake(0);\n    listing.setNumberOfChallenges(0);\n\n    // Blacklist listing\n    listing.setWhitelisted(false);\n\n    // Event\n    emit ChallengeApproved(_listing);\n  }\n\n   /**\n  @notice             Marks a challenge as denied.\n  @notice             Rewards the listing seller tokens and de-whitelists the listing.\n  @param _listing     A listing with a challenge that is to be resolved\n  */\n  function denyChallenge(address _listing) public auth(CURATE_CHALLENGE_ROLE) {\n    IListing listing = listings[_listing];\n\n    uint challengesStake = listing.challengesStake();\n\n    // Admin (msg.sender) should get 10% of the total sum of all challenge stakes + lising stake\n    uint curatorShare = challengesStake.mul(curatorPercentage.div(100));\n    token.transfer(msg.sender, curatorShare);\n\n    // Transfer the rest of the stake to the data owner\n    token.transfer(listing.owner(), challengesStake.sub(curatorShare));\n\n    // Get all challenges that are unresolved and are linked to this listing,\n    for (uint i = 0; i < listing.getChallengesLength(); i ++) {\n      Challenge _challenge = Challenge(listing.getChallengeAtIndex(i));\n\n      if (_challenge.resolved() == false) {\n        // Set challenge as resolved\n        _challenge.setResolved(true);\n      }\n    }\n\n    // Reset number of challenges and total challenges stake\n    listing.setChallengesStake(0);\n    listing.setNumberOfChallenges(0);\n\n    // Event\n    emit ChallengeDenied(_listing);\n  }\n\n  /**\n  @notice      Withdraw all the funds from this contract: safety measure\n  */\n  function withdraw() public auth(WITHDRAW_FUNDS_ROLE) {\n    uint balance = address(this).balance;\n    token.transfer(msg.sender, address(this).balance);\n    emit Withdrawn(msg.sender, balance);\n  }\n\n  /**\n  @notice                   Sets the minEnlistAmount\n  @param _minEnlistAmount   minEnlistAmount\n  */\n  function setMinEnlistAmount(uint _minEnlistAmount) public auth(CHANGE_SETTINGS_ROLE) {\n    minEnlistAmount = _minEnlistAmount;\n    emit MinEnlistAmountChanged(_minEnlistAmount);\n  }\n\n  /**\n  @notice                     Sets the minChallengeAmount\n  @param _minChallengeAmount  minChallengeAmount\n  */\n  function setMinChallengeAmount(uint _minChallengeAmount) public auth(CHANGE_SETTINGS_ROLE) {\n    minChallengeAmount = _minChallengeAmount;\n    emit MinChallengeAmountChanged(_minChallengeAmount);\n  }\n\n  /**\n  @notice                   Sets the curatorPercentage\n  @param _curatorPercentage curatorPercentage\n  */\n  function setCuratorPercentage(uint _curatorPercentage) public auth(CHANGE_SETTINGS_ROLE) {\n    curatorPercentage = _curatorPercentage;\n    emit CuratorPercentageChanged(_curatorPercentage);\n  }\n\n  /**\n  * implementation of syncable methods\n  */\n  function getIndexLength() public view returns (uint length) {\n    length = listingsIndex.length;\n  }\n\n  function getByIndex(uint index) public view returns (address key, address contractAddress) {\n    return getByKey(listingsIndex[index]);\n  }\n\n  function getByKey(address _key) public view returns (address key, address contractAddress) {\n    key = address(listings[_key]);\n    contractAddress = address(listings[_key]);\n  }\n}\n",
  "sourcePath": "@settlemint/solidity-mint/contracts/marketplaces/tokencuratedregistry/TokenCuratedRegistry.sol",
  "compiler": {
    "name": "solc",
    "version": "0.4.24+commit.e67f0147.Emscripten.clang"
  },
  "schemaVersion": "3.0.0-beta.0",
  "updatedAt": "2018-09-03T08:50:22.797Z"
}