{
  "contractName": "TokenRegistry",
  "abi": [
    {
      "constant": true,
      "inputs": [],
      "name": "metadata",
      "outputs": [
        {
          "name": "",
          "type": "string"
        }
      ],
      "payable": false,
      "stateMutability": "view",
      "type": "function"
    },
    {
      "constant": true,
      "inputs": [],
      "name": "gateKeeper",
      "outputs": [
        {
          "name": "",
          "type": "address"
        }
      ],
      "payable": false,
      "stateMutability": "view",
      "type": "function"
    },
    {
      "constant": false,
      "inputs": [
        {
          "name": "ipfsHash",
          "type": "string"
        }
      ],
      "name": "updateMetaData",
      "outputs": [],
      "payable": false,
      "stateMutability": "nonpayable",
      "type": "function"
    },
    {
      "constant": true,
      "inputs": [],
      "name": "LIST_TOKEN_ROLE",
      "outputs": [
        {
          "name": "",
          "type": "bytes32"
        }
      ],
      "payable": false,
      "stateMutability": "view",
      "type": "function"
    },
    {
      "constant": true,
      "inputs": [],
      "name": "UPDATE_METADATA_ROLE",
      "outputs": [
        {
          "name": "",
          "type": "bytes32"
        }
      ],
      "payable": false,
      "stateMutability": "view",
      "type": "function"
    },
    {
      "inputs": [
        {
          "name": "_gateKeeper",
          "type": "address"
        }
      ],
      "payable": false,
      "stateMutability": "nonpayable",
      "type": "constructor"
    },
    {
      "constant": false,
      "inputs": [
        {
          "name": "_name",
          "type": "bytes32"
        },
        {
          "name": "_token",
          "type": "address"
        }
      ],
      "name": "addToken",
      "outputs": [],
      "payable": false,
      "stateMutability": "nonpayable",
      "type": "function"
    },
    {
      "constant": true,
      "inputs": [],
      "name": "getIndexLength",
      "outputs": [
        {
          "name": "length",
          "type": "uint256"
        }
      ],
      "payable": false,
      "stateMutability": "view",
      "type": "function"
    },
    {
      "constant": true,
      "inputs": [
        {
          "name": "index",
          "type": "uint256"
        }
      ],
      "name": "getByIndex",
      "outputs": [
        {
          "name": "key",
          "type": "bytes32"
        },
        {
          "name": "contractAddress",
          "type": "address"
        }
      ],
      "payable": false,
      "stateMutability": "view",
      "type": "function"
    },
    {
      "constant": true,
      "inputs": [
        {
          "name": "_key",
          "type": "bytes32"
        }
      ],
      "name": "getByKey",
      "outputs": [
        {
          "name": "key",
          "type": "bytes32"
        },
        {
          "name": "contractAddress",
          "type": "address"
        }
      ],
      "payable": false,
      "stateMutability": "view",
      "type": "function"
    }
  ],
  "bytecode": "0x608060405234801561001057600080fd5b5060405160208061074e833981016040525160008054600160a060020a03909216600160a060020a03199092169190911790556106fc806100526000396000f3006080604052600436106100985763ffffffff7c01000000000000000000000000000000000000000000000000000000006000350416632d883a73811461009d578063392f37e9146100d657806345d61ded146101605780634a91da90146101915780635cc07505146101a95780638273871e146102045780639776aacf1461022b578063e1ba7d011461024f578063fff139cf14610264575b600080fd5b3480156100a957600080fd5b506100b5600435610279565b60408051928352600160a060020a0390911660208301528051918290030190f35b3480156100e257600080fd5b506100eb6102a7565b6040805160208082528351818301528351919283929083019185019080838360005b8381101561012557818101518382015260200161010d565b50505050905090810190601f1680156101525780820380516001836020036101000a031916815260200191505b509250505060405180910390f35b34801561016c57600080fd5b50610175610334565b60408051600160a060020a039092168252519081900360200190f35b34801561019d57600080fd5b506100b5600435610343565b3480156101b557600080fd5b506040805160206004803580820135601f81018490048402850184019095528484526102029436949293602493928401919081908401838280828437509497506103629650505050505050565b005b34801561021057600080fd5b50610219610379565b60408051918252519081900360200190f35b34801561023757600080fd5b50610202600435600160a060020a036024351661039d565b34801561025b57600080fd5b5061021961054b565b34801561027057600080fd5b50610219610551565b60008061029e60038481548110151561028e57fe5b9060005260206000200154610343565b91509150915091565b60018054604080516020600284861615610100026000190190941693909304601f8101849004840282018401909252818152929183018282801561032c5780601f106103015761010080835404028352916020019161032c565b820191906000526020600020905b81548152906001019060200180831161030f57829003601f168201915b505050505081565b600054600160a060020a031681565b6000818152600260205260409020549091600160a060020a0390911690565b8051610375906001906020840190610635565b5050565b7f4c4953545f544f4b454e5f524f4c45000000000000000000000000000000000081565b7f4c4953545f544f4b454e5f524f4c4500000000000000000000000000000000006103c83382610575565b151561045b57604080517f08c379a000000000000000000000000000000000000000000000000000000000815260206004820152602160248201527f596f7520646f206e6f7420686176652074686520636f727265637420726f6c6560448201527f7300000000000000000000000000000000000000000000000000000000000000606482015290519081900360840190fd5b600083815260026020526040902054600160a060020a0316156104df57604080517f08c379a000000000000000000000000000000000000000000000000000000000815260206004820152601860248201527f6f6e6c792061636365707420756e69717565206e616d65730000000000000000604482015290519081900360640190fd5b506000828152600260205260408120805473ffffffffffffffffffffffffffffffffffffffff1916600160a060020a0393909316929092179091556003805460018101825591527fc2575a0e9e593c00f959f8c92f12db2869c3395a3b0502d05e2516446f71f85b0155565b60035490565b7f5550444154455f4d455441444154415f524f4c4500000000000000000000000081565b60008054600160a060020a0316158061062e575060008054604080517f6d6712d8000000000000000000000000000000000000000000000000000000008152600160a060020a0387811660048301523060248301526044820187905291519190921692636d6712d892606480820193602093909283900390910190829087803b15801561060157600080fd5b505af1158015610615573d6000803e3d6000fd5b505050506040513d602081101561062b57600080fd5b50515b9392505050565b828054600181600116156101000203166002900490600052602060002090601f016020900481019282601f1061067657805160ff19168380011785556106a3565b828001600101855582156106a3579182015b828111156106a3578251825591602001919060010190610688565b506106af9291506106b3565b5090565b6106cd91905b808211156106af57600081556001016106b9565b905600a165627a7a72305820e64109bf3a051d2a38bf561c121a1041b70c93adb302ac3d7adaeb790261f16c0029",
  "source": "pragma solidity ^0.4.24;\n\nimport \"./interfaces/ITokenRegistry.sol\";\n\n\ncontract TokenRegistry is ITokenRegistry {\n\n  constructor(address _gateKeeper) ITokenRegistry(_gateKeeper) public {}\n\n  function addToken(bytes32 _name, address _token) public auth(LIST_TOKEN_ROLE) {\n    require(tokens[_name] == address(0x0), \"only accept unique names\");\n    tokens[_name] = IToken(_token);\n    tokenIndex.push(_name);\n  }\n\n  function getIndexLength() public view returns (uint length) {\n    length = tokenIndex.length;\n  }\n\n  function getByIndex(uint index) public view returns (bytes32 key, address contractAddress) {\n    return getByKey(tokenIndex[index]);\n  }\n\n  function getByKey(bytes32 _key) public view returns (bytes32 key, address contractAddress) {\n    contractAddress = tokens[_key];\n    key = _key;\n  }\n}\n",
  "sourcePath": "@settlemint/solidity-mint/contracts/marketplaces/tokensystem/TokenRegistry.sol",
  "compiler": {
    "name": "solc",
    "version": "0.4.24+commit.e67f0147.Emscripten.clang"
  },
  "schemaVersion": "3.0.0-beta.0",
  "updatedAt": "2018-09-03T08:50:22.804Z"
}